:1020000000080010C1260000192700001927000051
:10201000192700001927000019270000C20DFFEF43
:102020000000000000000000000000001927000070
:1020300019270000000000001927000019270000E0
:10204000192700007121000019270000192700003E
:102050001927000019270000192700001927000080
:102060001927000019270000192700001927000070
:102070001927000019270000192700001927000060
:102080001927000019270000192700001927000050
:102090001927000019270000192700001927000040
:1020A0001927000019270000192700001927000030
:1020B0001927000019270000192700001927000020
:0420C00019270000DC
:1021000038B5040098480500102C01D3312C06D3B3
:1021100038229649964800F024FA00F021FA103C43
:10212000600915EB800501202021B4FBF1F202FBD0
:1021300011429040286031BD38B504008D4805003B
:10214000102C01D3312C06D362228849884800F034
:1021500008FA00F005FA103C600915EB8005012033
:102160002021B4FBF1F202FB11429040286031BD06
:1021700080B58148006890F000707F4908605FF08A
:102180004020006850F001005FF0402108601120FD
:10219000FFF7D2FF01BD7948016821F0100101600D
:1021A0007648006850F02000744908607348006861
:1021B0004006FBD57248016821F0020101607148B8
:1021C000AA2101606F48552101606D48016821F026
:1021D000010101606B48AA2101606A485521016034
:1021E000694800688008800050F001006649086076
:1021F00066480068C00BC00350F0180063490860CF
:102200006248006830F47F0050F480305F49086015
:102210005C48AA2101605B4855210160584800686C
:1022200050F00100564908605648AA2101605548FF
:1022300055210160564800684001FBD555480221F0
:102240000160002054490860544908604C48006807
:1022500050F002004A4908604A48AA2101604948F2
:1022600055210160704700204D4908604D490860C4
:102270004D4908604D4908604D49086000204D49AE
:1022800008604D4908604D4908604D4908604D4956
:10229000086000204C4908604C4908604C490860BF
:1022A0004C4908604C4908604C4908604C4908603A
:1022B0004C4908604C490860704780B54B4845F26E
:1022C0003A010160FFF767FFFFF7CDFF37485FF086
:1022D0000071016046485FF0007101604548006888
:1022E00050F00200434908604348016821F00101B1
:1022F00001604148006850F002003F4908603E48D4
:10230000016821F0020101603C48006880088000FB
:102310003A4908603A48006850F0010038490860BE
:102320003748006850F002003549086034480168B9
:1023300021F0040101603348112101603248334922
:1023400001605FF04020006850F001005FF0402124
:1023500008602948006850F00100274908601120F2
:10236000FFF7CEFE62B6FEE700E100E010240000B9
:10237000A825000080E200E034C00920A0C10F4081
:1023800080C00F408CC00F400CC10F4084C00F4074
:1023900088C00F4004C10F40ACC10F40A8C10F401E
:1023A00080C0092060C0092040C0092020C0092049
:1023B00000C0092090C0092070C0092050C0092029
:1023C00030C0092010C0092028C0024024C00240AB
:1023D00020C002401CC0024010C002400CC002409D
:1023E00008C0024004C0024000C0024000C00F40CC
:1023F00038C00920C4C00F40044000407040004075
:10240000144000400C40004018400040881E02006C
:10241000433A5C446F63756D656E747320616E64DE
:102420002053657474696E67735C4B72756D5C4D97
:102430007920446F63756D656E74735C49415220F9
:10244000456D62656464656420576F726B62656E8A
:1024500063685C352E34315C61726D5C6578616DEA
:10246000706C65735C4E58505C4C504331377878D3
:102470005C4941522D4C50432D313736382D534B4A
:102480005C47657474696E67537461727465645CEB
:102490006D61696E2E63000010B5044603E014F808
:1024A000010B00F0B3F820780028F8D110BD2DE919
:1024B000F04104460D4616461F46DFF84C804EB1EB
:1024C0004046FFF7E9FF3046FFF7E6FF08F110004E
:1024D000FFF7E2FF2046FFF7DFFF09A0FFF7DCFF71
:1024E0002846FFF7D9FF07A0FFF7D6FF3846FFF7CA
:1024F000D3FF08F11800FFF7CFFF0020BDE8F081FF
:102500003A00000020000000DC25000000B5124A5F
:102510001068002804D011000220ABBE002010601B
:1025200000BD10B583B00B000B4C2068002809D10A
:102530000AA0009004200190032002906946012027
:10254000ABBE20602068009001930292694605208E
:10255000ABBE101A03B010BD000800103A7474002E
:10256000704770B584B0034608460A2100248DF8F0
:102570000A400DF109040A25491EC9B292FBF5F67D
:1025800005FB1622303204F801293246012AA8BF81
:102590000129F1DA002200AC0919FFF788FF08B918
:1025A00000F0B1B804B070BD284E5649435F57449F
:1025B00054203C3D20496E744E756D626572292031
:1025C000262620284E5649435F504C4C31203E3D34
:1025D00020496E744E756D6265722900496E2066E1
:1025E000756E6374696F6E2000000000202D2D2031
:1025F00000000000202D2D20617373657274696FD7
:102600006E206661696C65640A00000010B582B0D6
:10261000044614F1010F0AD08DF80000012200A930
:10262000012000F063F8012801D1204616BD4FF0CB
:10263000FF3016BD10B584B0030014000093019163
:10264000029469460520ABBE01221900201AC0463B
:10265000C04604B010BD0000A72600000400000022
:10266000000800100000000010B50548054CA0420D
:1026700004D050F8041B8847A042FAD110BD00BF17
:10268000582600006826000080B5002901D10020EE
:1026900002BD012801D0022802D1FFF742FF02BD8E
:1026A000FFF7C8FF02BD002305E050F8041B41F806
:1026B000043B121FFBD150F8042B002AF5D17047C0
:1026C00000F028F8002801D0FFF7CEFF0020FFF728
:1026D000F4FD00F01CF8000080B5FFF717FF024A78
:1026E00011001820ABBEFBE72600020080B50028D1
:1026F00002D4FFF7C9FF02BD002002BD07463846DD
:10270000FFF7EAFFFBE780B50120FFF7E5BF80B5E3
:0A271000FFF7F4BF01207047FEE759
:04000005000026C110
:00000001FF
