:1020000000080010C90D0100E30F0100E30F0100FB
:10201000E30F0100E30F0100E30F0100C89AF9EF9D
:10202000000000000000000000000000E30F0100BD
:10203000E30F010000000000E30F0100E30F0100C7
:10204000E30F0100EBE70000E30F0100E30F0100E5
:10205000E30F0100E30F0100E30F0100E30F0100B4
:10206000E30F0100E30F0100E30F0100E30F0100A4
:10207000E30F0100E30F0100E30F0100E30F010094
:10208000E30F0100E30F0100E30F0100E30F010084
:10209000E30F0100E30F0100E30F0100E30F010074
:1020A000EBB30000E30F0100E30F0100E30F0100B9
:1020B000E30F0100E30F0100E30F0100E30F010054
:0420C000E30F010029
:10210000F00FF00FF00FF00FF00FF00FF00FF00FD7
:10211000F00FF00FF00FF00FF00FF00FF00FF00FC7
:10212000F00FF00FF00FF00FF00FF00FF00FF00FB7
:10213000F00FF00FF00FF00FF00FF00FF00FF00FA7
:1032C000000FF00FF00FF00FF00FF00FF00FF00FF6
:1032D000F00FF00FF00FF00FF00FF00FF00FF00FF6
:1032E000F00FF00FF00FF00FF00FF00FF00FF00FE6
:1032F000F00FF00FF00FF00FF00FF00FF00FF00FD6
:10330000F00FF00FF00FF00FF00FF00FF00FF00FC5
:10331000F00FF00FF00FF00FF00FF00FF00FF00FB5
:10332000F00FF00FF00FF00FF00FF00FF00FF00FA5
:10333000F00FF00FF00FF00FF00FF00FF00FF00F95
:10334000F00FF00FF00FF00FF00FF00FF00FF00F85
:10335000F00FF00FF00FF00FF00FF00FF00FF00F75
:10336000F00FF00FF00FF00FF00FF00FF00FF00F65
:10337000F00FF00FF00FF00FF00FF00FF00FF00F55
:10338000F00FF00FF00FF00FF00FF00FF00FF00F45
:10339000F00FF00FF00FF00FF00FF00FF00FF00F35
:1033A000F00FF00FF00FF00FF00FF00FF00FF00F25
:1033B000F00FF00FF00FF00FF00FF00FF00FF00F15
:1033C000000F000F000F000F000F000F000F000F85
:1033D000000F000FF00FF00FF00FF00FF00FF00FD5
:1033E000F00FF00FF00FF00FF00FF00FF00FF00FE5
:1033F000F00FF00FF00FF00FF00FF00FF00FF00FD5
:10340000F00FF00FF00FF00FF00FF00FF00FF00FC4
:10341000F00FF00FF00FF00FF00FF00FF00FF00FB4
:10342000F00FF00FF00FF00FF00FF00FF00FF00FA4
:10343000F00FF00FF00FF00FF00FF00FF00FF00F94
:10344000F00FF00FF00FF00FF00FF00FF00FF00F84
:10345000F00FF00FF00FF00FF00FF00FF00FF00F74
:10346000F00FF00FF00FF00FF00FF00FF00FF00F64
:10347000F00FF00FF00FF00FF00FF00FF00FF00F54
:10348000F00FF00FF00FF00FF00FF00FF00FF00F44
:10349000F00FF00FF00FF00FF00FF00FF00FF00F34
:1034A000F00FF00FF00FF00FF00FF00FF00FF00F24
:1034B000F00FF00FF00FF00FF00FF00FF00F000F04
:1034C000000F000F000F000F000F000F000F000F84
:1034D000000F000F000F000F000F000F000F000F74
:1034E000000F000F000FF00FF00FF00FF00FF00FB4
:1034F000F00FF00FF00FF00FF00FF00FF00FF00FD4
:10350000F00FF00FF00FF00FF00FF00FF00FF00FC3
:10351000F00FF00FF00FF00FF00FF00FF00FF00FB3
:10352000F00FF00FF00FF00FF00FF00FF00FF00FA3
:10353000F00FF00FF00FF00FF00FF00FF00FF00F93
:10354000F00FF00FF00FF00FF00FF00FF00FF00F83
:10355000F00FF00FF00FF00FF00FF00FF00FF00F73
:10356000F00FF00FF00FF00FF00FF00FF00FF00F63
:10357000F00FF00FF00FF00FF00FF00FF00FF00F53
:10358000F00FF00FF00FF00FF00FF00FF00FF00F43
:10359000F00FF00FF00FF00FF00FF00FF00FF00F33
:1035A000F00FF00FF00FF00FF00FF00FF00FF00F23
:1035B000F00FF00FF00FF00FF00FF00FF00FF00F13
:1035C000F00FF00F000F000F000F000F000F000FA3
:1035D000000F000F000F000F000F000F000F000F73
:1035E000000F000F000F000F000F000F000F000F63
:1035F000F00FF00FF00FF00FF00FF00FF00FF00FD3
:10360000F00FF00FF00FF00FF00FF00FF00FF00FC2
:10361000F00FF00FF00FF00FF00FF00FF00FF00FB2
:10362000F00FF00FF00FF00FF00FF00FF00FF00FA2
:10363000F00FF00FF00FF00FF00FF00FF00FF00F92
:10364000F00FF00FF00FF00FF00FF00FF00FF00F82
:10365000F00FF00FF00FF00FF00FF00FF00FF00F72
:10366000F00FF00FF00FF00FF00FF00FF00FF00F62
:10367000F00FF00FF00FF00FF00FF00FF00FF00F52
:10368000F00FF00FF00FF00FF00FF00FF00FF00F42
:10369000F00FF00FF00FF00FF00FF00FF00FF00F32
:1036A000F00FF00FF00FF00FF00FF00FF00FF00F22
:1036B000F00FF00FF00FF00FF00FF00FF00FF00F12
:1036C000F00FF00FF00FF00F000F000F000F000FC2
:1036D000000F000F000F000F000F000F000F000F72
:1036E000000F000F000F000F000F000F000F000F62
:1036F000000F000F000F000F000F000FF00FF00F72
:10370000F00FF00FF00FF00FF00FF00FF00FF00FC1
:10371000F00FF00FF00FF00FF00FF00FF00FF00FB1
:10372000F00FF00FF00FF00FF00FF00FF00FF00FA1
:10373000F00FF00FF00FF00FF00FF00FF00FF00F91
:10374000F00FF00FF00FF00FF00FF00FF00FF00F81
:10375000F00FF00FF00FF00FF00FF00FF00FF00F71
:10376000F00FF00FF00FF00FF00FF00FF00FF00F61
:10377000F00FF00FF00FF00FF00FF00FF00FF00F51
:10378000F00FF00FF00FF00FF00FF00FF00FF00F41
:10379000F00FF00FF00FF00FF00FF00FF00FF00F31
:1037A000F00FF00FF00FF00FF00FF00FF00FF00F21
:1037B000F00FF00FF00FF00FF00FF00FF00FF00F11
:1037C000F00FF00FF00FF00FF00FF00FF00F000FF1
:1037D000000F000F000F000F000F000F000F000F71
:1037E000000F000F000F000F000F000F000F000F61
:1037F000000F000F000F000F000F000F000F000F51
:10380000000F000F000FF00FF00FF00FF00FF00F90
:10381000F00FF00FF00FF00FF00FF00FF00FF00FB0
:10382000F00FF00FF00FF00FF00FF00FF00FF00FA0
:10383000F00FF00FF00FF00FF00FF00FF00FF00F90
:10384000F00FF00FF00FF00FF00FF00FF00FF00F80
:10385000F00FF00FF00FF00FF00FF00FF00FF00F70
:10386000F00FF00FF00FF00FF00FF00FF00FF00F60
:10387000F00FF00FF00FF00FF00FF00FF00FF00F50
:10388000F00FF00FF00FF00FF00FF00FF00FF00F40
:10389000F00FF00FF00FF00FF00FF00FF00FF00F30
:1038A000F00FF00FF00FF00FF00FF00FF00FF00F20
:1038B000F00FF00FF00FF00FF00FF00FF00FF00F10
:1038C000F00FF00FF00FF00FF00FF00FF00FF00F00
:1038D000F00FF00F000F000F000F000F000F000F90
:1038E000000F000F000F000F000F000F000F000F60
:1038F000000F000F000F000F000F000F000F000F50
:10390000000F000F000F000F000F000F000F000F3F
:10391000000FF00FF00FF00FF00FF00FF00FF00F9F
:10392000F00FF00FF00FF00FF00FF00FF00FF00F9F
:10393000F00FF00FF00FF00FF00FF00FF00FF00F8F
:10394000F00FF00FF00FF00FF00FF00FF00FF00F7F
:10395000F00FF00FF00FF00FF00FF00FF00FF00F6F
:10396000F00FF00FF00FF00FF00FF00FF00FF00F5F
:10397000F00FF00FF00FF00FF00FF00FF00FF00F4F
:10398000F00FF00FF00FF00FF00FF00FF00FF00F3F
:10399000F00FF00FF00FF00FF00FF00FF00FF00F2F
:1039A000F00FF00FF00FF00FF00FF00FF00FF00F1F
:1039B000F00FF00FF00FF00FF00FF00FF00FF00F0F
:1039C000F00FF00FF00FF00FF00FF00FF00FF00FFF
:1039D000F00FF00FF00FF00FF00FF00F000F000FCF
:1039E000000F000F000F000F000F000F000F000F5F
:1039F000000F000F000F000F000F000F000F000F4F
:103A0000000F000F000F000F000F000F000F000F3E
:103A1000000F000F000F000F000FF00FF00FF00F5E
:103A2000F00FF00FF00FF00FF00FF00FF00FF00F9E
:103A3000F00FF00FF00FF00FF00FF00FF00FF00F8E
:103A4000F00FF00FF00FF00FF00FF00FF00FF00F7E
:103A5000F00FF00FF00FF00FF00FF00FF00FF00F6E
:103A6000F00FF00FF00FF00FF00FF00FF00FF00F5E
:103A7000F00FF00FF00FF00FF00FF00FF00FF00F4E
:103A8000F00FF00FF00FF00FF00FF00FF00FF00F3E
:103A9000F00FF00FF00FF00FF00FF00FF00FF00F2E
:103AA000F00FF00FF00FF00FF00FF00FF00FF00F1E
:103AB000F00FF00FF00FF00FF00FF00FF00FF00F0E
:103AC000F00FF00FF00FF00FF00FF00FF00FF00FFE
:103AD000F00FF00FF00FF00FF00FF00FF00F000FDE
:103AE000F00FF00F000F000F000F000F000F000F7E
:103AF000000F000F000F000F000F000F000F000F4E
:103B0000000F000F000F000F000F000F000F000F3D
:103B1000000F000F000F000F000F000F000F000F2D
:103B2000000FF00FF00FF00FF00FF00FF00FF00F8D
:103B3000F00FF00FF00FF00FF00FF00FF00FF00F8D
:103B4000F00FF00FF00FF00FF00FF00FF00FF00F7D
:103B5000F00FF00FF00FF00FF00FF00FF00FF00F6D
:103B6000F00FF00FF00FF00FF00FF00FF00FF00F5D
:103B7000F00FF00FF00FF00FF00FF00FF00FF00F4D
:103B8000F00FF00FF00FF00FF00FF00FF00FF00F3D
:103B9000F00FF00FF00FF00FF00FF00FF00FF00F2D
:103BA000F00FF00FF00FF00FF00FF00FF00FF00F1D
:103BB000F00FF00FF00FF00FF00FF00FF00FF00F0D
:103BC000F00FF00FF00FF00FF00FF00FF00FF00FFD
:103BD000F00FF00FF00FF00FF00FF00FF00FF00FED
:103BE000F00FF00F000F000FF00FF00F000F000F9D
:103BF000000F000F000F000F000F000F000F000F4D
:103C0000000F000F000F000F000F000F000F000F3C
:103C1000000F000F000F000F000F000F000F000F2C
:103C2000000F000F000F000F000FF00FF00F000F3C
:103C3000F00FF00FF00FF00FF00FF00FF00FF00F8C
:103C4000F00FF00FF00FF00FF00FF00FF00FF00F7C
:103C5000F00FF00FF00FF00FF00FF00FF00FF00F6C
:103C6000F00FF00FF00FF00FF00FF00FF00FF00F5C
:103C7000F00FF00FF00FF00FF00FF00FF00FF00F4C
:103C8000F00FF00FF00FF00FF00FF00FF00FF00F3C
:103C9000F00FF00FF00FF00FF00FF00FF00FF00F2C
:103CA000F00FF00FF00FF00FF00FF00FF00FF00F1C
:103CB000F00FF00FF00FF00FF00FF00FF00FF00F0C
:103CC000F00FF00FF00FF00FF00FF00FF00FF00FFC
:103CD000F00FF00FF00FF00FF00FF00FF00FF00FEC
:103CE000F00FF00FF00FF00FF00FF00F000F000FBC
:103CF000F00FF00F000F000F000F000F000F000F6C
:103D0000000F000F000F000F000F000F000F000F3B
:103D1000000F000F000F000F000F000F000F000F2B
:103D2000000F000F000F000F000F000F000F000F1B
:103D3000000FF00FF00F000FF00FF00FF00FF00F6B
:103D4000F00FF00FF00FF00FF00FF00FF00FF00F7B
:103D5000F00FF00FF00FF00FF00FF00FF00FF00F6B
:103D6000F00FF00FF00FF00FF00FF00FF00FF00F5B
:103D7000F00FF00FF00FF00FF00FF00FF00FF00F4B
:103D8000F00FF00FF00FF00FF00FF00FF00FF00F3B
:103D9000F00FF00FF00FF00FF00FF00FF00FF00F2B
:103DA000F00FF00FF00FF00FF00FF00FF00FF00F1B
:103DB000F00FF00FF00FF00FF00FF00FF00FF00F0B
:103DC000F00FF00FF00FF00FF00FF00FF00FF00FFB
:103DD000F00FF00FF00FF00FF00FF00FF00FF00FEB
:103DE000F00FF00FF00FF00FF00FF00FF00FF00FDB
:103DF000F00F000F000F000FF00FF00F000F000F7B
:103E0000000F000F000F000F000F000F000F000F3A
:103E1000000F000F000F000F000F000F000F000F2A
:103E2000000F000F000F000F000F000F000F000F1A
:103E3000000F000F000F000F000FF00FF00F000F2A
:103E4000000FF00FF00FF00FF00FF00FF00FF00F6A
:103E5000F00FF00FF00FF00FF00FF00FF00FF00F6A
:103E6000F00FF00FF00FF00FF00FF00FF00FF00F5A
:103E7000F00FF00FF00FF00FF00FF00FF00FF00F4A
:103E8000F00FF00FF00FF00FF00FF00FF00FF00F3A
:103E9000F00FF00FF00FF00FF00FF00FF00FF00F2A
:103EA000F00FF00FF00FF00FF00FF00FF00FF00F1A
:103EB000F00FF00FF00FF00FF00FF00FF00FF00F0A
:103EC000F00FF00FF00FF00FF00FF00FF00FF00FFA
:103ED000F00FF00FF00FF00FF00FF00FF00FF00FEA
:103EE000F00FF00FF00FF00FF00FF00FF00FF00FDA
:103EF000F00FF00FF00FF00F000F000F000F000F8A
:103F0000F00FF00F000F000F000F000F000F000F59
:103F1000000F000F000F000F000F000F000F000F29
:103F2000000F000F000F000F000F000F000F000F19
:103F3000000F000F000F000F000F000F000F000F09
:103F4000000FF00FF00F000F000F000FF00FF00F39
:103F5000F00FF00FF00FF00FF00FF00FF00FF00F69
:103F600000000000000000000000F00FF00FF00F54
:103F7000F00FF00FF00FF00FF00FF00FF00FF00F49
:103F8000F00F000000000000000000000000000032
:103F9000F00FF00FF00FF00FF00FF00FF00FF00F29
:103FA000F00FF00FF00FF00FF00F00000000000016
:103FB0000000000000000000000000000000000001
:103FC000000000000000000000000000F00FF00FF3
:103FD000F00FF00FF00FF00FF00FF00FF00FF00FE9
:103FE000F00FF00FF00FF00FF00FF00FF00FF00FD9
:103FF000F00FF00FF00FF00FF00FF00FF00FF00FC9
:10400000000F000F000F000FF00FF00F000F000F58
:10401000000F000F000F000F000F000F000F000F28
:10402000000F000F000F000F000F000F000F000F18
:10403000000F000F000F000F000F000F000F000F08
:10404000000F000F000F000F000FF00FF00F000F18
:10405000000F000FF00FF00FF00FF00FF00FF00F48
:10406000F00FF00FF00FF00F000000000000000054
:104070000000F00FF00FF00FF00FF00FF00FF00F47
:10408000F00FF00FF00FF00FF00F00000000000035
:104090000000000000000000F00FF00FF00FF00F24
:1040A000F00FF00FF00FF00FF00FF00FF00FF00F18
:1040B000F00F000000000000000000000000000001
:1040C00000000000000000000000000000000000F0
:1040D0000000000000000000F00FF00FF00FF00FE4
:1040E000F00FF00FF00FF00FF00FF00FF00FF00FD8
:1040F000F00FF00FF00FF00FF00FF00FF00FF00FC8
:10410000F00FF00FF00F000F000F000F000F000F67
:10411000F00FF00FF00FF00FF00FF00FF00FF00FA7
:10412000F00FF00FF00FF00FF00FF00FF00FF00F97
:10413000F00FF00FF00FF00FF00FF00FF00FF00F87
:10414000F00FF00FF00FF00FF00FF00FF00FF00F77
:10415000F00FF00FF00F000F000F000F000FF00F27
:10416000F00FF00FF00FF00FF00FF00FF00FF00F57
:1041700000000000000000000000F00FF00FF00F42
:10418000F00FF00FF00FF00FF00FF00FF00FF00F37
:10419000000000000000000000000000000000001F
:1041A0000000F00FF00FF00FF00FF00FF00FF00F16
:1041B000F00FF00FF00FF00FF00F00000000000004
:1041C00000000000000000000000000000000000EF
:1041D00000000000000000000000000000000000DF
:1041E0000000F00FF00FF00FF00FF00FF00FF00FD6
:1041F000F00FF00FF00FF00FF00FF00FF00FF00FC7
:10420000F00FF00FF00FF00FF00FF00FF00F000FA6
:10421000000F000F000F000FF00FF00FF00FF00F66
:10422000F00FF00FF00FF00FF00FF00FF00FF00F96
:10423000F00FF00FF00FF00FF00FF00FF00FF00F86
:10424000F00FF00FF00FF00FF00FF00FF00FF00F76
:10425000F00FF00FF00FF00FF00FF00FF00F000F56
:10426000000F000F000FF00FF00FF00FF00FF00F26
:10427000F00FF00FF00FF00F000000000000000042
:104280000000F00FF00FF00FF00FF00FF00FF00F35
:10429000F00FF00FF00FF00F000000000000000022
:1042A00000000000000000000000F00FF00FF00F11
:1042B000F00FF00FF00FF00FF00FF00FF00FF00F06
:1042C000F00F0000000000000000000000000000EF
:1042D00000000000000000000000000000000000DE
:1042E000000000000000000000000000F00FF00FD0
:1042F000F00FF00FF00FF00FF00FF00FF00FF00FC6
:10430000F00FF00FF00FF00FF00FF00FF00FF00FB5
:10431000F00FF00F000F000F000F000F000F000F45
:10432000F00FF00F000F000F000F000F000F000F35
:10433000000F000F000F000F000F000F000F000F05
:10434000000F000F000F000F000F000F000F000FF5
:10435000000F000F000F000F000F000F000F000FE5
:10436000000FF00FF00F000F000F000F000F000FF5
:10437000F00FF00FF00FF00FF00FF00FF00FF00F45
:1043800000000000000000000000F00FF00FF00F30
:10439000F00FF00FF00FF00FF00FF00FF00FF00F25
:1043A0000000000000000000F00F0000000000000E
:1043B0000000F00FF00FF00FF00FF00FF00FF00F04
:1043C000F00FF00FF00FF00FF00F000000000000F2
:1043D00000000000F00FF00FF00FF00FF00FF00FE3
:1043E000F00FF00FF00FF00F0000000000000000D1
:1043F00000000000F00FF00FF00FF00FF00FF00FC3
:10440000F00FF00FF00FF00FF00FF00FF00FF00FB4
:10441000F00FF00FF00FF00FF00FF00F000F000F84
:10442000000F000F000F000FF00FF00F000F000F34
:10443000000F000F000F000F000F000F000F000F04
:10444000000F000F000F000F000F000F000F000FF4
:10445000000F000F000F000F000F000F000F000FE4
:10446000000F000F000F000F000FF00FF00F000FF4
:10447000000F000F000F000FF00FF00FF00FF00F04
:10448000F00FF00FF00FF00F000000000000000030
:104490000000F00FF00FF00FF00FF00FF00FF00F23
:1044A000F00FF00FF00F000000000000000000000F
:1044B000F00F00000000000000000000F00FF00FFF
:1044C000F00FF00FF00FF00FF00FF00FF00FF00FF4
:1044D000F00F00000000000000000000F00FF00FDF
:1044E000F00FF00FF00FF00FF00FF00FF00FF00FD4
:1044F000F00F000000000000000000000000F00FBE
:10450000F00FF00FF00FF00FF00FF00FF00FF00FB3
:10451000F00FF00FF00FF00FF00FF00FF00FF00FA3
:10452000F00FF00F000F000F000F000F000F000F33
:10453000F00FF00F000F000F000F000F000F000F23
:10454000000F000F000F000F000F000F000F000FF3
:10455000000F000F000F000F000F000F000F000FE3
:10456000000F000F000F000F000F000F000F000FD3
:10457000000FF00FF00F000F000F000F000F000FE3
:10458000F00FF00FF00FF00FF00FF00FF00FF00F33
:1045900000000000000000000000F00FF00FF00F1E
:1045A000F00FF00FF00FF00FF00FF00FF00F000012
:1045B0000000000000000000F00F000000000000FC
:1045C00000000000F00FF00FF00FF00FF00FF00FF1
:1045D000F00FF00FF00FF00FF00F000000000000E0
:1045E00000000000F00FF00FF00FF00FF00FF00FD1
:1045F000F00FF00FF00FF00FF00FF00F00000000C1
:10460000000000000000F00FF00FF00FF00FF00FAF
:10461000F00FF00FF00FF00FF00FF00FF00FF00FA2
:10462000F00FF00FF00FF00FF00FF00F000F000F72
:10463000000F000F000F000FF00FF00F000F000F22
:10464000000F000F000F000F000F000F000F000FF2
:10465000000F000F000F000F000F000F000F000FE2
:10466000000F000F000F000F000F000F000F000FD2
:10467000000F000F000F000F000FF00FF00F000FE2
:10468000000F000F000F000FF00FF00FF00FF00FF2
:10469000F00FF00FF00FF00F00000000000000001E
:1046A0000000F00FF00FF00FF00FF00FF00FF00F11
:1046B000F00FF00F00000000000000000000F00FFD
:1046C000F00FF00F00000000000000000000F00FED
:1046D000F00FF00FF00FF00FF00FF00FF00FF00FE2
:1046E000F00F00000000000000000000F00FF00FCD
:1046F000F00FF00FF00FF00FF00FF00FF00FF00FC2
:10470000F00FF00F00000000000000000000F00FAC
:10471000F00FF00FF00FF00FF00FF00FF00FF00FA1
:10472000F00FF00FF00FF00FF00FF00FF00FF00F91
:10473000F00F000F000F000F000F000F000F000F11
:10474000F00FF00F000F000F000F000F000F000F11
:10475000000F000F000F000F000F000F000F000FE1
:10476000000F000F000F000F000F000F000F000FD1
:10477000000F000F000F000F000F000F000F000FC1
:10478000000FF00FF00F000F000F000F000F000FD1
:10479000000FF00FF00FF00FF00FF00FF00FF00F11
:1047A00000000000000000000000F00FF00FF00F0C
:1047B000F00FF00FF00FF00FF00FF00F00000000FF
:1047C000000000000000F00FF00FF00F00000000EC
:1047D000000000000000F00FF00FF00FF00FF00FDE
:1047E000F00FF00FF00FF00FF00F000000000000CE
:1047F00000000000F00FF00FF00FF00FF00FF00FBF
:10480000F00FF00FF00FF00FF00FF00F00000000AE
:10481000000000000000F00FF00FF00FF00FF00F9D
:10482000F00FF00FF00FF00FF00FF00FF00FF00F90
:10483000F00FF00FF00FF00FF00F000F000F000F50
:10484000000F000F000F000FF00FF00F000F000F10
:10485000000F000F000F000F000F000F000F000FE0
:10486000000F000F000F000F000F000F000F000FD0
:10487000000F000F000F000F000F000F000F000FC0
:10488000000F000F000F000F000FF00FF00F000FD0
:10489000000F000F000F000F000FF00FF00FF00FD0
:1048A000F00FF00FF00FF00F00000000000000000C
:1048B0000000F00FF00FF00FF00FF00FF00FF00FFF
:1048C000F00FF00F00000000000000000000F00FEB
:1048D000F00FF00F00000000000000000000F00FDB
:1048E000F00FF00FF00FF00FF00FF00FF00FF00FD0
:1048F000F00F00000000000000000000F00FF00FBB
:10490000F00FF00FF00FF00FF00FF00FF00FF00FAF
:10491000F00FF00F00000000000000000000F00F9A
:10492000F00FF00FF00FF00FF00FF00FF00FF00F8F
:10493000F00FF00FF00FF00FF00FF00FF00FF00F7F
:10494000F00F000F000F000F000F000F000F000FFF
:10495000F00FF00FF00FF00FF00FF00FF00FF00F5F
:10496000F00FF00FF00FF00FF00FF00FF00FF00F4F
:10497000F00FF00FF00FF00FF00FF00FF00FF00F3F
:10498000F00FF00FF00FF00FF00FF00FF00FF00F2F
:10499000F00FF00FF00F000F000F000F000F000FCF
:1049A000000FF00FF00FF00FF00FF00FF00FF00FFF
:1049B00000000000000000000000F00FF00FF00FFA
:1049C000F00FF00FF00FF00FF00F000000000000EC
:1049D00000000000F00FF00FF00FF00FF00F0000DC
:1049E0000000000000000000F00FF00FF00FF00FCB
:1049F000F00FF00FF00FF00FF00F000000000000BC
:104A000000000000F00FF00FF00FF00FF00FF00FAC
:104A1000F00FF00FF00FF00FF00F0000000000009B
:104A2000000000000000F00FF00FF00FF00FF00F8B
:104A3000F00FF00FF00FF00FF00FF00FF00FF00F7E
:104A4000F00FF00FF00FF00FF00F000F000F000F3E
:104A5000000F000F000F000FF00FF00FF00FF00F1E
:104A6000F00FF00FF00FF00FF00FF00FF00FF00F4E
:104A7000F00FF00FF00FF00FF00FF00FF00FF00F3E
:104A8000F00FF00FF00FF00FF00FF00FF00FF00F2E
:104A9000F00FF00FF00FF00FF00FF00FF00F000F0E
:104AA000000F000F000F000F000FF00FF00FF00FBE
:104AB000F00FF00FF00FF00F0000000000000000FA
:104AC0000000F00FF00FF00FF00FF00FF00FF00FED
:104AD000F00F00000000000000000000F00FF00FD9
:104AE000F00FF00FF00F00000000000000000000C9
:104AF000F00FF00FF00FF00FF00FF00FF00FF00FBE
:104B0000F00F00000000000000000000F00FF00FA8
:104B1000F00FF00FF00FF00FF00FF00FF00FF00F9D
:104B2000000000000000000000000000F00FF00F87
:104B3000F00FF00FF00FF00FF00FF00FF00FF00F7D
:104B4000F00FF00FF00FF00FF00FF00FF00FF00F6D
:104B5000F00F000F000F000F000F000F000F000FED
:104B6000F00FF00F000F000F000F000F000F000FED
:104B7000000F000F000F000F000F000F000F000FBD
:104B8000000F000F000F000F000F000F000F000FAD
:104B9000000F000F000F000F000F000F000F000F9D
:104BA000000FF00FF00F000F000F000F000F000FAD
:104BB000000FF00FF00FF00FF00FF00FF00FF00FED
:104BC00000000000000000000000F00FF00FF00FE8
:104BD000F00FF00FF00FF00FF00F000000000000DA
:104BE0000000F00FF00FF00FF00FF00FF00FF00FCC
:104BF00000000000000000000000F00FF00FF00FB8
:104C0000F00FF00FF00FF00FF00F000000000000A9
:104C10000000000000000000000000000000000094
:104C20000000000000000000000000000000000084
:104C300000000000F00FF00FF00FF00FF00FF00F7A
:104C4000F00FF00FF00FF00FF00FF00FF00FF00F6C
:104C5000F00FF00FF00FF00FF00F000F000F000F2C
:104C6000000F000F000F000FF00FF00F000F000FEC
:104C7000000F000F000F000F000F000F000F000FBC
:104C8000000F000F000F000F000F000F000F000FAC
:104C9000000F000F000F000F000F000F000F000F9C
:104CA000000F000F000F000F000FF00FF00F000FAC
:104CB000000F000F000F000F000FF00FF00FF00FAC
:104CC000F00FF00FF00FF00F0000000000000000E8
:104CD0000000F00FF00FF00FF00FF00FF00FF00FDB
:104CE00000000000000000000000F00FF00FF00FC7
:104CF000F00FF00FF00FF00F0000000000000000B8
:104D00000000F00FF00FF00FF00FF00FF00FF00FAA
:104D1000F00F000000000000000000000000000094
:104D20000000000000000000000000000000000083
:104D300000000000000000000000F00FF00FF00F76
:104D4000F00FF00FF00FF00FF00FF00FF00FF00F6B
:104D5000F00FF00FF00FF00FF00FF00FF00FF00F5B
:104D6000F00F000F000F000F000F000F000F000FDB
:104D7000F00FF00F000F000F000F000F000F000FDB
:104D8000000F000F000F000F000F000F000F000FAB
:104D9000000F000F000F000F000F000F000F000F9B
:104DA000000F000F000F000F000F000F000F000F8B
:104DB000000FF00FF00F000F000F000F000F000F9B
:104DC000000FF00FF00FF00FF00FF00FF00FF00FDB
:104DD00000000000000000000000F00FF00FF00FD6
:104DE000F00FF00FF00FF00F0000000000000000C7
:104DF0000000F00FF00FF00FF00FF00FF00FF00FBA
:104E000000000000000000000000F00FF00FF00FA5
:104E1000F00FF00FF00FF00FF00F00000000000097
:104E20000000000000000000000000000000000082
:104E30000000000000000000000000000000F00F73
:104E4000F00FF00FF00FF00FF00FF00FF00FF00F6A
:104E5000F00FF00FF00FF00FF00FF00FF00FF00F5A
:104E6000F00FF00FF00FF00FF00F000F000F000F1A
:104E7000000F000F000F000FF00FF00F000F000FDA
:104E8000000F000F000F000F000F000F000F000FAA
:104E9000000F000F000F000F000F000F000F000F9A
:104EA000000F000F000F000F000F000F000F000F8A
:104EB000000F000F000F000F000FF00FF00F000F9A
:104EC000000F000F000F000F000FF00FF00FF00F9A
:104ED000F00FF00FF00FF00F0000000000000000D6
:104EE0000000F00FF00FF00FF00FF00FF00F0000C8
:104EF0000000000000000000F00FF00FF00FF00FB6
:104F0000F00FF00FF00FF00FF00F000000000000A6
:104F100000000000F00FF00FF00FF00FF00FF00F97
:104F2000F00F000000000000000000000000000082
:104F30000000000000000000000000000000000071
:104F4000F00FF00FF00FF00FF00FF00FF00FF00F69
:104F5000F00FF00FF00FF00FF00FF00FF00FF00F59
:104F6000F00FF00FF00FF00FF00FF00FF00FF00F49
:104F7000F00F000F000F000F000F000F000F000FC9
:104F8000F00FF00F000F000F000F000F000F000FC9
:104F9000000F000F000F000F000F000F000F000F99
:104FA000000F000F000F000F000F000F000F000F89
:104FB000000F000F000F000F000F000F000F000F79
:104FC000000FF00FF00F000F000F000F000F000F89
:104FD000000FF00FF00FF00FF00FF00FF00FF00FC9
:104FE00000000000000000000000F00FF00FF00FC4
:104FF000F00FF00FF00F00000000000000000000B4
:10500000F00FF00FF00FF00FF00FF00FF00FF00FA8
:10501000F00F00000000000000000000F00FF00F93
:10502000F00FF00FF00FF00FF00F00000000000085
:1050300000000000F00FF00FF00FF00FF00F000075
:10504000000000000000000000000000F00FF00F62
:10505000F00FF00FF00FF00FF00FF00FF00FF00F58
:10506000F00FF00FF00FF00FF00FF00FF00FF00F48
:10507000F00FF00FF00FF00FF00F000F000F000F08
:10508000000F000F000F000FF00FF00FF00FF00FE8
:10509000F00FF00FF00FF00FF00FF00FF00FF00F18
:1050A000F00FF00FF00FF00FF00FF00FF00FF00F08
:1050B000F00FF00FF00FF00FF00FF00FF00FF00FF8
:1050C000F00FF00FF00FF00FF00FF00FF00F000FD8
:1050D000000F000F000F000F000FF00FF00FF00F88
:1050E000F00FF00FF00FF00F0000000000000000C4
:1050F0000000F00FF00FF00FF00FF00FF00F0000B6
:10510000000000000000000000000000000000009F
:10511000000000000000000000000000000000008F
:1051200000000000F00FF00FF00FF00FF00FF00F85
:10513000F00F00000000000000000000F00FF00F72
:10514000F00FF00FF00FF00F000000000000000063
:10515000000000000000F00FF00FF00FF00FF00F54
:10516000F00FF00FF00FF00FF00FF00FF00FF00F47
:10517000F00FF00FF00FF00FF00FF00FF00FF00F37
:10518000F00FF00F000F000F000F000F000F000FC7
:10519000F00FF00FF00F000F000F000F000F000FC7
:1051A000000F000F000F000F000F000F000F000F87
:1051B000000F000F000F000F000F000F000F000F77
:1051C000000F000F000F000F000F000F000F000F67
:1051D000F00FF00F000F000F000F000F000F000F77
:1051E000F00FF00FF00FF00FF00FF00FF00FF00FC7
:1051F00000000000000000000000F00FF00FF00FB2
:10520000F00FF00F000000000000000000000000A0
:10521000000000000000000000000000000000008E
:105220000000000000000000000000000000F00F7F
:10523000F00FF00FF00FF00FF00F00000000000073
:1052400000000000F00FF00FF00FF00FF00FF00F64
:10525000F00F00000000000000000000000000004F
:10526000F00FF00FF00FF00FF00FF00FF00FF00F46
:10527000F00FF00FF00FF00FF00FF00FF00FF00F36
:10528000F00FF00FF00FF00FF00FF00F000F000F06
:10529000000F000F000F000F000FF00FF00FF00FC6
:1052A000000F000F000F000F000F000F000F000F86
:1052B000000F000F000F000F000F000F000F000F76
:1052C000000F000F000F000F000F000F000F000F66
:1052D000000F000F000FF00FF00F000F000F000F76
:1052E000000F000F000F000FF00FF00FF00FF00F86
:1052F000F00FF00FF00FF00F0000000000000000B2
:105300000000F00FF00FF00FF00FF00F00000000A2
:10531000000000000000000000000000000000008D
:10532000000000000000000000000000000000007D
:10533000000000000000F00FF00FF00FF00FF00F72
:10534000F00F00000000000000000000F00FF00F60
:10535000F00FF00FF00FF00FF00FF00F0000000053
:105360000000000000000000F00FF00FF00FF00F41
:10537000F00FF00FF00FF00FF00FF00FF00FF00F35
:10538000F00FF00FF00FF00FF00FF00FF00FF00F25
:10539000F00FF00F000F000F000F000F000F000FB5
:1053A000000F000FF00FF00F000F000F000F000FA5
:1053B000000F000F000F000F000F000F000F000F75
:1053C000000F000F000F000F000F000F000F000F65
:1053D000000F000F000F000F000F000F000FF00F65
:1053E000F00F000F000F000F000F000F000F000F55
:1053F000F00FF00FF00FF00FF00FF00FF00FF00FB5
:1054000000000000000000000000F00FF00FF00F9F
:10541000F00F00000000000000000000000000008D
:10542000000000000000000000000000000000007C
:10543000000000000000000000000000000000006C
:10544000F00FF00FF00FF00FF00F00000000000061
:1054500000000000F00FF00FF00FF00FF00FF00F52
:10546000F00FF00FF00F000000000000000000003F
:105470000000F00FF00FF00FF00FF00FF00FF00F33
:10548000F00FF00FF00FF00FF00FF00FF00FF00F24
:10549000F00FF00FF00FF00FF00FF00F000F000FF4
:1054A000000F000F000F000F000F000FF00FF00FA4
:1054B000F00FF00FF00FF00FF00FF00FF00FF00FF4
:1054C000F00FF00FF00FF00FF00FF00FF00FF00FE4
:1054D000F00FF00FF00FF00FF00FF00FF00FF00FD4
:1054E000F00FF00FF00FF00F000F000F000F000F84
:1054F000000F000F000F000FF00FF00FF00FF00F74
:10550000F00FF00FF00FF00F00000000000000009F
:105510000000F00FF00FF00FF00F0000000000008F
:1055200000000000F00FF00FF00FF00FF00FF00F81
:10553000F00FF00FF00FF00FF00FF00FF00F000072
:105540000000000000000000F00FF00FF00FF00F5F
:10555000F00F00000000000000000000F00FF00F4E
:10556000F00FF00FF00FF00FF00FF00FF00FF00F43
:1055700000000000000000000000F00FF00FF00F2E
:10558000F00FF00FF00FF00FF00FF00FF00FF00F23
:10559000F00FF00FF00FF00FF00FF00FF00FF00F13
:1055A000F00FF00FF00F000F000F000F000F000FB3
:1055B000000F000F000FF00FF00FF00F000F000FA3
:1055C000000F000F000F000F000F000F000F000F63
:1055D000000F000F000F000F000F000F000F000F53
:1055E000000F000F000F000F000FF00FF00FF00F73
:1055F000000F000F000F000F000F000F000FF00F43
:10560000F00FF00FF00FF00FF00FF00FF00FF00FA2
:1056100000000000000000000000F00FF00FF00F8D
:10562000F00F00000000000000000000F00FF00F7D
:10563000F00FF00FF00FF00FF00FF00FF00FF00F72
:10564000F00FF00FF00F000000000000000000005D
:10565000F00FF00FF00FF00FF00F0000000000004F
:1056600000000000F00FF00FF00FF00FF00FF00F40
:10567000F00FF00FF00FF00F00000000000000002E
:1056800000000000F00FF00FF00FF00FF00FF00F20
:10569000F00FF00FF00FF00FF00FF00FF00FF00F12
:1056A000F00FF00FF00FF00FF00FF00FF00F000FF2
:1056B000000F000F000F000F000F000F000F000F72
:1056C000F00FF00FF00F000F000F000F000F000F92
:1056D000000F000F000F000F000F000F000F000F52
:1056E000000F000F000F000F000F000F000F000F42
:1056F000F00FF00FF00F000F000F000F000F000F62
:10570000000F000F000FF00FF00FF00FF00FF00F71
:10571000F00FF00FF00FF00F00000000000000008D
:105720000000F00FF00FF00F00000000000000007C
:1057300000000000F00FF00FF00FF00FF00FF00F6F
:10574000F00FF00FF00FF00FF00FF00FF00F000060
:1057500000000000000000000000F00FF00FF00F4C
:10576000F00F00000000000000000000F00FF00F3C
:10577000F00FF00FF00FF00FF00FF00FF00FF00F31
:10578000F00F000000000000000000000000F00F1B
:10579000F00FF00FF00FF00FF00FF00FF00FF00F11
:1057A000F00FF00FF00FF00FF00FF00FF00FF00F01
:1057B000F00FF00FF00FF00F000F000F000F000FB1
:1057C000000F000F000F000F000FF00FF00FF00F91
:1057D000000F000F000F000F000F000F000F000F51
:1057E000000F000F000F000F000F000F000F000F41
:1057F000000F000F000FF00FF00FF00F000F000F61
:10580000000F000F000F000F000F000FF00FF00F40
:10581000F00FF00FF00FF00FF00FF00FF00FF00F90
:1058200000000000000000000000F00FF00FF00F7B
:1058300000000000000000000000F00FF00FF00F6B
:10584000F00FF00FF00FF00FF00FF00FF00FF00F60
:10585000F00FF00FF00FF00F00000000000000004C
:105860000000F00FF00FF00FF00F0000000000003C
:1058700000000000F00FF00FF00FF00FF00FF00F2E
:10588000F00FF00FF00FF00FF00FF00F000000001E
:10589000000000000000F00FF00FF00FF00FF00F0D
:1058A000F00FF00FF00FF00FF00FF00FF00FF00F00
:1058B000F00FF00FF00FF00FF00FF00FF00FF00FF0
:1058C000000F000F000F000F000F000F000F000F60
:1058D000000F000FF00FF00FF00FF00FF00FF00FB0
:1058E000F00FF00FF00FF00FF00FF00FF00FF00FC0
:1058F000F00FF00FF00FF00FF00FF00FF00FF00FB0
:10590000F00F000F000F000F000F000F000F000F2F
:10591000000F000FF00FF00FF00FF00FF00FF00F6F
:10592000F00FF00FF00FF00F00000000000000007B
:105930000000F00FF00FF00F00000000000000006A
:105940000000F00FF00FF00FF00FF00FF00FF00F5E
:10595000F00FF00FF00FF00FF00FF00FF00FF00F4F
:1059600000000000000000000000F00FF00FF00F3A
:10597000F00F00000000000000000000F00FF00F2A
:10598000F00FF00FF00FF00FF00FF00FF00FF00F1F
:10599000F00FF00F00000000000000000000000009
:1059A000F00FF00FF00FF00FF00FF00FF00FF00FFF
:1059B000F00FF00FF00FF00FF00FF00FF00FF00FEF
:1059C000F00FF00FF00FF00FF00F000F000F000FAF
:1059D000000F000F000F000F000F000F000FF00F5F
:1059E000F00FF00FF00FF00FF00FF00FF00FF00FBF
:1059F000F00FF00FF00FF00FF00FF00FF00FF00FAF
:105A0000F00FF00FF00F000F000F000F000F000F4E
:105A1000000F000F000F000F000FF00FF00FF00F3E
:105A2000F00FF00FF00FF00FF00FF00FF00FF00F7E
:105A300000000000000000000000F00FF00F000068
:105A40000000000000000000F00FF00FF00FF00F5A
:105A5000F00FF00FF00FF00FF00FF00FF00FF00F4E
:105A6000F00FF00FF00FF00F00000000000000003A
:105A700000000000F00FF00FF00F00000000000029
:105A800000000000F00FF00FF00FF00FF00FF00F1C
:105A9000F00FF00FF00FF00FF00FF00FF00F00000D
:105AA00000000000000000000000F00FF00FF00FF9
:105AB000F00FF00FF00FF00FF00FF00FF00FF00FEE
:105AC000F00FF00FF00FF00FF00FF00FF00FF00FDE
:105AD000F00FF00F000F000F000F000F000F000F6E
:105AE000000F000F000F000F000FF00FF00FF00F6E
:105AF000F00FF00FF00FF00FF00FF00FF00FF00FAE
:105B0000F00FF00FF00FF00FF00FF00F000F000F7D
:105B1000000F000F000F000F000F000F000F000F0D
:105B2000F00FF00FF00FF00FF00FF00FF00FF00F7D
:105B3000F00FF00FF00FF00FF00FF00FF00FF00F6D
:105B4000F00FF00FF00FF00FF00FF00FF00FF00F5D
:105B5000F00FF00FF00FF00FF00FF00FF00FF00F4D
:105B6000F00FF00FF00FF00FF00FF00FF00FF00F3D
:105B7000F00FF00FF00FF00FF00FF00FF00FF00F2D
:105B8000F00FF00FF00FF00FF00FF00FF00FF00F1D
:105B9000F00FF00FF00FF00FF00FF00FF00FF00F0D
:105BA000F00FF00FF00FF00FF00FF00FF00FF00FFD
:105BB000F00FF00FF00FF00FF00FF00FF00FF00FED
:105BC000F00FF00FF00FF00FF00FF00FF00FF00FDD
:105BD000F00FF00FF00FF00FF00FF00F000F000FAD
:105BE000000F000F000F000F000F000F000F000F3D
:105BF000000F000F000FF00FF00FF00FF00FF00F7D
:105C0000F00FF00FF00FF00FF00FF00FF00FF00F9C
:105C1000000F000F000F000F000F000F000F000F0C
:105C2000000F000F000F000FF00FF00FF00FF00F3C
:105C3000F00FF00FF00FF00FF00FF00FF00FF00F6C
:105C4000F00FF00FF00FF00FF00FF00FF00FF00F5C
:105C5000F00FF00FF00FF00FF00FF00FF00FF00F4C
:105C6000F00FF00FF00FF00FF00FF00FF00FF00F3C
:105C7000F00FF00FF00FF00FF00FF00FF00FF00F2C
:105C8000F00FF00FF00FF00FF00FF00FF00FF00F1C
:105C9000F00FF00FF00FF00FF00FF00FF00FF00F0C
:105CA000F00FF00FF00FF00FF00FF00FF00FF00FFC
:105CB000F00FF00FF00FF00FF00FF00FF00FF00FEC
:105CC000F00FF00FF00FF00FF00FF00FF00FF00FDC
:105CD000F00FF00FF00FF00FF00FF00FF00FF00FCC
:105CE000F00FF00FF00F000F000F000F000F000F6C
:105CF000000F000F000F000F000F000F000F000F2C
:105D0000000F000F000FF00FF00FF00FF00FF00F6B
:105D1000000F000F000F000F000F000F000F000F0B
:105D2000000F000F000F000F000F000F000FF00F0B
:105D3000F00FF00FF00FF00FF00FF00FF00FF00F6B
:105D4000F00FF00FF00FF00FF00FF00FF00FF00F5B
:105D5000F00FF00FF00FF00FF00FF00FF00FF00F4B
:105D6000F00FF00FF00FF00FF00FF00FF00FF00F3B
:105D7000F00FF00FF00FF00FF00FF00FF00FF00F2B
:105D8000F00FF00FF00FF00FF00FF00FF00FF00F1B
:105D9000F00FF00FF00FF00FF00FF00FF00FF00F0B
:105DA000F00FF00FF00FF00FF00FF00FF00FF00FFB
:105DB000F00FF00FF00FF00FF00FF00FF00FF00FEB
:105DC000F00FF00FF00FF00FF00FF00FF00FF00FDB
:105DD000F00FF00FF00FF00FF00FF00FF00FF00FCB
:105DE000F00FF00FF00FF00FF00FF00FF00FF00FBB
:105DF000000F000F000F000F000F000F000F000F2B
:105E0000000F000F000F000F000F000F000F000F1A
:105E1000000F000F000F000F000F000F000F000F0A
:105E2000000F000F000F000F000F000F000F000FFA
:105E3000000F000FF00FF00FF00FF00FF00FF00F4A
:105E4000F00FF00FF00FF00FF00FF00FF00FF00F5A
:105E5000F00FF00FF00FF00FF00FF00FF00FF00F4A
:105E6000F00FF00FF00FF00FF00FF00FF00FF00F3A
:105E7000F00FF00FF00FF00FF00FF00FF00FF00F2A
:105E8000F00FF00FF00FF00FF00FF00FF00FF00F1A
:105E9000F00FF00FF00FF00FF00FF00FF00FF00F0A
:105EA000F00FF00FF00FF00FF00FF00FF00FF00FFA
:105EB000F00FF00FF00FF00FF00FF00FF00FF00FEA
:105EC000F00FF00FF00FF00FF00FF00FF00FF00FDA
:105ED000F00FF00FF00FF00FF00FF00FF00FF00FCA
:105EE000F00FF00FF00FF00FF00FF00FF00FF00FBA
:105EF000F00FF00FF00FF00FF00F000F000F000F7A
:105F0000000F000F000F000F000F000F000F000F19
:105F1000000F000F000F000F000F000F000F000F09
:105F2000000F000F000F000F000F000F000F000FF9
:105F3000000F000F000F000F000FF00FF00FF00F19
:105F4000F00FF00FF00FF00FF00FF00FF00FF00F59
:105F5000F00FF00FF00FF00FF00FF00FF00FF00F49
:105F6000F00FF00FF00FF00FF00FF00FF00FF00F39
:105F7000F00FF00FF00FF00FF00FF00FF00FF00F29
:105F8000F00FF00FF00FF00FF00FF00FF00FF00F19
:105F9000F00FF00FF00FF00FF00FF00FF00FF00F09
:105FA000F00FF00FF00FF00FF00FF00FF00FF00FF9
:105FB000F00FF00FF00FF00FF00FF00FF00FF00FE9
:105FC000F00FF00FF00FF00FF00FF00FF00FF00FD9
:105FD000F00FF00FF00FF00FF00FF00FF00FF00FC9
:105FE000F00FF00FF00FF00FF00FF00FF00FF00FB9
:105FF000F00FF00FF00FF00FF00FF00FF00FF00FA9
:10600000F00FF00FF00F000F000F000F000F000F48
:10601000000F000F000F000F000F000F000F000F08
:10602000000F000F000F000F000F000F000F000FF8
:10603000000F000F000F000F000F000F000FF00FF8
:10604000F00FF00FF00FF00FF00FF00FF00FF00F58
:10605000F00FF00FF00FF00FF00FF00FF00FF00F48
:10606000F00FF00FF00FF00FF00FF00FF00FF00F38
:10607000F00FF00FF00FF00FF00FF00FF00FF00F28
:10608000F00FF00FF00FF00FF00FF00FF00FF00F18
:10609000F00FF00FF00FF00FF00FF00FF00FF00F08
:1060A000F00FF00FF00FF00FF00FF00FF00FF00FF8
:1060B000F00FF00FF00FF00FF00FF00FF00FF00FE8
:1060C000F00FF00FF00FF00FF00FF00FF00FF00FD8
:1060D000F00FF00FF00FF00FF00FF00FF00FF00FC8
:1060E000F00FF00FF00FF00FF00FF00FF00FF00FB8
:1060F000F00FF00FF00FF00FF00FF00FF00FF00FA8
:10610000F00FF00FF00FF00FF00FF00FF00FF00F97
:10611000000F000F000F000F000F000F000F000F07
:10612000000F000F000F000F000F000F000F000FF7
:10613000000F000F000F000F000F000F000F000FE7
:10614000000F000FF00FF00FF00FF00FF00FF00F37
:10615000F00FF00FF00FF00FF00FF00FF00FF00F47
:10616000F00FF00FF00FF00FF00FF00FF00FF00F37
:10617000F00FF00FF00FF00FF00FF00FF00FF00F27
:10618000F00FF00FF00FF00FF00FF00FF00FF00F17
:10619000F00FF00FF00FF00FF00FF00FF00FF00F07
:1061A000F00FF00FF00FF00FF00FF00FF00FF00FF7
:1061B000F00FF00FF00FF00FF00FF00FF00FF00FE7
:1061C000F00FF00FF00FF00FF00FF00FF00FF00FD7
:1061D000F00FF00FF00FF00FF00FF00FF00FF00FC7
:1061E000F00FF00FF00FF00FF00FF00FF00FF00FB7
:1061F000F00FF00FF00FF00FF00FF00FF00FF00FA7
:10620000F00FF00FF00FF00FF00FF00FF00FF00F96
:10621000F00FF00FF00FF00FF00FF00F000F000F66
:10622000000F000F000F000F000F000F000F000FF6
:10623000000F000F000F000F000F000F000F000FE6
:10624000000F000F000F000FF00FF00FF00FF00F16
:10625000F00FF00FF00FF00FF00FF00FF00FF00F46
:10626000F00FF00FF00FF00FF00FF00FF00FF00F36
:10627000F00FF00FF00FF00FF00FF00FF00FF00F26
:10628000F00FF00FF00FF00FF00FF00FF00FF00F16
:10629000F00FF00FF00FF00FF00FF00FF00FF00F06
:1062A000F00FF00FF00FF00FF00FF00FF00FF00FF6
:1062B000F00FF00FF00FF00FF00FF00FF00FF00FE6
:1062C000F00FF00FF00FF00FF00FF00FF00FF00FD6
:1062D000F00FF00FF00FF00FF00FF00FF00FF00FC6
:1062E000F00FF00FF00FF00FF00FF00FF00FF00FB6
:1062F000F00FF00FF00FF00FF00FF00FF00FF00FA6
:10630000F00FF00FF00FF00FF00FF00FF00FF00F95
:10631000F00FF00FF00FF00FF00FF00FF00FF00F85
:10632000F00FF00FF00F000F000F000F000F000F25
:10633000000F000F000F000F000F000F000F000FE5
:10634000000F000F000F000F000F000F000FF00FE5
:10635000F00FF00FF00FF00FF00FF00FF00FF00F45
:10636000F00FF00FF00FF00FF00FF00FF00FF00F35
:10637000F00FF00FF00FF00FF00FF00FF00FF00F25
:10638000F00FF00FF00FF00FF00FF00FF00FF00F15
:10639000F00FF00FF00FF00FF00FF00FF00FF00F05
:1063A000F00FF00FF00FF00FF00FF00FF00FF00FF5
:1063B000F00FF00FF00FF00FF00FF00FF00FF00FE5
:1063C000F00FF00FF00FF00FF00FF00FF00FF00FD5
:1063D000F00FF00FF00FF00FF00FF00FF00FF00FC5
:1063E000F00FF00FF00FF00FF00FF00FF00FF00FB5
:1063F000F00FF00FF00FF00FF00FF00FF00FF00FA5
:10640000F00FF00FF00FF00FF00FF00FF00FF00F94
:10641000F00FF00FF00FF00FF00FF00FF00FF00F84
:10642000F00FF00FF00FF00FF00FF00FF00FF00F74
:10643000F00FF00FF00FF00F000F000F000F000F24
:10644000000F000F000F000F000F000FF00FF00FF4
:10645000F00FF00FF00FF00FF00FF00FF00FF00F44
:10646000F00FF00FF00FF00FF00FF00FF00FF00F34
:10647000F00FF00FF00FF00FF00FF00FF00FF00F24
:10648000F00FF00FF00FF00FF00FF00FF00FF00F14
:10718000F00FF00FF00FF00FF00F00000000000004
:107190000000000000000000F00FF00FF00FF00FF3
:1071A000F00FF00FF00FF00FF00FF00FF00FF00FE7
:1071B000F00FF00FF00FF00FF00FF00FF00FF00FD7
:1071C000F00FF00FF00FF00FF00FF00FF00FF00FC7
:1071D000F00FF00FF00FF00FF00FF00FF00FF00FB7
:1071E000F00FF00FF00FF00FF00FF00FF00F0000A6
:1071F000F00FF00FF00FF00FF00FF00FF00FF00F97
:10720000F00FF00FF00FF00FF00FF00FF00FF00F86
:10721000F00FF00FF00FF00FF00FF00FF00FF00F76
:10722000F00FF00FF00FF00FF00FF00FF00FF00F66
:10723000F00FF00FF00FF00FF00FF00FF00FF00F56
:10724000F00FF00FF00FF00FF00FF00FF00FF00F46
:10725000F00FF00FF00FF00FF00FF00FF00FF00F36
:10726000F00FF00FF00FF00FF00FF00FF00FF00F26
:10727000F00FF00FF00FF00FF00FF00FF00FF00F16
:10728000F00FF00FF00FF00FF00FF00FF00F000005
:1072900000000000000000000000000000000000EE
:1072A00000000000F00FF00FF00FF00FF00FF00FE4
:1072B000F00FF00FF00FF00FF00FF00FF00FF00FD6
:1072C000F00FF00FF00FF00FF00FF00FF00FF00FC6
:1072D000F00FF00FF00FF00FF00FF00FF00FF00FB6
:1072E000F00FF00FF00FF00FF00FF00FF00FF00FA6
:1072F000F00F000000000000F00FF00FF00FF00F93
:10730000F00FF00FF00FF00FF00FF00FF00FF00F85
:10731000F00FF00FF00FF00FF00FF00FF00FF00F75
:10732000F00FF00FF00FF00FF00FF00FF00FF00F65
:10733000F00FF00FF00FF00FF00FF00FF00FF00F55
:10734000F00FF00FF00FF00FF00FF00FF00FF00F45
:10735000F00FF00FF00FF00FF00FF00FF00FF00F35
:10736000F00FF00FF00FF00FF00FF00FF00FF00F25
:10737000F00FF00FF00FF00FF00FF00FF00FF00F15
:10738000F00FF00FF00FF00FF00FF00FF00FF00F05
:10739000F00FF00F000000000000000000000000EF
:1073A0000000000000000000000000000000F00FDE
:1073B000F00FF00FF00FF00FF00FF00FF00FF00FD5
:1073C000F00FF00FF00FF00FF00FF00FF00FF00FC5
:1073D000F00FF00FF00FF00FF00FF00FF00FF00FB5
:1073E000F00FF00FF00FF00FF00FF00FF00FF00FA5
:1073F000F00FF00FF00FF00F000000000000000091
:10740000F00FF00FF00FF00FF00FF00FF00FF00F84
:10741000F00FF00FF00FF00FF00FF00FF00FF00F74
:10742000F00FF00FF00FF00FF00FF00FF00FF00F64
:10743000F00FF00FF00FF00FF00FF00FF00FF00F54
:10744000F00FF00FF00FF00FF00FF00FF00FF00F44
:10745000F00FF00FF00FF00FF00FF00FF00FF00F34
:10746000F00FF00FF00FF00FF00FF00FF00FF00F24
:10747000F00FF00FF00FF00FF00FF00FF00FF00F14
:10748000F00FF00FF00FF00FF00FF00FF00FF00F04
:10749000F00FF00FF00FF00FF00F000000000000F1
:1074A00000000000000000000000000000000000DC
:1074B000000000000000F00FF00FF00FF00FF00FD1
:1074C000F00FF00FF00FF00FF00FF00FF00FF00FC4
:1074D000F00FF00FF00FF00FF00FF00FF00FF00FB4
:1074E000F00FF00FF00FF00FF00FF00FF00FF00FA4
:1074F000F00FF00FF00FF00FF00FF00FF00FF00F94
:107500000000000000000000F00FF00FF00FF00F7F
:10751000F00FF00FF00FF00FF00FF00FF00FF00F73
:10752000F00FF00FF00FF00FF00FF00FF00FF00F63
:10753000F00FF00FF00FF00FF00FF00FF00FF00F53
:10754000F00FF00FF00FF00FF00FF00FF00FF00F43
:10755000F00FF00FF00FF00FF00FF00FF00FF00F33
:10756000F00FF00FF00FF00FF00FF00FF00FF00F23
:10757000F00FF00FF00FF00FF00FF00FF00FF00F13
:10758000F00FF00FF00FF00FF00FF00FF00FF00F03
:10759000F00FF00FF00FF00FF00FF00FF00FF00FF3
:1075A000F00F00000000000000000000F00FF00FDE
:1075B000F00FF00FF00F00000000000000000000CE
:1075C000F00FF00FF00FF00FF00FF00FF00FF00FC3
:1075D000F00FF00FF00FF00FF00FF00FF00FF00FB3
:1075E000F00FF00FF00FF00FF00FF00FF00FF00FA3
:1075F000F00FF00FF00FF00FF00FF00FF00FF00F93
:10760000F00FF00FF00FF00F00000000000000007E
:10761000F00FF00FF00FF00FF00FF00FF00FF00F72
:10762000F00FF00FF00FF00FF00FF00FF00FF00F62
:10763000F00FF00FF00FF00FF00FF00FF00FF00F52
:10764000F00FF00FF00FF00FF00FF00FF00FF00F42
:10765000F00FF00FF00FF00FF00FF00FF00FF00F32
:10766000F00FF00FF00FF00FF00FF00FF00FF00F22
:10767000F00FF00FF00FF00FF00FF00FF00FF00F12
:10768000F00FF00FF00FF00FF00FF00FF00FF00F02
:10769000F00FF00FF00FF00FF00FF00FF00FF00FF2
:1076A000F00FF00FF00FF00FF00F000000000000DF
:1076B0000000F00FF00FF00FF00FF00FF00FF00FD1
:1076C0000000000000000000F00FF00FF00F0000BD
:1076D000000000000000F00FF00FF00FF00FF00FAF
:1076E000F00FF00F0000000000000000F00FF00F9E
:1076F000F00FF00FF00F000000000000000000008D
:107700000000F00FF00FF00FF00FF00F000000007E
:107710000000000000000000000000000000F00F6A
:10772000F00FF00FF00FF00FF00F0000000000005E
:10773000000000000000F00FF00FF00FF00FF00F4E
:10774000F00FF00F0000000000000000F00FF00F3D
:1077500000000000000000000000F00FF00FF00F2C
:10776000F00F00000000000000000000F00FF00F1C
:10777000F00FF00FF00FF00FF00FF00FF00F000010
:1077800000000000000000000000F00FF00FF00FFC
:10779000F00FF00FF00FF00FF00FF00FF00FF00FF1
:1077A000F00FF00FF00FF00FF00FF00FF00FF00FE1
:1077B000F00F00000000000000000000F00FF00FCC
:1077C000F00FF00FF00FF00FF00FF00FF00FF00FC1
:1077D000F00FF00FF00F0000000000000000F00FAD
:1077E000F00FF00FF00FF00FF00FF00F000000009F
:1077F00000000000F00FF00FF00F0000000000008C
:107800000000000000000000000000000000F00F79
:10781000F00FF00F0000000000000000000000006A
:10782000000000000000F00FF00FF00FF00FF00F5D
:107830000000000000000000000000000000000048
:10784000F00FF00FF00FF00FF00FF00F000000003E
:1078500000000000F00F0000000000000000000029
:1078600000000000F00F0000000000000000000019
:10787000000000000000F00FF00FF00FF00FF00F0D
:10788000F00F0000000000000000000000000000F9
:10789000000000000000F00FF00FF00FF00FF00FED
:1078A000F00FF00FF00FF00FF00FF00FF00FF00FE0
:1078B000F00FF00FF00FF00FF00F000000000000CD
:1078C0000000000000000000F00FF00FF00FF00FBC
:1078D000F00FF00FF00FF00FF00FF00FF00FF00FB0
:1078E0000000000000000000F00FF00FF00FF00F9C
:1078F000F00F0000000000000000F00FF00FF00F8C
:10790000F00F000000000000000000000000000078
:107910000000000000000000F00FF00F0000000069
:107920000000000000000000000000000000F00F58
:10793000F00FF00FF00F000000000000000000004A
:1079400000000000000000000000F00FF00FF00F3A
:10795000F00FF00F00000000000000000000000029
:107960000000000000000000000000000000000017
:107970000000000000000000000000000000F00F08
:10798000F00FF00FF00FF00FF00F000000000000FC
:1079900000000000000000000000000000000000E7
:1079A000F00FF00FF00FF00FF00FF00FF00FF00FDF
:1079B000F00FF00FF00FF00FF00FF00FF00FF00FCF
:1079C000F00FF00F000000000000000000000000B9
:1079D0000000000000000000F00FF00FF00FF00FAB
:1079E000F00FF00FF00FF00F00000000000000009B
:1079F000F00FF00FF00FF00FF00F0000000000008C
:107A00000000F00FF00FF00F000000000000000079
:107A1000F00FF00FF00FF00F00000000000000006A
:107A20000000F00FF00FF00F000000000000000059
:107A3000F00FF00FF00FF00FF00FF00F000000004C
:107A400000000000F00FF00FF00FF00F000000003A
:107A500000000000F00FF00FF00FF00F000000002A
:107A6000000000000000F00FF00FF00F0000000019
:107A70000000000000000000F00FF00FF00F000009
:107A80000000000000000000F00FF00FF00FF00FFA
:107A90000000000000000000F00FF00FF00FF00FEA
:107AA00000000000000000000000F00FF00FF00FD9
:107AB000F00FF00FF00FF00FF00FF00FF00FF00FCE
:107AC000F00FF00FF00FF00FF00FF00FF00F0000BD
:107AD00000000000000000000000000000000000A6
:107AE00000000000F00FF00FF00FF00FF00FF00F9C
:107AF0000000000000000000F00FF00FF00FF00F8A
:107B0000F00F0000000000000000F00FF00FF00F79
:107B10000000000000000000F00FF00FF00FF00F69
:107B2000F00F00000000F00FF00FF00FF00FF00F5B
:107B30000000000000000000F00FF00FF00FF00F49
:107B4000F00FF00F000000000000F00FF00FF00F3A
:107B5000F00FF00FF00F000000000000F00FF00F2A
:107B6000F00FF00F00000000000000000000F00F18
:107B7000F00FF00FF00F0000000000000000000008
:107B8000F00FF00FF00FF00F0000000000000000F9
:107B9000F00FF00FF00FF00F0000000000000000E9
:107BA000F00FF00FF00FF00FF00F00000000F00FDB
:107BB000F00FF00FF00FF00FF00FF00FF00FF00FCD
:107BC000F00FF00FF00FF00FF00FF00FF00FF00FBD
:107BD000F00FF00FF00FF00F0000000000000000A9
:107BE0000000000000000000000000000000F00F96
:107BF000F00FF00FF00FF00FF00F0000000000008A
:107C0000F00FF00FF00FF00FF00F00000000000079
:107C1000F00FF00FF00FF00F000000000000000068
:107C20000000F00FF00FF00FF00FF00FF00FF00F5B
:107C3000F00FF00FF00FF00F000000000000000048
:107C4000F00FF00FF00FF00FF00F00000000000039
:107C50000000F00FF00FF00FF00FF00FF00F00002A
:107C6000000000000000F00FF00FF00F0000000017
:107C700000000000F00FF00FF00FF00FF00F000009
:107C8000000000000000F00FF00FF00FF00FF00FF9
:107C90000000000000000000F00FF00FF00FF00FE8
:107CA00000000000000000000000F00FF00FF00FD7
:107CB000F00FF00FF00FF00FF00FF00FF00FF00FCC
:107CC000F00FF00FF00FF00FF00FF00FF00FF00FBC
:107CD000F00FF00FF00FF00FF00FF00FF00FF00FAC
:107CE000F00FF00F00000000000000000000000096
:107CF0000000000000000000F00FF00FF00FF00F88
:107D0000F00F0000000000000000F00FF00FF00F77
:107D10000000000000000000F00FF00FF00FF00F67
:107D2000F00F000000000000000000000000000054
:107D3000F00FF00FF00FF00FF00FF00FF00FF00F4B
:107D40000000000000000000F00FF00FF00FF00F37
:107D5000F00F000000000000000000000000000024
:107D60000000000000000000000000000000F00F14
:107D7000F00FF00F0000000000000000F00FF00F07
:107D8000F00FF00FF00F0000000000000000F00FF7
:107D9000F00FF00FF00FF00F0000000000000000E7
:107DA000F00FF00FF00FF00FF00F000000000000D8
:107DB0000000000000000000F00FF00FF00FF00FC7
:107DC000F00FF00FF00FF00FF00FF00FF00FF00FBB
:107DD000F00FF00FF00FF00FF00FF00FF00FF00FAB
:107DE000F00FF00FF00FF00FF00FF00FF00FF00F9B
:107DF000F00FF00F00000000000000000000000085
:107E00000000F00FF00FF00FF00F00000000000076
:107E10000000F00FF00FF00F000000000000000065
:107E2000F00FF00FF00FF00FF00F00000000000057
:107E3000000000000000000000000000F00FF00F44
:107E4000F00FF00FF00FF00F000000000000000036
:107E5000F00FF00FF00FF00FF00F00000000000027
:107E60000000000000000000000000000000000012
:107E7000000000000000F00FF00FF00F0000000005
:107E800000000000F00FF00FF00FF00FF00F0000F7
:107E9000000000000000F00FF00FF00FF00FF00FE7
:107EA0000000000000000000F00FF00FF00FF00FD6
:107EB000F00F0000000000000000000000000000C3
:107EC00000000000F00FF00FF00FF00FF00FF00FB8
:107ED000F00FF00FF00FF00FF00FF00FF00FF00FAA
:107EE000F00FF00FF00FF00FF00FF00FF00FF00F9A
:107EF000F00FF00FF00FF00FF00FF00FF00FF00F8A
:107F000000000000000000000000F00FF00FF00F74
:107F1000F00FF00F000000000000F00FF00FF00F66
:107F2000000000000000F00FF00FF00FF00FF00F56
:107F3000F00FF00FF00F0000000000000000000044
:107F40000000000000000000F00FF00FF00FF00F35
:107F50000000000000000000F00FF00FF00FF00F25
:107F6000F00F000000000000000000000000000012
:107F70000000000000000000000000000000F00F02
:107F8000F00FF00F0000000000000000F00FF00FF5
:107F9000F00FF00FF00F0000000000000000F00FE5
:107FA000F00FF00FF00FF00F0000000000000000D5
:107FB000F00FF00FF00FF00FF00FF00FF00F0000C8
:107FC00000000000000000000000000000000000B1
:107FD000F00FF00FF00FF00FF00FF00FF00FF00FA9
:107FE000F00FF00FF00FF00FF00FF00FF00FF00F99
:107FF0000000000000000000F00FF00FF00FF00F85
:10800000F00FF00FF00FF00FF00F00000000000075
:108010000000F00FF00FF00FF00FF00F0000000065
:1080200000000000F00F0000000000000000F00F52
:10803000F00FF00FF00FF00FF00FF00FF00FF00F48
:10804000F00FF00F00000000000000000000000032
:10805000F00FF00FF00FF00F000000000000000024
:10806000F00FF00FF00FF00FF00F00000000000015
:108070000000F00FF00FF00FF00FF00FF00FF00F07
:10808000F00FF00FF00FF00FF00FF00F00000000F6
:1080900000000000F00FF00FF00FF00FF00F0000E5
:1080A000000000000000F00FF00FF00FF00FF00FD5
:1080B0000000000000000000F00FF00FF00FF00FC4
:1080C000F00FF00FF00FF00FF00FF00F00000000B6
:1080D0000000000000000000F00FF00FF00FF00FA4
:1080E000F00FF00FF00FF00FF00FF00FF00FF00F98
:1080F000F00FF00FF00FF00F000000000000000084
:108100000000F00FF00FF00FF00FF00FF00FF00F76
:10811000F00F0000000000000000F00FF00FF00F63
:10812000F00FF00FF00F000000000000F00F000053
:10813000000000000000F00FF00FF00FF00FF00F44
:10814000F00FF00FF00FF00FF00FF00FF00FF00F37
:1081500000000000000000000000F00FF00FF00F22
:108160000000000000000000F00FF00FF00FF00F13
:10817000F00F0000000000000000F00FF00FF00F03
:10818000F00FF00FF00FF00FF00FF00FF00FF00FF7
:10819000F00FF00F0000000000000000F00FF00FE3
:1081A000F00FF00FF00F0000000000000000F00FD3
:1081B000F00FF00FF00FF00F0000000000000000C3
:1081C000F00FF00FF00FF00FF00FF00FF00FF00FB7
:1081D000F00FF00FF00FF00F0000000000000000A3
:1081E0000000F00FF00FF00FF00FF00FF00FF00F96
:1081F000F00FF00FF00FF00FF00FF00FF00FF00F87
:10820000F00F00000000000000000000F00FF00F71
:10821000F00FF00FF00FF00F000000000000000062
:108220000000F00FF00FF00FF00FF00FF00F000054
:1082300000000000F00F000000000000F00FF00F41
:10824000F00FF00FF00FF00FF00F00000000F00F34
:10825000F00FF00FF00FF00FF00F00000000000023
:108260000000F00FF00FF00F000000000000000011
:10827000F00FF00FF00FF00FF00FF00F0000000004
:1082800000000000F00FF00FF00FF00FF00FF00FF4
:10829000F00FF00FF00FF00FF00FF00F00000000E4
:1082A00000000000F00FF00FF00FF00FF00F0000D3
:1082B000000000000000F00FF00FF00FF00FF00FC3
:1082C0000000000000000000F00FF00FF00FF00FB2
:1082D000F00F00000000F00FF00FF00FF00FF00FA4
:1082E000F00F0000000000000000F00FF00FF00F92
:1082F000F00FF00FF00FF00FF00FF00FF00FF00F86
:10830000F00FF00FF00FF00FF00F00000000000072
:10831000000000000000000000000000000000005D
:108320000000000000000000F00FF00FF00FF00F51
:10833000F00FF00FF00F0000000000000000000040
:1083400000000000F00FF00FF00FF00FF00F000032
:108350000000000000000000F00FF00FF00FF00F21
:10836000F00F0000000000000000F00FF00FF00F11
:108370000000000000000000F00FF00FF00FF00F01
:10838000F00FF00F00000000000000000000F00FF0
:10839000F00FF00FF00F00000000F00FF00FF00FE3
:1083A000F00FF00F0000000000000000F00FF00FD1
:1083B000F00FF00FF00F0000000000000000F00FC1
:1083C000F00FF00FF00FF00F0000000000000000B1
:1083D000F00FF00FF00F00000000000000000000A0
:1083E000F00FF00FF00FF00FF00F00000000000092
:1083F0000000F00FF00FF00FF00FF00FF00FF00F84
:10840000F00FF00FF00FF00FF00FF00FF00FF00F74
:10841000F00FF00F0000000000000000000000005E
:10842000000000000000000000000000000000004C
:10843000F00FF00FF00FF00FF00FF00FF00FF00F44
:1084400000000000000000000000F00FF00FF00F2F
:10845000F00FF00FF00FF00F000000000000000020
:10846000000000000000000000000000000000000C
:10847000F00FF00FF00FF00F000000000000000000
:10848000000000000000F00FF00FF00FF00F0000F0
:1084900000000000000000000000000000000000DC
:1084A000000000000000F00FF00FF00F00000000CF
:1084B00000000000F00FF00FF00FF00FF00F0000C1
:1084C000000000000000F00FF00FF00FF00FF00FB1
:1084D0000000000000000000F00FF00FF00FF00FA0
:1084E000000000000000000000000000000000008C
:1084F0000000000000000000F00FF00FF00FF00F80
:10850000F00FF00FF00FF00FF00FF00FF00FF00F73
:10851000F00FF00FF00FF00FF00FF00FF00F000062
:10852000000000000000000000000000000000004B
:10853000000000000000F00FF00FF00FF00FF00F40
:10854000F00FF00FF00FF00F00000000000000002F
:108550000000F00FF00FF00FF00FF00FF00FF00F22
:10856000F00F00000000000000000000000000000C
:108570000000000000000000F00FF00FF00FF00FFF
:10858000F00F000000000000000000000000F00FED
:10859000F00FF00FF00FF00F0000000000000000DF
:1085A000000000000000000000000000F00FF00FCD
:1085B000F00FF00F0000000000000000F00FF00FBF
:1085C000F00FF00FF00F0000000000000000F00FAF
:1085D000F00FF00FF00FF00F00000000000000009F
:1085E000F00FF00FF00FF00FF00F00000000000090
:1085F000000000000000000000000000000000007B
:10860000F00FF00FF00FF00FF00FF00FF00FF00F72
:10861000F00FF00FF00FF00FF00FF00FF00FF00F62
:10862000F00FF00FF00FF00FF00F0000000000004F
:108630000000000000000000F00FF00FF00FF00F3E
:10864000F00FF00FF00FF00FF00FF00FF00FF00F32
:1086500000000000000000000000F00FF00FF00F1D
:10866000F00FF00FF00FF00FF00FF00FF00F000011
:10867000000000000000000000000000F00FF00FFC
:10868000F00FF00FF00FF00FF00FF00F00000000F0
:10869000000000000000F00FF00FF00FF00FF00FDF
:1086A000F00F0000000000000000000000000000CB
:1086B000F00FF00FF00FF00FF00FF00F00000000C0
:1086C00000000000F00FF00FF00FF00FF00F0000AF
:1086D000000000000000F00FF00FF00FF00FF00F9F
:1086E0000000000000000000F00FF00FF00FF00F8E
:1086F000F00FF00FF00F000000000000000000007D
:1087000000000000F00FF00FF00FF00FF00FF00F6F
:10871000F00FF00FF00FF00FF00FF00FF00FF00F61
:10872000F00FF00FF00FF00FF00FF00FF00FF00F51
:10873000F00FF00FF00FF00FF00FF00FF00FF00F41
:10874000F00FF00FF00FF00FF00FF00FF00FF00F31
:10875000F00FF00FF00FF00F00000000000000001D
:10876000F00FF00FF00FF00FF00FF00FF00FF00F11
:10877000F00FF00FF00FF00FF00FF00FF00FF00F01
:10878000F00FF00FF00FF00FF00FF00FF00FF00FF1
:10879000F00FF00FF00FF00FF00FF00FF00FF00FE1
:1087A000F00FF00FF00FF00FF00FF00FF00FF00FD1
:1087B000F00FF00FF00FF00FF00FF00FF00FF00FC1
:1087C000F00FF00FF00FF00FF00FF00FF00FF00FB1
:1087D000F00FF00FF00FF00FF00FF00FF00FF00FA1
:1087E000F00FF00FF00FF00FF00FF00FF00FF00F91
:1087F000F00FF00FF00FF00FF00FF00FF00FF00F81
:10880000F00FF00FF00FF00FF00FF00FF00FF00F70
:10881000F00FF00FF00FF00FF00FF00FF00FF00F60
:10882000F00FF00FF00FF00FF00FF00FF00FF00F50
:10883000F00FF00FF00FF00FF00FF00FF00FF00F40
:10884000F00FF00FF00FF00FF00FF00FF00FF00F30
:10885000F00FF00FF00FF00FF00FF00FF00FF00F20
:108860000000000000000000F00FF00FF00FF00F0C
:10887000F00FF00FF00FF00FF00FF00FF00FF00F00
:10888000F00FF00FF00FF00FF00FF00FF00FF00FF0
:10889000F00FF00FF00FF00FF00FF00FF00FF00FE0
:1088A000F00FF00FF00FF00FF00FF00FF00FF00FD0
:1088B000F00FF00FF00FF00FF00FF00FF00FF00FC0
:1088C000F00FF00FF00FF00FF00FF00FF00FF00FB0
:1088D000F00FF00FF00FF00FF00FF00FF00FF00FA0
:1088E000F00FF00FF00FF00FF00FF00FF00FF00F90
:1088F000F00FF00FF00FF00FF00FF00FF00FF00F80
:10890000F00FF00FF00FF00FF00FF00FF00FF00F6F
:10891000F00FF00FF00FF00FF00FF00FF00FF00F5F
:10892000F00FF00FF00FF00FF00FF00FF00FF00F4F
:10893000F00FF00FF00FF00FF00FF00FF00FF00F3F
:10894000F00FF00FF00FF00FF00FF00FF00FF00F2F
:10895000F00FF00FF00FF00FF00FF00FF00FF00F1F
:10896000F00FF00FF00F000000000000000000000A
:10897000F00FF00FF00FF00FF00FF00FF00FF00FFF
:10898000F00FF00FF00FF00FF00FF00FF00FF00FEF
:10899000F00FF00FF00FF00FF00FF00FF00FF00FDF
:1089A000F00FF00FF00FF00FF00FF00FF00FF00FCF
:1089B000F00FF00FF00FF00FF00FF00FF00FF00FBF
:1089C000F00FF00FF00FF00FF00FF00FF00FF00FAF
:1089D000F00FF00FF00FF00FF00FF00FF00FF00F9F
:1089E000F00FF00FF00FF00FF00FF00FF00FF00F8F
:1089F000F00FF00FF00FF00FF00FF00FF00FF00F7F
:108A0000F00FF00FF00FF00FF00FF00FF00FF00F6E
:108A1000F00FF00FF00FF00FF00FF00FF00FF00F5E
:108A2000F00FF00FF00FF00FF00FF00FF00FF00F4E
:108A3000F00FF00FF00FF00FF00FF00FF00FF00F3E
:108A4000F00FF00FF00FF00FF00FF00FF00FF00F2E
:108A5000F00FF00FF00FF00FF00FF00FF00FF00F1E
:108A6000F00FF00FF00FF00F00000000000000000A
:108A7000000000000000F00FF00FF00FF00FF00FFB
:108A8000F00FF00FF00FF00FF00FF00FF00FF00FEE
:108A9000F00FF00FF00FF00FF00FF00FF00FF00FDE
:108AA000F00FF00FF00FF00FF00FF00FF00FF00FCE
:108AB000F00FF00FF00FF00FF00FF00FF00FF00FBE
:108AC000F00FF00FF00FF00FF00FF00FF00FF00FAE
:108AD000F00FF00FF00FF00FF00FF00FF00FF00F9E
:108AE000F00FF00FF00FF00FF00FF00FF00FF00F8E
:108AF000F00FF00FF00FF00FF00FF00FF00FF00F7E
:108B0000F00FF00FF00FF00FF00FF00FF00FF00F6D
:108B1000F00FF00FF00FF00FF00FF00FF00FF00F5D
:108B2000F00FF00FF00FF00FF00FF00FF00FF00F4D
:108B3000F00FF00FF00FF00FF00FF00FF00FF00F3D
:108B4000F00FF00FF00FF00FF00FF00FF00FF00F2D
:108B5000F00FF00FF00FF00FF00FF00FF00FF00F1D
:108B6000F00FF00FF00FF00FF00FF00FF00FF00F0D
:108B7000000000000000000000000000F00FF00FF7
:108B8000F00FF00FF00FF00FF00FF00FF00FF00FED
:108B9000F00FF00FF00FF00FF00FF00FF00FF00FDD
:108BA000F00FF00FF00FF00FF00FF00FF00FF00FCD
:108BB000F00FF00FF00FF00FF00FF00FF00FF00FBD
:108BC000F00FF00FF00FF00FF00FF00FF00FF00FAD
:108BD000F00FF00FF00FF00FF00FF00FF00FF00F9D
:108BE000F00FF00FF00FF00FF00FF00FF00FF00F8D
:108BF000F00FF00FF00FF00FF00FF00FF00FF00F7D
:108C0000F00FF00FF00FF00FF00FF00FF00FF00F6C
:108C1000F00FF00FF00FF00FF00FF00FF00FF00F5C
:108C2000F00FF00FF00FF00FF00FF00FF00FF00F4C
:108C3000F00FF00FF00FF00FF00FF00FF00FF00F3C
:108C4000F00FF00FF00FF00FF00FF00FF00FF00F2C
:108C5000F00FF00FF00FF00FF00FF00FF00FF00F1C
:108C6000F00FF00FF00FF00FF00FF00FF00FF00F0C
:108C7000F00FF00FF00FF00F0000000000000000F8
:108C80000000F00FF00FF00FF00FF00FF00FF00FEB
:108C9000F00FF00FF00FF00FF00FF00FF00FF00FDC
:108CA000F00FF00FF00FF00FF00FF00FF00FF00FCC
:108CB000F00FF00FF00FF00FF00FF00FF00FF00FBC
:108CC000F00FF00FF00FF00FF00FF00FF00FF00FAC
:10A9200070B504000D000020060006F001FADFF803
:10A93000840A30210160A4B2E0B2000410F5A060E6
:10A94000DFF8741A0860DFF8C00C0068C006FAD59A
:10A95000DFF8600A10210160A4B22000D02812D0D4
:10A96000D82810D0F22841D0F3280CD0F52817D0E1
:10A97000FB283BD0FD2813D0FE2837D0FF2835D048
:10A98000B0F5FF7F43D1EDB2280400F20010DFF8EC
:10A99000281A0860DFF8700C0068C00661D4F9E777
:10A9A000A4B2200400F20020DFF80C1A0860DFF8DF
:10A9B000580C00688006FAD5DFF8F80920210160FC
:10A9C000DFF8F80900680600A4B2200400F20020B5
:10A9D000DFF8E4190860DFF8300C00688006FAD56B
:10A9E000DFF8D809006856EA00263AE0A4B220044D
:10A9F00000F20020DFF8C0190860DFF80C0C0068D6
:10AA00008006FAD5DFF8B4090068060029E0A4B290
:10AA10004FF4F070204080B2002805D0402803D0C9
:10AA2000B0F5A07F11D01CE0A4B2200400F20020F9
:10AA3000DFF884190860DFF8D00B00688006FAD5CB
:10AA4000DFF87809006806000BE0EDB2280400F298
:10AA50000010DFF864190860DFF8AC0B0068C0066E
:10AA6000FAD506F0A5F9300070BD10B582B004002B
:10AA70006420009006F05CF90120A040DFF88C1BF8
:10AA8000086000BF00BFDFF8800B006880060ED4AE
:10AA90000098401E00900028F5D1E422DFF8701BDA
:10AAA000DFF8700B05F07BFF05F078FFEBE706F0B1
:10AAB0007FF9DFF808090068C0B216BD80B5DFF87D
:10AAC000580B006850F00040DFF84C1B0860DFF8BE
:10AAD0004C0B05210160DFF8480B1A210160DFF8FB
:10AAE000440B006810F01A001A28F8D1DFF8380B70
:10AAF000006830F0406050F08060DFF82C1B086088
:10AB0000DFF8240B006830F0405050F08050DFF840
:10AB1000181B0860DFF8140B006830F0300050F0AC
:10AB20001000DFF8081B0860DFF8040B006830F441
:10AB3000402050F48020DFF8F81A0860DFF8EC0AB3
:10AB4000006830F0405050F00050DFF8E01A086024
:10AB5000DFF8E00A006850F04050DFF8D81A0860CB
:10AB6000DFF8BC0A12210160DFF8CC0A016821F08D
:10AB700000410160002000F00EF90021F320FFF7F2
:10AB8000CFFE002000F0F8F8DFF8800A5FF0FF3118
:10AB9000016000F01AF8002000F0F1FD0021FE2015
:10ABA000FFF7BEFEDFF8941A0870282003F0C8FDF6
:10ABB0000021282003F002FEDFF87C0A006850F034
:10ABC0000040DFF8741A086001BD80B5DFF8700A34
:10ABD00000210160DFF86C0A00210170002000F004
:10ABE000E7F8DFF8640A002101600122DFF85C1A4F
:10ABF000DFF85C0A00F012F80122DFF8581ADFF8DB
:10AC0000580A00F00BF8DFF8540A5FF0FF310160DA
:10AC1000DFF84C0A4FF40371016001BD2DE9F041EA
:10AC200004000D001600A07800F0CAFB0700012008
:10AC3000B8408046002E00F08280FFB2DFF8240A80
:10AC400010EB471000210175FFB2DFF8180A10EB76
:10AC5000471000214177FFB2DFF8080A10EB4710D8
:10AC60002968C1F30001427F61F341024277FFB2DC
:10AC7000DFF8F00910EB4710FFB2DFF8EC1951F8DC
:10AC80002710C1F30001427F61F300024277FFB257
:10AC9000DFF8D00910EB4710E17811F003010171E2
:10ACA000FFB27801DFF8BC19A28842500120B840F9
:10ACB000DFF8A8190860F8070FD5FFB2DFF8A4097C
:10ACC00010EB4710407F10F00100401CFFB2DFF88E
:10ACD000941911EB4711087706E0FFB2DFF88409F9
:10ACE00010EB471000210177DFF8C8064FF48071A0
:10ACF0000160DFF87809006858EA0000DFF86C1995
:10AD00000860DFF86C09FFB20760A088DFF86419FB
:10AD10000860DFF8F4080068C005FAD5FFB2DFF874
:10AD2000440910EB4710407F800722D4DFF8100958
:10AD3000006858EA0000DFF80819086019E0DFF839
:10AD40002C09006830EA0800DFF820190860DFF8F5
:10AD5000F008006830EA0800DFF8E4180860DFF85F
:10AD6000FC08C0F80080FFB27801DFF8F818002274
:10AD700042500020BDE8F08110B5040054F080017D
:10AD8000C9B2D020FFF7CCFD54F08001C9B2D02069
:10AD9000FFF7C6FD10BD10B50400002C01D0012145
:10ADA00000E00021C9B24FF4FF70FFF7B9FD10BDFC
:10ADB00010B504002100C9B2D820FFF7B1FD10BDC5
:10ADC00080B5DFF85C0812210160DFF858080068E0
:10ADD00010F012001228F8D101214FF4FF70FFF794
:10ADE0009FFD01BD38B504000D00DFF88008006844
:10ADF0000121A140084209D140F28722DFF8101852
:10AE0000DFF8740805F0CBFD05F0C8FD00A92000AF
:10AE1000C0B200F042F80098A84227D0E00711D550
:10AE2000002D0FD1E4B2DFF83C0810EB4410407F56
:10AE300010F00100401CE4B2DFF8281811EB4411B7
:10AE4000087706E0E4B2DFF81C0810EB441000219C
:10AE50000177002D01D0012100E00021C9B2E4B248
:10AE60004FF4A070204380B2FFF75AFD31BD80B58A
:10AE7000DFF8F00700210177DFF8E80790F83D00E0
:10AE800010F00100401CDFF8DC1781F83C00802145
:10AE90004FF4A070FFF744FD01BD38B504000D006C
:10AEA000DFF8C80700680121A140084209D140F23B
:10AEB000B222DFF85C17DFF8C40705F070FD05F07B
:10AEC0006DFD0021E4B2200080B2FFF729FD80076C
:10AED00001D5012000E00020C0B2286031BDF8B5E6
:10AEE0000400E4B2DFF87C0710EB4410007D022878
:10AEF0000AD0E4B2DFF86C0710EB4410007D0128A3
:10AF000002D00020009053E2E00740F13E81E4B21D
:10AF1000DFF8500710EB44100069E4B2DFF8441783
:10AF200011EB4411C968401A0600E4B2DFF8340797
:10AF300010EB4410007F002800F00181002E08D1A2
:10AF4000E4B2DFF8200710EB4410407F400740F1E7
:10AF5000F680E4B2DFF80C0710EB44100221017513
:10AF6000E4B2DFF8000710EB4410407F000722D561
:10AF7000E4B26001DFF8EC16405886421BD1E4B21F
:10AF8000DFF8E00610EB4410407F10F0F700E4B269
:10AF9000DFF8D01611EB44114877E4B2DFF8C406AD
:10AFA00010EB4410407F50F00400E4B2DFF8B41618
:10AFB00011EB44114877E4B26001DFF8A81640585D
:10AFC000864204D3E4B26001DFF898164658E4B232
:10AFD000DFF8900610EB4410C0680700E4B2DFF819
:10AFE000840610EB4410C0683018E4B2DFF8741621
:10AFF00011EB4411C860E4B2600010F03C0050F066
:10B000000200DFF87C160860DFF878060660002E84
:10B0100054D0DFF86C060068800709D44FF44872FA
:10B02000DFF8EC15DFF8600605F0B9FC05F0B6FCBA
:10B03000E4B2DFF8300610EB44108069385C05009C
:10B040007F1C761E002E24D0E4B2DFF8180610EB29
:10B0500044108069385C55EA00257F1C761E002E5E
:10B0600017D0E4B2DFF8FC0510EB44108069385CBF
:10B0700055EA00457F1C761E002E0AD0E4B2DFF8A8
:10B08000E40510EB44108069385C55EA00657F1CCC
:10B09000761EDFF8F8050560002EBAD1DFF8E0056E
:10B0A0000068800721D540F23232DFF86415DFF8FE
:10B0B000E00505F074FC05F071FC16E0E4B2DFF881
:10B0C000A40510EB4410407F10F0FB00E4B2DFF861
:10B0D000941511EB44114877DFF8B00500210160A9
:10B0E000DFF89C0500688007F6D4DFF8940500219E
:10B0F0000160E4B2DFF86C0510EB4410007F401EE5
:10B10000E4B2DFF8601511EB441108770021E4B2D6
:10B11000200080B2FFF704FC0021FA20FFF700FCBA
:10B12000E4B2DFF8400510EB44100069E4B2DFF848
:10B13000341511EB4411C968401A0600F5E6E4B273
:10B14000DFF8200510EB4410407F400700F130810C
:10B15000002E40F02D81E4B2DFF8080510EB44101A
:10B1600003210175E4B2DFF8FC0410EB44108068A1
:10B17000002800F01D812000C0B2E4B2DFF8E41422
:10B1800011EB44118968884712E1E4B2DFF8D40476
:10B1900010EB4410007F002800F0ED80E4B2600066
:10B1A00010F03C0050F00100DFF8D4140860DFF824
:10B1B000E404006810F40060C00A0028F7D0DFF84B
:10B1C000D40400688005800D0600E4B2DFF8940422
:10B1D00010EB44100069E4B2DFF8881411EB44115D
:10B1E000C968401AB04213D2E4B2DFF8780410EB19
:10B1F000441005210175E4B2DFF8680410EB441037
:10B20000E4B2DFF8601411EB4411C9680161B2E0E7
:10B21000E4B26001DFF84C144058864214D2E4B224
:10B22000DFF8400410EB441004210175E4B2DFF8AC
:10B23000340410EB4410C0683018E4B2DFF8241472
:10B2400011EB4411086106E0E4B2DFF8180410EBDA
:10B25000441002210175E4B2DFF8080410EB441039
:10B26000C0680700E4B2DFF8FC0310EB4410C068CC
:10B270003018E4B2DFF8EC1311EB4411C860DFF8CA
:10B28000180400680500002E2CD0E4B2DFF8D403C7
:10B2900010EB441080693D547F1C761E002E21D097
:10B2A0002D0AE4B2DFF8BC0310EB441080693D5472
:10B2B0007F1C761E002E15D02D0AE4B2DFF8A40301
:10B2C00010EB441080693D547F1C761E002E09D07F
:10B2D000761E2D0AE4B2DFF88C0310EB441080696F
:10B2E0003D547F1C002ECAD1DFF8A803006840053A
:10B2F00008D54FF47072C649DFF8A00305F04FFB84
:10B3000005F04CFBDFF8780300210160E4B2DFF8C0
:10B31000540310EB4410007F401EE4B2DFF84413E6
:10B3200011EB441108770021E4B2200080B2FFF74E
:10B33000F7FA0021F220FFF7F3FAC00706D5E4B2CE
:10B34000C84810EB44100621017531E0E4B2C5484D
:10B3500010EB44100069E4B2C24911EB4411C96812
:10B36000401A060000287FF410AFE4B2BD4810EB8D
:10B37000441003210175E4B2BA4810EB4410007D7B
:10B38000022815D0E4B2B74810EB4410007D012824
:10B390000ED0E4B2B34810EB44108068002807D008
:10B3A0002000C0B2E4B2AF4911EB4411896888476C
:10B3B000F1BD000008C2005010C2005014C200507D
:10B3C000010011F00F02520010000A0600D5401CC7
:10B3D000C0B2704710B50400002C05D00023002235
:10B3E0000021012005F016F810BDF8B505F0FAFAB5
:10B3F0009148006810F00100C0B2002800F0FD8004
:10B4000081480068800509D5A5484FF400710160A6
:10B410000021FB20FFF784FA05F0E6FA7A4800687D
:10B42000000725D59E48082101600021FE20FFF776
:10B4300077FA8249087081480078800705D57F48EF
:10B44000007810F0010000F010FA7C480078000746
:10B4500006D57A480078C0F38000C0B200F013FA35
:10B4600076480078C00603D5FFF7AFFB00F01EFA60
:10B4700065480068400740F1C080012005000020B9
:10B4800006008848006807006D4800680740002FE4
:10B4900000F0AC802F4200F0A6803000C0B2FFF771
:10B4A000E4FAF10701D5602100E00021C0B291EA81
:10B4B0000004F6B26B4810EB4610407FC00701D481
:10B4C00024F0400414F06000002806D020280BD09F
:10B4D000402810D0602815D01AE0F6B2614810EB71
:10B4E00046100021017713E0F6B25E4810EB4610DB
:10B4F000012101770CE0F6B25A4810EB4610012109
:10B50000017705E0F6B2574810EB461002210177AB
:10B51000200040072BD5F6B2002E07D040F246524D
:10B520003B49614805F03BFA05F038FA4D480121E6
:10B5300080F83C1000235FF0FF320021012004F06E
:10B5400069FF002308225949002004F063FF57488F
:10B550000078000602D5002000F040FA00F0BFF9A4
:10B560004048007D072801D1FFF781FC3EE0F6B29C
:10B57000002E0CD14D480078000618D53948806857
:10B58000002814D000203749896888472EE0F6B299
:10B59000012E0CD145480078000608D43148806A55
:10B5A000002804D001202F49896A88471EE0F6B29E
:10B5B0002C4810EB4610407F10F00100401CF6B202
:10B5C000284911EB4611097F884207DA40F26E5292
:10B5D0000F49374805F0E3F905F0E0F93000C0B253
