:1020000000080010A5C4000055C5000055C500001B
:1020100055C5000055C5000055C50000B258FBEF7E
:1020200000000000000000000000000055C5000096
:1020300055C500000000000055C5000055C5000052
:1020400055C50000A5A9000055C5000055C50000F4
:1020500055C5000055C5000055C5000055C5000018
:1020600055C5000055C5000055C5000055C5000008
:1020700055C5000055C5000055C5000055C50000F8
:1020800055C5000055C5000055C5000055C50000E8
:1020900055C5000055C5000055C5000055C50000D8
:1020A00055C5000055C5000055C5000055C50000C8
:1020B00055C5000055C5000055C5000055C50000B8
:0420C00055C5000002
:10210000F00FF00FF00FF00FF00FF00FF00FF00FD7
:10211000F00FF00FF00FF00FF00FF00FF00FF00FC7
:10212000F00FF00FF00FF00FF00FF00FF00FF00FB7
:10213000F00FF00FF00FF00FF00FF00FF00FF00FA7
:1032C000000FF00FF00FF00FF00FF00FF00FF00FF6
:1032D000F00FF00FF00FF00FF00FF00FF00FF00FF6
:1032E000F00FF00FF00FF00FF00FF00FF00FF00FE6
:1032F000F00FF00FF00FF00FF00FF00FF00FF00FD6
:10330000F00FF00FF00FF00FF00FF00FF00FF00FC5
:10331000F00FF00FF00FF00FF00FF00FF00FF00FB5
:10332000F00FF00FF00FF00FF00FF00FF00FF00FA5
:10333000F00FF00FF00FF00FF00FF00FF00FF00F95
:10334000F00FF00FF00FF00FF00FF00FF00FF00F85
:10335000F00FF00FF00FF00FF00FF00FF00FF00F75
:10336000F00FF00FF00FF00FF00FF00FF00FF00F65
:10337000F00FF00FF00FF00FF00FF00FF00FF00F55
:10338000F00FF00FF00FF00FF00FF00FF00FF00F45
:10339000F00FF00FF00FF00FF00FF00FF00FF00F35
:1033A000F00FF00FF00FF00FF00FF00FF00FF00F25
:1033B000F00FF00FF00FF00FF00FF00FF00FF00F15
:1033C000000F000F000F000F000F000F000F000F85
:1033D000000F000FF00FF00FF00FF00FF00FF00FD5
:1033E000F00FF00FF00FF00FF00FF00FF00FF00FE5
:1033F000F00FF00FF00FF00FF00FF00FF00FF00FD5
:10340000F00FF00FF00FF00FF00FF00FF00FF00FC4
:10341000F00FF00FF00FF00FF00FF00FF00FF00FB4
:10342000F00FF00FF00FF00FF00FF00FF00FF00FA4
:10343000F00FF00FF00FF00FF00FF00FF00FF00F94
:10344000F00FF00FF00FF00FF00FF00FF00FF00F84
:10345000F00FF00FF00FF00FF00FF00FF00FF00F74
:10346000F00FF00FF00FF00FF00FF00FF00FF00F64
:10347000F00FF00FF00FF00FF00FF00FF00FF00F54
:10348000F00FF00FF00FF00FF00FF00FF00FF00F44
:10349000F00FF00FF00FF00FF00FF00FF00FF00F34
:1034A000F00FF00FF00FF00FF00FF00FF00FF00F24
:1034B000F00FF00FF00FF00FF00FF00FF00F000F04
:1034C000000F000F000F000F000F000F000F000F84
:1034D000000F000F000F000F000F000F000F000F74
:1034E000000F000F000FF00FF00FF00FF00FF00FB4
:1034F000F00FF00FF00FF00FF00FF00FF00FF00FD4
:10350000F00FF00FF00FF00FF00FF00FF00FF00FC3
:10351000F00FF00FF00FF00FF00FF00FF00FF00FB3
:10352000F00FF00FF00FF00FF00FF00FF00FF00FA3
:10353000F00FF00FF00FF00FF00FF00FF00FF00F93
:10354000F00FF00FF00FF00FF00FF00FF00FF00F83
:10355000F00FF00FF00FF00FF00FF00FF00FF00F73
:10356000F00FF00FF00FF00FF00FF00FF00FF00F63
:10357000F00FF00FF00FF00FF00FF00FF00FF00F53
:10358000F00FF00FF00FF00FF00FF00FF00FF00F43
:10359000F00FF00FF00FF00FF00FF00FF00FF00F33
:1035A000F00FF00FF00FF00FF00FF00FF00FF00F23
:1035B000F00FF00FF00FF00FF00FF00FF00FF00F13
:1035C000F00FF00F000F000F000F000F000F000FA3
:1035D000000F000F000F000F000F000F000F000F73
:1035E000000F000F000F000F000F000F000F000F63
:1035F000F00FF00FF00FF00FF00FF00FF00FF00FD3
:10360000F00FF00FF00FF00FF00FF00FF00FF00FC2
:10361000F00FF00FF00FF00FF00FF00FF00FF00FB2
:10362000F00FF00FF00FF00FF00FF00FF00FF00FA2
:10363000F00FF00FF00FF00FF00FF00FF00FF00F92
:10364000F00FF00FF00FF00FF00FF00FF00FF00F82
:10365000F00FF00FF00FF00FF00FF00FF00FF00F72
:10366000F00FF00FF00FF00FF00FF00FF00FF00F62
:10367000F00FF00FF00FF00FF00FF00FF00FF00F52
:10368000F00FF00FF00FF00FF00FF00FF00FF00F42
:10369000F00FF00FF00FF00FF00FF00FF00FF00F32
:1036A000F00FF00FF00FF00FF00FF00FF00FF00F22
:1036B000F00FF00FF00FF00FF00FF00FF00FF00F12
:1036C000F00FF00FF00FF00F000F000F000F000FC2
:1036D000000F000F000F000F000F000F000F000F72
:1036E000000F000F000F000F000F000F000F000F62
:1036F000000F000F000F000F000F000FF00FF00F72
:10370000F00FF00FF00FF00FF00FF00FF00FF00FC1
:10371000F00FF00FF00FF00FF00FF00FF00FF00FB1
:10372000F00FF00FF00FF00FF00FF00FF00FF00FA1
:10373000F00FF00FF00FF00FF00FF00FF00FF00F91
:10374000F00FF00FF00FF00FF00FF00FF00FF00F81
:10375000F00FF00FF00FF00FF00FF00FF00FF00F71
:10376000F00FF00FF00FF00FF00FF00FF00FF00F61
:10377000F00FF00FF00FF00FF00FF00FF00FF00F51
:10378000F00FF00FF00FF00FF00FF00FF00FF00F41
:10379000F00FF00FF00FF00FF00FF00FF00FF00F31
:1037A000F00FF00FF00FF00FF00FF00FF00FF00F21
:1037B000F00FF00FF00FF00FF00FF00FF00FF00F11
:1037C000F00FF00FF00FF00FF00FF00FF00F000FF1
:1037D000000F000F000F000F000F000F000F000F71
:1037E000000F000F000F000F000F000F000F000F61
:1037F000000F000F000F000F000F000F000F000F51
:10380000000F000F000FF00FF00FF00FF00FF00F90
:10381000F00FF00FF00FF00FF00FF00FF00FF00FB0
:10382000F00FF00FF00FF00FF00FF00FF00FF00FA0
:10383000F00FF00FF00FF00FF00FF00FF00FF00F90
:10384000F00FF00FF00FF00FF00FF00FF00FF00F80
:10385000F00FF00FF00FF00FF00FF00FF00FF00F70
:10386000F00FF00FF00FF00FF00FF00FF00FF00F60
:10387000F00FF00FF00FF00FF00FF00FF00FF00F50
:10388000F00FF00FF00FF00FF00FF00FF00FF00F40
:10389000F00FF00FF00FF00FF00FF00FF00FF00F30
:1038A000F00FF00FF00FF00FF00FF00FF00FF00F20
:1038B000F00FF00FF00FF00FF00FF00FF00FF00F10
:1038C000F00FF00FF00FF00FF00FF00FF00FF00F00
:1038D000F00FF00F000F000F000F000F000F000F90
:1038E000000F000F000F000F000F000F000F000F60
:1038F000000F000F000F000F000F000F000F000F50
:10390000000F000F000F000F000F000F000F000F3F
:10391000000FF00FF00FF00FF00FF00FF00FF00F9F
:10392000F00FF00FF00FF00FF00FF00FF00FF00F9F
:10393000F00FF00FF00FF00FF00FF00FF00FF00F8F
:10394000F00FF00FF00FF00FF00FF00FF00FF00F7F
:10395000F00FF00FF00FF00FF00FF00FF00FF00F6F
:10396000F00FF00FF00FF00FF00FF00FF00FF00F5F
:10397000F00FF00FF00FF00FF00FF00FF00FF00F4F
:10398000F00FF00FF00FF00FF00FF00FF00FF00F3F
:10399000F00FF00FF00FF00FF00FF00FF00FF00F2F
:1039A000F00FF00FF00FF00FF00FF00FF00FF00F1F
:1039B000F00FF00FF00FF00FF00FF00FF00FF00F0F
:1039C000F00FF00FF00FF00FF00FF00FF00FF00FFF
:1039D000F00FF00FF00FF00FF00FF00F000F000FCF
:1039E000000F000F000F000F000F000F000F000F5F
:1039F000000F000F000F000F000F000F000F000F4F
:103A0000000F000F000F000F000F000F000F000F3E
:103A1000000F000F000F000F000FF00FF00FF00F5E
:103A2000F00FF00FF00FF00FF00FF00FF00FF00F9E
:103A3000F00FF00FF00FF00FF00FF00FF00FF00F8E
:103A4000F00FF00FF00FF00FF00FF00FF00FF00F7E
:103A5000F00FF00FF00FF00FF00FF00FF00FF00F6E
:103A6000F00FF00FF00FF00FF00FF00FF00FF00F5E
:103A7000F00FF00FF00FF00FF00FF00FF00FF00F4E
:103A8000F00FF00FF00FF00FF00FF00FF00FF00F3E
:103A9000F00FF00FF00FF00FF00FF00FF00FF00F2E
:103AA000F00FF00FF00FF00FF00FF00FF00FF00F1E
:103AB000F00FF00FF00FF00FF00FF00FF00FF00F0E
:103AC000F00FF00FF00FF00FF00FF00FF00FF00FFE
:103AD000F00FF00FF00FF00FF00FF00FF00F000FDE
:103AE000F00FF00F000F000F000F000F000F000F7E
:103AF000000F000F000F000F000F000F000F000F4E
:103B0000000F000F000F000F000F000F000F000F3D
:103B1000000F000F000F000F000F000F000F000F2D
:103B2000000FF00FF00FF00FF00FF00FF00FF00F8D
:103B3000F00FF00FF00FF00FF00FF00FF00FF00F8D
:103B4000F00FF00FF00FF00FF00FF00FF00FF00F7D
:103B5000F00FF00FF00FF00FF00FF00FF00FF00F6D
:103B6000F00FF00FF00FF00FF00FF00FF00FF00F5D
:103B7000F00FF00FF00FF00FF00FF00FF00FF00F4D
:103B8000F00FF00FF00FF00FF00FF00FF00FF00F3D
:103B9000F00FF00FF00FF00FF00FF00FF00FF00F2D
:103BA000F00FF00FF00FF00FF00FF00FF00FF00F1D
:103BB000F00FF00FF00FF00FF00FF00FF00FF00F0D
:103BC000F00FF00FF00FF00FF00FF00FF00FF00FFD
:103BD000F00FF00FF00FF00FF00FF00FF00FF00FED
:103BE000F00FF00F000F000FF00FF00F000F000F9D
:103BF000000F000F000F000F000F000F000F000F4D
:103C0000000F000F000F000F000F000F000F000F3C
:103C1000000F000F000F000F000F000F000F000F2C
:103C2000000F000F000F000F000FF00FF00F000F3C
:103C3000F00FF00FF00FF00FF00FF00FF00FF00F8C
:103C4000F00FF00FF00FF00FF00FF00FF00FF00F7C
:103C5000F00FF00FF00FF00FF00FF00FF00FF00F6C
:103C6000F00FF00FF00FF00FF00FF00FF00FF00F5C
:103C7000F00FF00FF00FF00FF00FF00FF00FF00F4C
:103C8000F00FF00FF00FF00FF00FF00FF00FF00F3C
:103C9000F00FF00FF00FF00FF00FF00FF00FF00F2C
:103CA000F00FF00FF00FF00FF00FF00FF00FF00F1C
:103CB000F00FF00FF00FF00FF00FF00FF00FF00F0C
:103CC000F00FF00FF00FF00FF00FF00FF00FF00FFC
:103CD000F00FF00FF00FF00FF00FF00FF00FF00FEC
:103CE000F00FF00FF00FF00FF00FF00F000F000FBC
:103CF000F00FF00F000F000F000F000F000F000F6C
:103D0000000F000F000F000F000F000F000F000F3B
:103D1000000F000F000F000F000F000F000F000F2B
:103D2000000F000F000F000F000F000F000F000F1B
:103D3000000FF00FF00F000FF00FF00FF00FF00F6B
:103D4000F00FF00FF00FF00FF00FF00FF00FF00F7B
:103D5000F00FF00FF00FF00FF00FF00FF00FF00F6B
:103D6000F00FF00FF00FF00FF00FF00FF00FF00F5B
:103D7000F00FF00FF00FF00FF00FF00FF00FF00F4B
:103D8000F00FF00FF00FF00FF00FF00FF00FF00F3B
:103D9000F00FF00FF00FF00FF00FF00FF00FF00F2B
:103DA000F00FF00FF00FF00FF00FF00FF00FF00F1B
:103DB000F00FF00FF00FF00FF00FF00FF00FF00F0B
:103DC000F00FF00FF00FF00FF00FF00FF00FF00FFB
:103DD000F00FF00FF00FF00FF00FF00FF00FF00FEB
:103DE000F00FF00FF00FF00FF00FF00FF00FF00FDB
:103DF000F00F000F000F000FF00FF00F000F000F7B
:103E0000000F000F000F000F000F000F000F000F3A
:103E1000000F000F000F000F000F000F000F000F2A
:103E2000000F000F000F000F000F000F000F000F1A
:103E3000000F000F000F000F000FF00FF00F000F2A
:103E4000000FF00FF00FF00FF00FF00FF00FF00F6A
:103E5000F00FF00FF00FF00FF00FF00FF00FF00F6A
:103E6000F00FF00FF00FF00FF00FF00FF00FF00F5A
:103E7000F00FF00FF00FF00FF00FF00FF00FF00F4A
:103E8000F00FF00FF00FF00FF00FF00FF00FF00F3A
:103E9000F00FF00FF00FF00FF00FF00FF00FF00F2A
:103EA000F00FF00FF00FF00FF00FF00FF00FF00F1A
:103EB000F00FF00FF00FF00FF00FF00FF00FF00F0A
:103EC000F00FF00FF00FF00FF00FF00FF00FF00FFA
:103ED000F00FF00FF00FF00FF00FF00FF00FF00FEA
:103EE000F00FF00FF00FF00FF00FF00FF00FF00FDA
:103EF000F00FF00FF00FF00F000F000F000F000F8A
:103F0000F00FF00F000F000F000F000F000F000F59
:103F1000000F000F000F000F000F000F000F000F29
:103F2000000F000F000F000F000F000F000F000F19
:103F3000000F000F000F000F000F000F000F000F09
:103F4000000FF00FF00F000F000F000FF00FF00F39
:103F5000F00FF00FF00FF00FF00FF00FF00FF00F69
:103F600000000000000000000000F00FF00FF00F54
:103F7000F00FF00FF00FF00FF00FF00FF00FF00F49
:103F8000F00F000000000000000000000000000032
:103F9000F00FF00FF00FF00FF00FF00FF00FF00F29
:103FA000F00FF00FF00FF00FF00F00000000000016
:103FB0000000000000000000000000000000000001
:103FC000000000000000000000000000F00FF00FF3
:103FD000F00FF00FF00FF00FF00FF00FF00FF00FE9
:103FE000F00FF00FF00FF00FF00FF00FF00FF00FD9
:103FF000F00FF00FF00FF00FF00FF00FF00FF00FC9
:10400000000F000F000F000FF00FF00F000F000F58
:10401000000F000F000F000F000F000F000F000F28
:10402000000F000F000F000F000F000F000F000F18
:10403000000F000F000F000F000F000F000F000F08
:10404000000F000F000F000F000FF00FF00F000F18
:10405000000F000FF00FF00FF00FF00FF00FF00F48
:10406000F00FF00FF00FF00F000000000000000054
:104070000000F00FF00FF00FF00FF00FF00FF00F47
:10408000F00FF00FF00FF00FF00F00000000000035
:104090000000000000000000F00FF00FF00FF00F24
:1040A000F00FF00FF00FF00FF00FF00FF00FF00F18
:1040B000F00F000000000000000000000000000001
:1040C00000000000000000000000000000000000F0
:1040D0000000000000000000F00FF00FF00FF00FE4
:1040E000F00FF00FF00FF00FF00FF00FF00FF00FD8
:1040F000F00FF00FF00FF00FF00FF00FF00FF00FC8
:10410000F00FF00FF00F000F000F000F000F000F67
:10411000F00FF00FF00FF00FF00FF00FF00FF00FA7
:10412000F00FF00FF00FF00FF00FF00FF00FF00F97
:10413000F00FF00FF00FF00FF00FF00FF00FF00F87
:10414000F00FF00FF00FF00FF00FF00FF00FF00F77
:10415000F00FF00FF00F000F000F000F000FF00F27
:10416000F00FF00FF00FF00FF00FF00FF00FF00F57
:1041700000000000000000000000F00FF00FF00F42
:10418000F00FF00FF00FF00FF00FF00FF00FF00F37
:10419000000000000000000000000000000000001F
:1041A0000000F00FF00FF00FF00FF00FF00FF00F16
:1041B000F00FF00FF00FF00FF00F00000000000004
:1041C00000000000000000000000000000000000EF
:1041D00000000000000000000000000000000000DF
:1041E0000000F00FF00FF00FF00FF00FF00FF00FD6
:1041F000F00FF00FF00FF00FF00FF00FF00FF00FC7
:10420000F00FF00FF00FF00FF00FF00FF00F000FA6
:10421000000F000F000F000FF00FF00FF00FF00F66
:10422000F00FF00FF00FF00FF00FF00FF00FF00F96
:10423000F00FF00FF00FF00FF00FF00FF00FF00F86
:10424000F00FF00FF00FF00FF00FF00FF00FF00F76
:10425000F00FF00FF00FF00FF00FF00FF00F000F56
:10426000000F000F000FF00FF00FF00FF00FF00F26
:10427000F00FF00FF00FF00F000000000000000042
:104280000000F00FF00FF00FF00FF00FF00FF00F35
:10429000F00FF00FF00FF00F000000000000000022
:1042A00000000000000000000000F00FF00FF00F11
:1042B000F00FF00FF00FF00FF00FF00FF00FF00F06
:1042C000F00F0000000000000000000000000000EF
:1042D00000000000000000000000000000000000DE
:1042E000000000000000000000000000F00FF00FD0
:1042F000F00FF00FF00FF00FF00FF00FF00FF00FC6
:10430000F00FF00FF00FF00FF00FF00FF00FF00FB5
:10431000F00FF00F000F000F000F000F000F000F45
:10432000F00FF00F000F000F000F000F000F000F35
:10433000000F000F000F000F000F000F000F000F05
:10434000000F000F000F000F000F000F000F000FF5
:10435000000F000F000F000F000F000F000F000FE5
:10436000000FF00FF00F000F000F000F000F000FF5
:10437000F00FF00FF00FF00FF00FF00FF00FF00F45
:1043800000000000000000000000F00FF00FF00F30
:10439000F00FF00FF00FF00FF00FF00FF00FF00F25
:1043A0000000000000000000F00F0000000000000E
:1043B0000000F00FF00FF00FF00FF00FF00FF00F04
:1043C000F00FF00FF00FF00FF00F000000000000F2
:1043D00000000000F00FF00FF00FF00FF00FF00FE3
:1043E000F00FF00FF00FF00F0000000000000000D1
:1043F00000000000F00FF00FF00FF00FF00FF00FC3
:10440000F00FF00FF00FF00FF00FF00FF00FF00FB4
:10441000F00FF00FF00FF00FF00FF00F000F000F84
:10442000000F000F000F000FF00FF00F000F000F34
:10443000000F000F000F000F000F000F000F000F04
:10444000000F000F000F000F000F000F000F000FF4
:10445000000F000F000F000F000F000F000F000FE4
:10446000000F000F000F000F000FF00FF00F000FF4
:10447000000F000F000F000FF00FF00FF00FF00F04
:10448000F00FF00FF00FF00F000000000000000030
:104490000000F00FF00FF00FF00FF00FF00FF00F23
:1044A000F00FF00FF00F000000000000000000000F
:1044B000F00F00000000000000000000F00FF00FFF
:1044C000F00FF00FF00FF00FF00FF00FF00FF00FF4
:1044D000F00F00000000000000000000F00FF00FDF
:1044E000F00FF00FF00FF00FF00FF00FF00FF00FD4
:1044F000F00F000000000000000000000000F00FBE
:10450000F00FF00FF00FF00FF00FF00FF00FF00FB3
:10451000F00FF00FF00FF00FF00FF00FF00FF00FA3
:10452000F00FF00F000F000F000F000F000F000F33
:10453000F00FF00F000F000F000F000F000F000F23
:10454000000F000F000F000F000F000F000F000FF3
:10455000000F000F000F000F000F000F000F000FE3
:10456000000F000F000F000F000F000F000F000FD3
:10457000000FF00FF00F000F000F000F000F000FE3
:10458000F00FF00FF00FF00FF00FF00FF00FF00F33
:1045900000000000000000000000F00FF00FF00F1E
:1045A000F00FF00FF00FF00FF00FF00FF00F000012
:1045B0000000000000000000F00F000000000000FC
:1045C00000000000F00FF00FF00FF00FF00FF00FF1
:1045D000F00FF00FF00FF00FF00F000000000000E0
:1045E00000000000F00FF00FF00FF00FF00FF00FD1
:1045F000F00FF00FF00FF00FF00FF00F00000000C1
:10460000000000000000F00FF00FF00FF00FF00FAF
:10461000F00FF00FF00FF00FF00FF00FF00FF00FA2
:10462000F00FF00FF00FF00FF00FF00F000F000F72
:10463000000F000F000F000FF00FF00F000F000F22
:10464000000F000F000F000F000F000F000F000FF2
:10465000000F000F000F000F000F000F000F000FE2
:10466000000F000F000F000F000F000F000F000FD2
:10467000000F000F000F000F000FF00FF00F000FE2
:10468000000F000F000F000FF00FF00FF00FF00FF2
:10469000F00FF00FF00FF00F00000000000000001E
:1046A0000000F00FF00FF00FF00FF00FF00FF00F11
:1046B000F00FF00F00000000000000000000F00FFD
:1046C000F00FF00F00000000000000000000F00FED
:1046D000F00FF00FF00FF00FF00FF00FF00FF00FE2
:1046E000F00F00000000000000000000F00FF00FCD
:1046F000F00FF00FF00FF00FF00FF00FF00FF00FC2
:10470000F00FF00F00000000000000000000F00FAC
:10471000F00FF00FF00FF00FF00FF00FF00FF00FA1
:10472000F00FF00FF00FF00FF00FF00FF00FF00F91
:10473000F00F000F000F000F000F000F000F000F11
:10474000F00FF00F000F000F000F000F000F000F11
:10475000000F000F000F000F000F000F000F000FE1
:10476000000F000F000F000F000F000F000F000FD1
:10477000000F000F000F000F000F000F000F000FC1
:10478000000FF00FF00F000F000F000F000F000FD1
:10479000000FF00FF00FF00FF00FF00FF00FF00F11
:1047A00000000000000000000000F00FF00FF00F0C
:1047B000F00FF00FF00FF00FF00FF00F00000000FF
:1047C000000000000000F00FF00FF00F00000000EC
:1047D000000000000000F00FF00FF00FF00FF00FDE
:1047E000F00FF00FF00FF00FF00F000000000000CE
:1047F00000000000F00FF00FF00FF00FF00FF00FBF
:10480000F00FF00FF00FF00FF00FF00F00000000AE
:10481000000000000000F00FF00FF00FF00FF00F9D
:10482000F00FF00FF00FF00FF00FF00FF00FF00F90
:10483000F00FF00FF00FF00FF00F000F000F000F50
:10484000000F000F000F000FF00FF00F000F000F10
:10485000000F000F000F000F000F000F000F000FE0
:10486000000F000F000F000F000F000F000F000FD0
:10487000000F000F000F000F000F000F000F000FC0
:10488000000F000F000F000F000FF00FF00F000FD0
:10489000000F000F000F000F000FF00FF00FF00FD0
:1048A000F00FF00FF00FF00F00000000000000000C
:1048B0000000F00FF00FF00FF00FF00FF00FF00FFF
:1048C000F00FF00F00000000000000000000F00FEB
:1048D000F00FF00F00000000000000000000F00FDB
:1048E000F00FF00FF00FF00FF00FF00FF00FF00FD0
:1048F000F00F00000000000000000000F00FF00FBB
:10490000F00FF00FF00FF00FF00FF00FF00FF00FAF
:10491000F00FF00F00000000000000000000F00F9A
:10492000F00FF00FF00FF00FF00FF00FF00FF00F8F
:10493000F00FF00FF00FF00FF00FF00FF00FF00F7F
:10494000F00F000F000F000F000F000F000F000FFF
:10495000F00FF00FF00FF00FF00FF00FF00FF00F5F
:10496000F00FF00FF00FF00FF00FF00FF00FF00F4F
:10497000F00FF00FF00FF00FF00FF00FF00FF00F3F
:10498000F00FF00FF00FF00FF00FF00FF00FF00F2F
:10499000F00FF00FF00F000F000F000F000F000FCF
:1049A000000FF00FF00FF00FF00FF00FF00FF00FFF
:1049B00000000000000000000000F00FF00FF00FFA
:1049C000F00FF00FF00FF00FF00F000000000000EC
:1049D00000000000F00FF00FF00FF00FF00F0000DC
:1049E0000000000000000000F00FF00FF00FF00FCB
:1049F000F00FF00FF00FF00FF00F000000000000BC
:104A000000000000F00FF00FF00FF00FF00FF00FAC
:104A1000F00FF00FF00FF00FF00F0000000000009B
:104A2000000000000000F00FF00FF00FF00FF00F8B
:104A3000F00FF00FF00FF00FF00FF00FF00FF00F7E
:104A4000F00FF00FF00FF00FF00F000F000F000F3E
:104A5000000F000F000F000FF00FF00FF00FF00F1E
:104A6000F00FF00FF00FF00FF00FF00FF00FF00F4E
:104A7000F00FF00FF00FF00FF00FF00FF00FF00F3E
:104A8000F00FF00FF00FF00FF00FF00FF00FF00F2E
:104A9000F00FF00FF00FF00FF00FF00FF00F000F0E
:104AA000000F000F000F000F000FF00FF00FF00FBE
:104AB000F00FF00FF00FF00F0000000000000000FA
:104AC0000000F00FF00FF00FF00FF00FF00FF00FED
:104AD000F00F00000000000000000000F00FF00FD9
:104AE000F00FF00FF00F00000000000000000000C9
:104AF000F00FF00FF00FF00FF00FF00FF00FF00FBE
:104B0000F00F00000000000000000000F00FF00FA8
:104B1000F00FF00FF00FF00FF00FF00FF00FF00F9D
:104B2000000000000000000000000000F00FF00F87
:104B3000F00FF00FF00FF00FF00FF00FF00FF00F7D
:104B4000F00FF00FF00FF00FF00FF00FF00FF00F6D
:104B5000F00F000F000F000F000F000F000F000FED
:104B6000F00FF00F000F000F000F000F000F000FED
:104B7000000F000F000F000F000F000F000F000FBD
:104B8000000F000F000F000F000F000F000F000FAD
:104B9000000F000F000F000F000F000F000F000F9D
:104BA000000FF00FF00F000F000F000F000F000FAD
:104BB000000FF00FF00FF00FF00FF00FF00FF00FED
:104BC00000000000000000000000F00FF00FF00FE8
:104BD000F00FF00FF00FF00FF00F000000000000DA
:104BE0000000F00FF00FF00FF00FF00FF00FF00FCC
:104BF00000000000000000000000F00FF00FF00FB8
:104C0000F00FF00FF00FF00FF00F000000000000A9
:104C10000000000000000000000000000000000094
:104C20000000000000000000000000000000000084
:104C300000000000F00FF00FF00FF00FF00FF00F7A
:104C4000F00FF00FF00FF00FF00FF00FF00FF00F6C
:104C5000F00FF00FF00FF00FF00F000F000F000F2C
:104C6000000F000F000F000FF00FF00F000F000FEC
:104C7000000F000F000F000F000F000F000F000FBC
:104C8000000F000F000F000F000F000F000F000FAC
:104C9000000F000F000F000F000F000F000F000F9C
:104CA000000F000F000F000F000FF00FF00F000FAC
:104CB000000F000F000F000F000FF00FF00FF00FAC
:104CC000F00FF00FF00FF00F0000000000000000E8
:104CD0000000F00FF00FF00FF00FF00FF00FF00FDB
:104CE00000000000000000000000F00FF00FF00FC7
:104CF000F00FF00FF00FF00F0000000000000000B8
:104D00000000F00FF00FF00FF00FF00FF00FF00FAA
:104D1000F00F000000000000000000000000000094
:104D20000000000000000000000000000000000083
:104D300000000000000000000000F00FF00FF00F76
:104D4000F00FF00FF00FF00FF00FF00FF00FF00F6B
:104D5000F00FF00FF00FF00FF00FF00FF00FF00F5B
:104D6000F00F000F000F000F000F000F000F000FDB
:104D7000F00FF00F000F000F000F000F000F000FDB
:104D8000000F000F000F000F000F000F000F000FAB
:104D9000000F000F000F000F000F000F000F000F9B
:104DA000000F000F000F000F000F000F000F000F8B
:104DB000000FF00FF00F000F000F000F000F000F9B
:104DC000000FF00FF00FF00FF00FF00FF00FF00FDB
:104DD00000000000000000000000F00FF00FF00FD6
:104DE000F00FF00FF00FF00F0000000000000000C7
:104DF0000000F00FF00FF00FF00FF00FF00FF00FBA
:104E000000000000000000000000F00FF00FF00FA5
:104E1000F00FF00FF00FF00FF00F00000000000097
:104E20000000000000000000000000000000000082
:104E30000000000000000000000000000000F00F73
:104E4000F00FF00FF00FF00FF00FF00FF00FF00F6A
:104E5000F00FF00FF00FF00FF00FF00FF00FF00F5A
:104E6000F00FF00FF00FF00FF00F000F000F000F1A
:104E7000000F000F000F000FF00FF00F000F000FDA
:104E8000000F000F000F000F000F000F000F000FAA
:104E9000000F000F000F000F000F000F000F000F9A
:104EA000000F000F000F000F000F000F000F000F8A
:104EB000000F000F000F000F000FF00FF00F000F9A
:104EC000000F000F000F000F000FF00FF00FF00F9A
:104ED000F00FF00FF00FF00F0000000000000000D6
:104EE0000000F00FF00FF00FF00FF00FF00F0000C8
:104EF0000000000000000000F00FF00FF00FF00FB6
:104F0000F00FF00FF00FF00FF00F000000000000A6
:104F100000000000F00FF00FF00FF00FF00FF00F97
:104F2000F00F000000000000000000000000000082
:104F30000000000000000000000000000000000071
:104F4000F00FF00FF00FF00FF00FF00FF00FF00F69
:104F5000F00FF00FF00FF00FF00FF00FF00FF00F59
:104F6000F00FF00FF00FF00FF00FF00FF00FF00F49
:104F7000F00F000F000F000F000F000F000F000FC9
:104F8000F00FF00F000F000F000F000F000F000FC9
:104F9000000F000F000F000F000F000F000F000F99
:104FA000000F000F000F000F000F000F000F000F89
:104FB000000F000F000F000F000F000F000F000F79
:104FC000000FF00FF00F000F000F000F000F000F89
:104FD000000FF00FF00FF00FF00FF00FF00FF00FC9
:104FE00000000000000000000000F00FF00FF00FC4
:104FF000F00FF00FF00F00000000000000000000B4
:10500000F00FF00FF00FF00FF00FF00FF00FF00FA8
:10501000F00F00000000000000000000F00FF00F93
:10502000F00FF00FF00FF00FF00F00000000000085
:1050300000000000F00FF00FF00FF00FF00F000075
:10504000000000000000000000000000F00FF00F62
:10505000F00FF00FF00FF00FF00FF00FF00FF00F58
:10506000F00FF00FF00FF00FF00FF00FF00FF00F48
:10507000F00FF00FF00FF00FF00F000F000F000F08
:10508000000F000F000F000FF00FF00FF00FF00FE8
:10509000F00FF00FF00FF00FF00FF00FF00FF00F18
:1050A000F00FF00FF00FF00FF00FF00FF00FF00F08
:1050B000F00FF00FF00FF00FF00FF00FF00FF00FF8
:1050C000F00FF00FF00FF00FF00FF00FF00F000FD8
:1050D000000F000F000F000F000FF00FF00FF00F88
:1050E000F00FF00FF00FF00F0000000000000000C4
:1050F0000000F00FF00FF00FF00FF00FF00F0000B6
:10510000000000000000000000000000000000009F
:10511000000000000000000000000000000000008F
:1051200000000000F00FF00FF00FF00FF00FF00F85
:10513000F00F00000000000000000000F00FF00F72
:10514000F00FF00FF00FF00F000000000000000063
:10515000000000000000F00FF00FF00FF00FF00F54
:10516000F00FF00FF00FF00FF00FF00FF00FF00F47
:10517000F00FF00FF00FF00FF00FF00FF00FF00F37
:10518000F00FF00F000F000F000F000F000F000FC7
:10519000F00FF00FF00F000F000F000F000F000FC7
:1051A000000F000F000F000F000F000F000F000F87
:1051B000000F000F000F000F000F000F000F000F77
:1051C000000F000F000F000F000F000F000F000F67
:1051D000F00FF00F000F000F000F000F000F000F77
:1051E000F00FF00FF00FF00FF00FF00FF00FF00FC7
:1051F00000000000000000000000F00FF00FF00FB2
:10520000F00FF00F000000000000000000000000A0
:10521000000000000000000000000000000000008E
:105220000000000000000000000000000000F00F7F
:10523000F00FF00FF00FF00FF00F00000000000073
:1052400000000000F00FF00FF00FF00FF00FF00F64
:10525000F00F00000000000000000000000000004F
:10526000F00FF00FF00FF00FF00FF00FF00FF00F46
:10527000F00FF00FF00FF00FF00FF00FF00FF00F36
:10528000F00FF00FF00FF00FF00FF00F000F000F06
:10529000000F000F000F000F000FF00FF00FF00FC6
:1052A000000F000F000F000F000F000F000F000F86
:1052B000000F000F000F000F000F000F000F000F76
:1052C000000F000F000F000F000F000F000F000F66
:1052D000000F000F000FF00FF00F000F000F000F76
:1052E000000F000F000F000FF00FF00FF00FF00F86
:1052F000F00FF00FF00FF00F0000000000000000B2
:105300000000F00FF00FF00FF00FF00F00000000A2
:10531000000000000000000000000000000000008D
:10532000000000000000000000000000000000007D
:10533000000000000000F00FF00FF00FF00FF00F72
:10534000F00F00000000000000000000F00FF00F60
:10535000F00FF00FF00FF00FF00FF00F0000000053
:105360000000000000000000F00FF00FF00FF00F41
:10537000F00FF00FF00FF00FF00FF00FF00FF00F35
:10538000F00FF00FF00FF00FF00FF00FF00FF00F25
:10539000F00FF00F000F000F000F000F000F000FB5
:1053A000000F000FF00FF00F000F000F000F000FA5
:1053B000000F000F000F000F000F000F000F000F75
:1053C000000F000F000F000F000F000F000F000F65
:1053D000000F000F000F000F000F000F000FF00F65
:1053E000F00F000F000F000F000F000F000F000F55
:1053F000F00FF00FF00FF00FF00FF00FF00FF00FB5
:1054000000000000000000000000F00FF00FF00F9F
:10541000F00F00000000000000000000000000008D
:10542000000000000000000000000000000000007C
:10543000000000000000000000000000000000006C
:10544000F00FF00FF00FF00FF00F00000000000061
:1054500000000000F00FF00FF00FF00FF00FF00F52
:10546000F00FF00FF00F000000000000000000003F
:105470000000F00FF00FF00FF00FF00FF00FF00F33
:10548000F00FF00FF00FF00FF00FF00FF00FF00F24
:10549000F00FF00FF00FF00FF00FF00F000F000FF4
:1054A000000F000F000F000F000F000FF00FF00FA4
:1054B000F00FF00FF00FF00FF00FF00FF00FF00FF4
:1054C000F00FF00FF00FF00FF00FF00FF00FF00FE4
:1054D000F00FF00FF00FF00FF00FF00FF00FF00FD4
:1054E000F00FF00FF00FF00F000F000F000F000F84
:1054F000000F000F000F000FF00FF00FF00FF00F74
:10550000F00FF00FF00FF00F00000000000000009F
:105510000000F00FF00FF00FF00F0000000000008F
:1055200000000000F00FF00FF00FF00FF00FF00F81
:10553000F00FF00FF00FF00FF00FF00FF00F000072
:105540000000000000000000F00FF00FF00FF00F5F
:10555000F00F00000000000000000000F00FF00F4E
:10556000F00FF00FF00FF00FF00FF00FF00FF00F43
:1055700000000000000000000000F00FF00FF00F2E
:10558000F00FF00FF00FF00FF00FF00FF00FF00F23
:10559000F00FF00FF00FF00FF00FF00FF00FF00F13
:1055A000F00FF00FF00F000F000F000F000F000FB3
:1055B000000F000F000FF00FF00FF00F000F000FA3
:1055C000000F000F000F000F000F000F000F000F63
:1055D000000F000F000F000F000F000F000F000F53
:1055E000000F000F000F000F000FF00FF00FF00F73
:1055F000000F000F000F000F000F000F000FF00F43
:10560000F00FF00FF00FF00FF00FF00FF00FF00FA2
:1056100000000000000000000000F00FF00FF00F8D
:10562000F00F00000000000000000000F00FF00F7D
:10563000F00FF00FF00FF00FF00FF00FF00FF00F72
:10564000F00FF00FF00F000000000000000000005D
:10565000F00FF00FF00FF00FF00F0000000000004F
:1056600000000000F00FF00FF00FF00FF00FF00F40
:10567000F00FF00FF00FF00F00000000000000002E
:1056800000000000F00FF00FF00FF00FF00FF00F20
:10569000F00FF00FF00FF00FF00FF00FF00FF00F12
:1056A000F00FF00FF00FF00FF00FF00FF00F000FF2
:1056B000000F000F000F000F000F000F000F000F72
:1056C000F00FF00FF00F000F000F000F000F000F92
:1056D000000F000F000F000F000F000F000F000F52
:1056E000000F000F000F000F000F000F000F000F42
:1056F000F00FF00FF00F000F000F000F000F000F62
:10570000000F000F000FF00FF00FF00FF00FF00F71
:10571000F00FF00FF00FF00F00000000000000008D
:105720000000F00FF00FF00F00000000000000007C
:1057300000000000F00FF00FF00FF00FF00FF00F6F
:10574000F00FF00FF00FF00FF00FF00FF00F000060
:1057500000000000000000000000F00FF00FF00F4C
:10576000F00F00000000000000000000F00FF00F3C
:10577000F00FF00FF00FF00FF00FF00FF00FF00F31
:10578000F00F000000000000000000000000F00F1B
:10579000F00FF00FF00FF00FF00FF00FF00FF00F11
:1057A000F00FF00FF00FF00FF00FF00FF00FF00F01
:1057B000F00FF00FF00FF00F000F000F000F000FB1
:1057C000000F000F000F000F000FF00FF00FF00F91
:1057D000000F000F000F000F000F000F000F000F51
:1057E000000F000F000F000F000F000F000F000F41
:1057F000000F000F000FF00FF00FF00F000F000F61
:10580000000F000F000F000F000F000FF00FF00F40
:10581000F00FF00FF00FF00FF00FF00FF00FF00F90
:1058200000000000000000000000F00FF00FF00F7B
:1058300000000000000000000000F00FF00FF00F6B
:10584000F00FF00FF00FF00FF00FF00FF00FF00F60
:10585000F00FF00FF00FF00F00000000000000004C
:105860000000F00FF00FF00FF00F0000000000003C
:1058700000000000F00FF00FF00FF00FF00FF00F2E
:10588000F00FF00FF00FF00FF00FF00F000000001E
:10589000000000000000F00FF00FF00FF00FF00F0D
:1058A000F00FF00FF00FF00FF00FF00FF00FF00F00
:1058B000F00FF00FF00FF00FF00FF00FF00FF00FF0
:1058C000000F000F000F000F000F000F000F000F60
:1058D000000F000FF00FF00FF00FF00FF00FF00FB0
:1058E000F00FF00FF00FF00FF00FF00FF00FF00FC0
:1058F000F00FF00FF00FF00FF00FF00FF00FF00FB0
:10590000F00F000F000F000F000F000F000F000F2F
:10591000000F000FF00FF00FF00FF00FF00FF00F6F
:10592000F00FF00FF00FF00F00000000000000007B
:105930000000F00FF00FF00F00000000000000006A
:105940000000F00FF00FF00FF00FF00FF00FF00F5E
:10595000F00FF00FF00FF00FF00FF00FF00FF00F4F
:1059600000000000000000000000F00FF00FF00F3A
:10597000F00F00000000000000000000F00FF00F2A
:10598000F00FF00FF00FF00FF00FF00FF00FF00F1F
:10599000F00FF00F00000000000000000000000009
:1059A000F00FF00FF00FF00FF00FF00FF00FF00FFF
:1059B000F00FF00FF00FF00FF00FF00FF00FF00FEF
:1059C000F00FF00FF00FF00FF00F000F000F000FAF
:1059D000000F000F000F000F000F000F000FF00F5F
:1059E000F00FF00FF00FF00FF00FF00FF00FF00FBF
:1059F000F00FF00FF00FF00FF00FF00FF00FF00FAF
:105A0000F00FF00FF00F000F000F000F000F000F4E
:105A1000000F000F000F000F000FF00FF00FF00F3E
:105A2000F00FF00FF00FF00FF00FF00FF00FF00F7E
:105A300000000000000000000000F00FF00F000068
:105A40000000000000000000F00FF00FF00FF00F5A
:105A5000F00FF00FF00FF00FF00FF00FF00FF00F4E
:105A6000F00FF00FF00FF00F00000000000000003A
:105A700000000000F00FF00FF00F00000000000029
:105A800000000000F00FF00FF00FF00FF00FF00F1C
:105A9000F00FF00FF00FF00FF00FF00FF00F00000D
:105AA00000000000000000000000F00FF00FF00FF9
:105AB000F00FF00FF00FF00FF00FF00FF00FF00FEE
:105AC000F00FF00FF00FF00FF00FF00FF00FF00FDE
:105AD000F00FF00F000F000F000F000F000F000F6E
:105AE000000F000F000F000F000FF00FF00FF00F6E
:105AF000F00FF00FF00FF00FF00FF00FF00FF00FAE
:105B0000F00FF00FF00FF00FF00FF00F000F000F7D
:105B1000000F000F000F000F000F000F000F000F0D
:105B2000F00FF00FF00FF00FF00FF00FF00FF00F7D
:105B3000F00FF00FF00FF00FF00FF00FF00FF00F6D
:105B4000F00FF00FF00FF00FF00FF00FF00FF00F5D
:105B5000F00FF00FF00FF00FF00FF00FF00FF00F4D
:105B6000F00FF00FF00FF00FF00FF00FF00FF00F3D
:105B7000F00FF00FF00FF00FF00FF00FF00FF00F2D
:105B8000F00FF00FF00FF00FF00FF00FF00FF00F1D
:105B9000F00FF00FF00FF00FF00FF00FF00FF00F0D
:105BA000F00FF00FF00FF00FF00FF00FF00FF00FFD
:105BB000F00FF00FF00FF00FF00FF00FF00FF00FED
:105BC000F00FF00FF00FF00FF00FF00FF00FF00FDD
:105BD000F00FF00FF00FF00FF00FF00F000F000FAD
:105BE000000F000F000F000F000F000F000F000F3D
:105BF000000F000F000FF00FF00FF00FF00FF00F7D
:105C0000F00FF00FF00FF00FF00FF00FF00FF00F9C
:105C1000000F000F000F000F000F000F000F000F0C
:105C2000000F000F000F000FF00FF00FF00FF00F3C
:105C3000F00FF00FF00FF00FF00FF00FF00FF00F6C
:105C4000F00FF00FF00FF00FF00FF00FF00FF00F5C
:105C5000F00FF00FF00FF00FF00FF00FF00FF00F4C
:105C6000F00FF00FF00FF00FF00FF00FF00FF00F3C
:105C7000F00FF00FF00FF00FF00FF00FF00FF00F2C
:105C8000F00FF00FF00FF00FF00FF00FF00FF00F1C
:105C9000F00FF00FF00FF00FF00FF00FF00FF00F0C
:105CA000F00FF00FF00FF00FF00FF00FF00FF00FFC
:105CB000F00FF00FF00FF00FF00FF00FF00FF00FEC
:105CC000F00FF00FF00FF00FF00FF00FF00FF00FDC
:105CD000F00FF00FF00FF00FF00FF00FF00FF00FCC
:105CE000F00FF00FF00F000F000F000F000F000F6C
:105CF000000F000F000F000F000F000F000F000F2C
:105D0000000F000F000FF00FF00FF00FF00FF00F6B
:105D1000000F000F000F000F000F000F000F000F0B
:105D2000000F000F000F000F000F000F000FF00F0B
:105D3000F00FF00FF00FF00FF00FF00FF00FF00F6B
:105D4000F00FF00FF00FF00FF00FF00FF00FF00F5B
:105D5000F00FF00FF00FF00FF00FF00FF00FF00F4B
:105D6000F00FF00FF00FF00FF00FF00FF00FF00F3B
:105D7000F00FF00FF00FF00FF00FF00FF00FF00F2B
:105D8000F00FF00FF00FF00FF00FF00FF00FF00F1B
:105D9000F00FF00FF00FF00FF00FF00FF00FF00F0B
:105DA000F00FF00FF00FF00FF00FF00FF00FF00FFB
:105DB000F00FF00FF00FF00FF00FF00FF00FF00FEB
:105DC000F00FF00FF00FF00FF00FF00FF00FF00FDB
:105DD000F00FF00FF00FF00FF00FF00FF00FF00FCB
:105DE000F00FF00FF00FF00FF00FF00FF00FF00FBB
:105DF000000F000F000F000F000F000F000F000F2B
:105E0000000F000F000F000F000F000F000F000F1A
:105E1000000F000F000F000F000F000F000F000F0A
:105E2000000F000F000F000F000F000F000F000FFA
:105E3000000F000FF00FF00FF00FF00FF00FF00F4A
:105E4000F00FF00FF00FF00FF00FF00FF00FF00F5A
:105E5000F00FF00FF00FF00FF00FF00FF00FF00F4A
:105E6000F00FF00FF00FF00FF00FF00FF00FF00F3A
:105E7000F00FF00FF00FF00FF00FF00FF00FF00F2A
:105E8000F00FF00FF00FF00FF00FF00FF00FF00F1A
:105E9000F00FF00FF00FF00FF00FF00FF00FF00F0A
:105EA000F00FF00FF00FF00FF00FF00FF00FF00FFA
:105EB000F00FF00FF00FF00FF00FF00FF00FF00FEA
:105EC000F00FF00FF00FF00FF00FF00FF00FF00FDA
:105ED000F00FF00FF00FF00FF00FF00FF00FF00FCA
:105EE000F00FF00FF00FF00FF00FF00FF00FF00FBA
:105EF000F00FF00FF00FF00FF00F000F000F000F7A
:105F0000000F000F000F000F000F000F000F000F19
:105F1000000F000F000F000F000F000F000F000F09
:105F2000000F000F000F000F000F000F000F000FF9
:105F3000000F000F000F000F000FF00FF00FF00F19
:105F4000F00FF00FF00FF00FF00FF00FF00FF00F59
:105F5000F00FF00FF00FF00FF00FF00FF00FF00F49
:105F6000F00FF00FF00FF00FF00FF00FF00FF00F39
:105F7000F00FF00FF00FF00FF00FF00FF00FF00F29
:105F8000F00FF00FF00FF00FF00FF00FF00FF00F19
:105F9000F00FF00FF00FF00FF00FF00FF00FF00F09
:105FA000F00FF00FF00FF00FF00FF00FF00FF00FF9
:105FB000F00FF00FF00FF00FF00FF00FF00FF00FE9
:105FC000F00FF00FF00FF00FF00FF00FF00FF00FD9
:105FD000F00FF00FF00FF00FF00FF00FF00FF00FC9
:105FE000F00FF00FF00FF00FF00FF00FF00FF00FB9
:105FF000F00FF00FF00FF00FF00FF00FF00FF00FA9
:10600000F00FF00FF00F000F000F000F000F000F48
:10601000000F000F000F000F000F000F000F000F08
:10602000000F000F000F000F000F000F000F000FF8
:10603000000F000F000F000F000F000F000FF00FF8
:10604000F00FF00FF00FF00FF00FF00FF00FF00F58
:10605000F00FF00FF00FF00FF00FF00FF00FF00F48
:10606000F00FF00FF00FF00FF00FF00FF00FF00F38
:10607000F00FF00FF00FF00FF00FF00FF00FF00F28
:10608000F00FF00FF00FF00FF00FF00FF00FF00F18
:10609000F00FF00FF00FF00FF00FF00FF00FF00F08
:1060A000F00FF00FF00FF00FF00FF00FF00FF00FF8
:1060B000F00FF00FF00FF00FF00FF00FF00FF00FE8
:1060C000F00FF00FF00FF00FF00FF00FF00FF00FD8
:1060D000F00FF00FF00FF00FF00FF00FF00FF00FC8
:1060E000F00FF00FF00FF00FF00FF00FF00FF00FB8
:1060F000F00FF00FF00FF00FF00FF00FF00FF00FA8
:10610000F00FF00FF00FF00FF00FF00FF00FF00F97
:10611000000F000F000F000F000F000F000F000F07
:10612000000F000F000F000F000F000F000F000FF7
:10613000000F000F000F000F000F000F000F000FE7
:10614000000F000FF00FF00FF00FF00FF00FF00F37
:10615000F00FF00FF00FF00FF00FF00FF00FF00F47
:10616000F00FF00FF00FF00FF00FF00FF00FF00F37
:10617000F00FF00FF00FF00FF00FF00FF00FF00F27
:10618000F00FF00FF00FF00FF00FF00FF00FF00F17
:10619000F00FF00FF00FF00FF00FF00FF00FF00F07
:1061A000F00FF00FF00FF00FF00FF00FF00FF00FF7
:1061B000F00FF00FF00FF00FF00FF00FF00FF00FE7
:1061C000F00FF00FF00FF00FF00FF00FF00FF00FD7
:1061D000F00FF00FF00FF00FF00FF00FF00FF00FC7
:1061E000F00FF00FF00FF00FF00FF00FF00FF00FB7
:1061F000F00FF00FF00FF00FF00FF00FF00FF00FA7
:10620000F00FF00FF00FF00FF00FF00FF00FF00F96
:10621000F00FF00FF00FF00FF00FF00F000F000F66
:10622000000F000F000F000F000F000F000F000FF6
:10623000000F000F000F000F000F000F000F000FE6
:10624000000F000F000F000FF00FF00FF00FF00F16
:10625000F00FF00FF00FF00FF00FF00FF00FF00F46
:10626000F00FF00FF00FF00FF00FF00FF00FF00F36
:10627000F00FF00FF00FF00FF00FF00FF00FF00F26
:10628000F00FF00FF00FF00FF00FF00FF00FF00F16
:10629000F00FF00FF00FF00FF00FF00FF00FF00F06
:1062A000F00FF00FF00FF00FF00FF00FF00FF00FF6
:1062B000F00FF00FF00FF00FF00FF00FF00FF00FE6
:1062C000F00FF00FF00FF00FF00FF00FF00FF00FD6
:1062D000F00FF00FF00FF00FF00FF00FF00FF00FC6
:1062E000F00FF00FF00FF00FF00FF00FF00FF00FB6
:1062F000F00FF00FF00FF00FF00FF00FF00FF00FA6
:10630000F00FF00FF00FF00FF00FF00FF00FF00F95
:10631000F00FF00FF00FF00FF00FF00FF00FF00F85
:10632000F00FF00FF00F000F000F000F000F000F25
:10633000000F000F000F000F000F000F000F000FE5
:10634000000F000F000F000F000F000F000FF00FE5
:10635000F00FF00FF00FF00FF00FF00FF00FF00F45
:10636000F00FF00FF00FF00FF00FF00FF00FF00F35
:10637000F00FF00FF00FF00FF00FF00FF00FF00F25
:10638000F00FF00FF00FF00FF00FF00FF00FF00F15
:10639000F00FF00FF00FF00FF00FF00FF00FF00F05
:1063A000F00FF00FF00FF00FF00FF00FF00FF00FF5
:1063B000F00FF00FF00FF00FF00FF00FF00FF00FE5
:1063C000F00FF00FF00FF00FF00FF00FF00FF00FD5
:1063D000F00FF00FF00FF00FF00FF00FF00FF00FC5
:1063E000F00FF00FF00FF00FF00FF00FF00FF00FB5
:1063F000F00FF00FF00FF00FF00FF00FF00FF00FA5
:10640000F00FF00FF00FF00FF00FF00FF00FF00F94
:10641000F00FF00FF00FF00FF00FF00FF00FF00F84
:10642000F00FF00FF00FF00FF00FF00FF00FF00F74
:10643000F00FF00FF00FF00F000F000F000F000F24
:10644000000F000F000F000F000F000FF00FF00FF4
:10645000F00FF00FF00FF00FF00FF00FF00FF00F44
:10646000F00FF00FF00FF00FF00FF00FF00FF00F34
:10647000F00FF00FF00FF00FF00FF00FF00FF00F24
:10648000F00FF00FF00FF00FF00FF00FF00FF00F14
:10718000F00FF00FF00FF00FF00F00000000000004
:107190000000000000000000F00FF00FF00FF00FF3
:1071A000F00FF00FF00FF00FF00FF00FF00FF00FE7
:1071B000F00FF00FF00FF00FF00FF00FF00FF00FD7
:1071C000F00FF00FF00FF00FF00FF00FF00FF00FC7
:1071D000F00FF00FF00FF00FF00FF00FF00FF00FB7
:1071E000F00FF00FF00FF00FF00FF00FF00F0000A6
:1071F000F00FF00FF00FF00FF00FF00FF00FF00F97
:10720000F00FF00FF00FF00FF00FF00FF00FF00F86
:10721000F00FF00FF00FF00FF00FF00FF00FF00F76
:10722000F00FF00FF00FF00FF00FF00FF00FF00F66
:10723000F00FF00FF00FF00FF00FF00FF00FF00F56
:10724000F00FF00FF00FF00FF00FF00FF00FF00F46
:10725000F00FF00FF00FF00FF00FF00FF00FF00F36
:10726000F00FF00FF00FF00FF00FF00FF00FF00F26
:10727000F00FF00FF00FF00FF00FF00FF00FF00F16
:10728000F00FF00FF00FF00FF00FF00FF00F000005
:1072900000000000000000000000000000000000EE
:1072A00000000000F00FF00FF00FF00FF00FF00FE4
:1072B000F00FF00FF00FF00FF00FF00FF00FF00FD6
:1072C000F00FF00FF00FF00FF00FF00FF00FF00FC6
:1072D000F00FF00FF00FF00FF00FF00FF00FF00FB6
:1072E000F00FF00FF00FF00FF00FF00FF00FF00FA6
:1072F000F00F000000000000F00FF00FF00FF00F93
:10730000F00FF00FF00FF00FF00FF00FF00FF00F85
:10731000F00FF00FF00FF00FF00FF00FF00FF00F75
:10732000F00FF00FF00FF00FF00FF00FF00FF00F65
:10733000F00FF00FF00FF00FF00FF00FF00FF00F55
:10734000F00FF00FF00FF00FF00FF00FF00FF00F45
:10735000F00FF00FF00FF00FF00FF00FF00FF00F35
:10736000F00FF00FF00FF00FF00FF00FF00FF00F25
:10737000F00FF00FF00FF00FF00FF00FF00FF00F15
:10738000F00FF00FF00FF00FF00FF00FF00FF00F05
:10739000F00FF00F000000000000000000000000EF
:1073A0000000000000000000000000000000F00FDE
:1073B000F00FF00FF00FF00FF00FF00FF00FF00FD5
:1073C000F00FF00FF00FF00FF00FF00FF00FF00FC5
:1073D000F00FF00FF00FF00FF00FF00FF00FF00FB5
:1073E000F00FF00FF00FF00FF00FF00FF00FF00FA5
:1073F000F00FF00FF00FF00F000000000000000091
:10740000F00FF00FF00FF00FF00FF00FF00FF00F84
:10741000F00FF00FF00FF00FF00FF00FF00FF00F74
:10742000F00FF00FF00FF00FF00FF00FF00FF00F64
:10743000F00FF00FF00FF00FF00FF00FF00FF00F54
:10744000F00FF00FF00FF00FF00FF00FF00FF00F44
:10745000F00FF00FF00FF00FF00FF00FF00FF00F34
:10746000F00FF00FF00FF00FF00FF00FF00FF00F24
:10747000F00FF00FF00FF00FF00FF00FF00FF00F14
:10748000F00FF00FF00FF00FF00FF00FF00FF00F04
:10749000F00FF00FF00FF00FF00F000000000000F1
:1074A00000000000000000000000000000000000DC
:1074B000000000000000F00FF00FF00FF00FF00FD1
:1074C000F00FF00FF00FF00FF00FF00FF00FF00FC4
:1074D000F00FF00FF00FF00FF00FF00FF00FF00FB4
:1074E000F00FF00FF00FF00FF00FF00FF00FF00FA4
:1074F000F00FF00FF00FF00FF00FF00FF00FF00F94
:107500000000000000000000F00FF00FF00FF00F7F
:10751000F00FF00FF00FF00FF00FF00FF00FF00F73
:10752000F00FF00FF00FF00FF00FF00FF00FF00F63
:10753000F00FF00FF00FF00FF00FF00FF00FF00F53
:10754000F00FF00FF00FF00FF00FF00FF00FF00F43
:10755000F00FF00FF00FF00FF00FF00FF00FF00F33
:10756000F00FF00FF00FF00FF00FF00FF00FF00F23
:10757000F00FF00FF00FF00FF00FF00FF00FF00F13
:10758000F00FF00FF00FF00FF00FF00FF00FF00F03
:10759000F00FF00FF00FF00FF00FF00FF00FF00FF3
:1075A000F00F00000000000000000000F00FF00FDE
:1075B000F00FF00FF00F00000000000000000000CE
:1075C000F00FF00FF00FF00FF00FF00FF00FF00FC3
:1075D000F00FF00FF00FF00FF00FF00FF00FF00FB3
:1075E000F00FF00FF00FF00FF00FF00FF00FF00FA3
:1075F000F00FF00FF00FF00FF00FF00FF00FF00F93
:10760000F00FF00FF00FF00F00000000000000007E
:10761000F00FF00FF00FF00FF00FF00FF00FF00F72
:10762000F00FF00FF00FF00FF00FF00FF00FF00F62
:10763000F00FF00FF00FF00FF00FF00FF00FF00F52
:10764000F00FF00FF00FF00FF00FF00FF00FF00F42
:10765000F00FF00FF00FF00FF00FF00FF00FF00F32
:10766000F00FF00FF00FF00FF00FF00FF00FF00F22
:10767000F00FF00FF00FF00FF00FF00FF00FF00F12
:10768000F00FF00FF00FF00FF00FF00FF00FF00F02
:10769000F00FF00FF00FF00FF00FF00FF00FF00FF2
:1076A000F00FF00FF00FF00FF00F000000000000DF
:1076B0000000F00FF00FF00FF00FF00FF00FF00FD1
:1076C0000000000000000000F00FF00FF00F0000BD
:1076D000000000000000F00FF00FF00FF00FF00FAF
:1076E000F00FF00F0000000000000000F00FF00F9E
:1076F000F00FF00FF00F000000000000000000008D
:107700000000F00FF00FF00FF00FF00F000000007E
:107710000000000000000000000000000000F00F6A
:10772000F00FF00FF00FF00FF00F0000000000005E
:10773000000000000000F00FF00FF00FF00FF00F4E
:10774000F00FF00F0000000000000000F00FF00F3D
:1077500000000000000000000000F00FF00FF00F2C
:10776000F00F00000000000000000000F00FF00F1C
:10777000F00FF00FF00FF00FF00FF00FF00F000010
:1077800000000000000000000000F00FF00FF00FFC
:10779000F00FF00FF00FF00FF00FF00FF00FF00FF1
:1077A000F00FF00FF00FF00FF00FF00FF00FF00FE1
:1077B000F00F00000000000000000000F00FF00FCC
:1077C000F00FF00FF00FF00FF00FF00FF00FF00FC1
:1077D000F00FF00FF00F0000000000000000F00FAD
:1077E000F00FF00FF00FF00FF00FF00F000000009F
:1077F00000000000F00FF00FF00F0000000000008C
:107800000000000000000000000000000000F00F79
:10781000F00FF00F0000000000000000000000006A
:10782000000000000000F00FF00FF00FF00FF00F5D
:107830000000000000000000000000000000000048
:10784000F00FF00FF00FF00FF00FF00F000000003E
:1078500000000000F00F0000000000000000000029
:1078600000000000F00F0000000000000000000019
:10787000000000000000F00FF00FF00FF00FF00F0D
:10788000F00F0000000000000000000000000000F9
:10789000000000000000F00FF00FF00FF00FF00FED
:1078A000F00FF00FF00FF00FF00FF00FF00FF00FE0
:1078B000F00FF00FF00FF00FF00F000000000000CD
:1078C0000000000000000000F00FF00FF00FF00FBC
:1078D000F00FF00FF00FF00FF00FF00FF00FF00FB0
:1078E0000000000000000000F00FF00FF00FF00F9C
:1078F000F00F0000000000000000F00FF00FF00F8C
:10790000F00F000000000000000000000000000078
:107910000000000000000000F00FF00F0000000069
:107920000000000000000000000000000000F00F58
:10793000F00FF00FF00F000000000000000000004A
:1079400000000000000000000000F00FF00FF00F3A
:10795000F00FF00F00000000000000000000000029
:107960000000000000000000000000000000000017
:107970000000000000000000000000000000F00F08
:10798000F00FF00FF00FF00FF00F000000000000FC
:1079900000000000000000000000000000000000E7
:1079A000F00FF00FF00FF00FF00FF00FF00FF00FDF
:1079B000F00FF00FF00FF00FF00FF00FF00FF00FCF
:1079C000F00FF00F000000000000000000000000B9
:1079D0000000000000000000F00FF00FF00FF00FAB
:1079E000F00FF00FF00FF00F00000000000000009B
:1079F000F00FF00FF00FF00FF00F0000000000008C
:107A00000000F00FF00FF00F000000000000000079
:107A1000F00FF00FF00FF00F00000000000000006A
:107A20000000F00FF00FF00F000000000000000059
:107A3000F00FF00FF00FF00FF00FF00F000000004C
:107A400000000000F00FF00FF00FF00F000000003A
:107A500000000000F00FF00FF00FF00F000000002A
:107A6000000000000000F00FF00FF00F0000000019
:107A70000000000000000000F00FF00FF00F000009
:107A80000000000000000000F00FF00FF00FF00FFA
:107A90000000000000000000F00FF00FF00FF00FEA
:107AA00000000000000000000000F00FF00FF00FD9
:107AB000F00FF00FF00FF00FF00FF00FF00FF00FCE
:107AC000F00FF00FF00FF00FF00FF00FF00F0000BD
:107AD00000000000000000000000000000000000A6
:107AE00000000000F00FF00FF00FF00FF00FF00F9C
:107AF0000000000000000000F00FF00FF00FF00F8A
:107B0000F00F0000000000000000F00FF00FF00F79
:107B10000000000000000000F00FF00FF00FF00F69
:107B2000F00F00000000F00FF00FF00FF00FF00F5B
:107B30000000000000000000F00FF00FF00FF00F49
:107B4000F00FF00F000000000000F00FF00FF00F3A
:107B5000F00FF00FF00F000000000000F00FF00F2A
:107B6000F00FF00F00000000000000000000F00F18
:107B7000F00FF00FF00F0000000000000000000008
:107B8000F00FF00FF00FF00F0000000000000000F9
:107B9000F00FF00FF00FF00F0000000000000000E9
:107BA000F00FF00FF00FF00FF00F00000000F00FDB
:107BB000F00FF00FF00FF00FF00FF00FF00FF00FCD
:107BC000F00FF00FF00FF00FF00FF00FF00FF00FBD
:107BD000F00FF00FF00FF00F0000000000000000A9
:107BE0000000000000000000000000000000F00F96
:107BF000F00FF00FF00FF00FF00F0000000000008A
:107C0000F00FF00FF00FF00FF00F00000000000079
:107C1000F00FF00FF00FF00F000000000000000068
:107C20000000F00FF00FF00FF00FF00FF00FF00F5B
:107C3000F00FF00FF00FF00F000000000000000048
:107C4000F00FF00FF00FF00FF00F00000000000039
:107C50000000F00FF00FF00FF00FF00FF00F00002A
:107C6000000000000000F00FF00FF00F0000000017
:107C700000000000F00FF00FF00FF00FF00F000009
:107C8000000000000000F00FF00FF00FF00FF00FF9
:107C90000000000000000000F00FF00FF00FF00FE8
:107CA00000000000000000000000F00FF00FF00FD7
:107CB000F00FF00FF00FF00FF00FF00FF00FF00FCC
:107CC000F00FF00FF00FF00FF00FF00FF00FF00FBC
:107CD000F00FF00FF00FF00FF00FF00FF00FF00FAC
:107CE000F00FF00F00000000000000000000000096
:107CF0000000000000000000F00FF00FF00FF00F88
:107D0000F00F0000000000000000F00FF00FF00F77
:107D10000000000000000000F00FF00FF00FF00F67
:107D2000F00F000000000000000000000000000054
:107D3000F00FF00FF00FF00FF00FF00FF00FF00F4B
:107D40000000000000000000F00FF00FF00FF00F37
:107D5000F00F000000000000000000000000000024
:107D60000000000000000000000000000000F00F14
:107D7000F00FF00F0000000000000000F00FF00F07
:107D8000F00FF00FF00F0000000000000000F00FF7
:107D9000F00FF00FF00FF00F0000000000000000E7
:107DA000F00FF00FF00FF00FF00F000000000000D8
:107DB0000000000000000000F00FF00FF00FF00FC7
:107DC000F00FF00FF00FF00FF00FF00FF00FF00FBB
:107DD000F00FF00FF00FF00FF00FF00FF00FF00FAB
:107DE000F00FF00FF00FF00FF00FF00FF00FF00F9B
:107DF000F00FF00F00000000000000000000000085
:107E00000000F00FF00FF00FF00F00000000000076
:107E10000000F00FF00FF00F000000000000000065
:107E2000F00FF00FF00FF00FF00F00000000000057
:107E3000000000000000000000000000F00FF00F44
:107E4000F00FF00FF00FF00F000000000000000036
:107E5000F00FF00FF00FF00FF00F00000000000027
:107E60000000000000000000000000000000000012
:107E7000000000000000F00FF00FF00F0000000005
:107E800000000000F00FF00FF00FF00FF00F0000F7
:107E9000000000000000F00FF00FF00FF00FF00FE7
:107EA0000000000000000000F00FF00FF00FF00FD6
:107EB000F00F0000000000000000000000000000C3
:107EC00000000000F00FF00FF00FF00FF00FF00FB8
:107ED000F00FF00FF00FF00FF00FF00FF00FF00FAA
:107EE000F00FF00FF00FF00FF00FF00FF00FF00F9A
:107EF000F00FF00FF00FF00FF00FF00FF00FF00F8A
:107F000000000000000000000000F00FF00FF00F74
:107F1000F00FF00F000000000000F00FF00FF00F66
:107F2000000000000000F00FF00FF00FF00FF00F56
:107F3000F00FF00FF00F0000000000000000000044
:107F40000000000000000000F00FF00FF00FF00F35
:107F50000000000000000000F00FF00FF00FF00F25
:107F6000F00F000000000000000000000000000012
:107F70000000000000000000000000000000F00F02
:107F8000F00FF00F0000000000000000F00FF00FF5
:107F9000F00FF00FF00F0000000000000000F00FE5
:107FA000F00FF00FF00FF00F0000000000000000D5
:107FB000F00FF00FF00FF00FF00FF00FF00F0000C8
:107FC00000000000000000000000000000000000B1
:107FD000F00FF00FF00FF00FF00FF00FF00FF00FA9
:107FE000F00FF00FF00FF00FF00FF00FF00FF00F99
:107FF0000000000000000000F00FF00FF00FF00F85
:10800000F00FF00FF00FF00FF00F00000000000075
:108010000000F00FF00FF00FF00FF00F0000000065
:1080200000000000F00F0000000000000000F00F52
:10803000F00FF00FF00FF00FF00FF00FF00FF00F48
:10804000F00FF00F00000000000000000000000032
:10805000F00FF00FF00FF00F000000000000000024
:10806000F00FF00FF00FF00FF00F00000000000015
:108070000000F00FF00FF00FF00FF00FF00FF00F07
:10808000F00FF00FF00FF00FF00FF00F00000000F6
:1080900000000000F00FF00FF00FF00FF00F0000E5
:1080A000000000000000F00FF00FF00FF00FF00FD5
:1080B0000000000000000000F00FF00FF00FF00FC4
:1080C000F00FF00FF00FF00FF00FF00F00000000B6
:1080D0000000000000000000F00FF00FF00FF00FA4
:1080E000F00FF00FF00FF00FF00FF00FF00FF00F98
:1080F000F00FF00FF00FF00F000000000000000084
:108100000000F00FF00FF00FF00FF00FF00FF00F76
:10811000F00F0000000000000000F00FF00FF00F63
:10812000F00FF00FF00F000000000000F00F000053
:10813000000000000000F00FF00FF00FF00FF00F44
:10814000F00FF00FF00FF00FF00FF00FF00FF00F37
:1081500000000000000000000000F00FF00FF00F22
:108160000000000000000000F00FF00FF00FF00F13
:10817000F00F0000000000000000F00FF00FF00F03
:10818000F00FF00FF00FF00FF00FF00FF00FF00FF7
:10819000F00FF00F0000000000000000F00FF00FE3
:1081A000F00FF00FF00F0000000000000000F00FD3
:1081B000F00FF00FF00FF00F0000000000000000C3
:1081C000F00FF00FF00FF00FF00FF00FF00FF00FB7
:1081D000F00FF00FF00FF00F0000000000000000A3
:1081E0000000F00FF00FF00FF00FF00FF00FF00F96
:1081F000F00FF00FF00FF00FF00FF00FF00FF00F87
:10820000F00F00000000000000000000F00FF00F71
:10821000F00FF00FF00FF00F000000000000000062
:108220000000F00FF00FF00FF00FF00FF00F000054
:1082300000000000F00F000000000000F00FF00F41
:10824000F00FF00FF00FF00FF00F00000000F00F34
:10825000F00FF00FF00FF00FF00F00000000000023
:108260000000F00FF00FF00F000000000000000011
:10827000F00FF00FF00FF00FF00FF00F0000000004
:1082800000000000F00FF00FF00FF00FF00FF00FF4
:10829000F00FF00FF00FF00FF00FF00F00000000E4
:1082A00000000000F00FF00FF00FF00FF00F0000D3
:1082B000000000000000F00FF00FF00FF00FF00FC3
:1082C0000000000000000000F00FF00FF00FF00FB2
:1082D000F00F00000000F00FF00FF00FF00FF00FA4
:1082E000F00F0000000000000000F00FF00FF00F92
:1082F000F00FF00FF00FF00FF00FF00FF00FF00F86
:10830000F00FF00FF00FF00FF00F00000000000072
:10831000000000000000000000000000000000005D
:108320000000000000000000F00FF00FF00FF00F51
:10833000F00FF00FF00F0000000000000000000040
:1083400000000000F00FF00FF00FF00FF00F000032
:108350000000000000000000F00FF00FF00FF00F21
:10836000F00F0000000000000000F00FF00FF00F11
:108370000000000000000000F00FF00FF00FF00F01
:10838000F00FF00F00000000000000000000F00FF0
:10839000F00FF00FF00F00000000F00FF00FF00FE3
:1083A000F00FF00F0000000000000000F00FF00FD1
:1083B000F00FF00FF00F0000000000000000F00FC1
:1083C000F00FF00FF00FF00F0000000000000000B1
:1083D000F00FF00FF00F00000000000000000000A0
:1083E000F00FF00FF00FF00FF00F00000000000092
:1083F0000000F00FF00FF00FF00FF00FF00FF00F84
:10840000F00FF00FF00FF00FF00FF00FF00FF00F74
:10841000F00FF00F0000000000000000000000005E
:10842000000000000000000000000000000000004C
:10843000F00FF00FF00FF00FF00FF00FF00FF00F44
:1084400000000000000000000000F00FF00FF00F2F
:10845000F00FF00FF00FF00F000000000000000020
:10846000000000000000000000000000000000000C
:10847000F00FF00FF00FF00F000000000000000000
:10848000000000000000F00FF00FF00FF00F0000F0
:1084900000000000000000000000000000000000DC
:1084A000000000000000F00FF00FF00F00000000CF
:1084B00000000000F00FF00FF00FF00FF00F0000C1
:1084C000000000000000F00FF00FF00FF00FF00FB1
:1084D0000000000000000000F00FF00FF00FF00FA0
:1084E000000000000000000000000000000000008C
:1084F0000000000000000000F00FF00FF00FF00F80
:10850000F00FF00FF00FF00FF00FF00FF00FF00F73
:10851000F00FF00FF00FF00FF00FF00FF00F000062
:10852000000000000000000000000000000000004B
:10853000000000000000F00FF00FF00FF00FF00F40
:10854000F00FF00FF00FF00F00000000000000002F
:108550000000F00FF00FF00FF00FF00FF00FF00F22
:10856000F00F00000000000000000000000000000C
:108570000000000000000000F00FF00FF00FF00FFF
:10858000F00F000000000000000000000000F00FED
:10859000F00FF00FF00FF00F0000000000000000DF
:1085A000000000000000000000000000F00FF00FCD
:1085B000F00FF00F0000000000000000F00FF00FBF
:1085C000F00FF00FF00F0000000000000000F00FAF
:1085D000F00FF00FF00FF00F00000000000000009F
:1085E000F00FF00FF00FF00FF00F00000000000090
:1085F000000000000000000000000000000000007B
:10860000F00FF00FF00FF00FF00FF00FF00FF00F72
:10861000F00FF00FF00FF00FF00FF00FF00FF00F62
:10862000F00FF00FF00FF00FF00F0000000000004F
:108630000000000000000000F00FF00FF00FF00F3E
:10864000F00FF00FF00FF00FF00FF00FF00FF00F32
:1086500000000000000000000000F00FF00FF00F1D
:10866000F00FF00FF00FF00FF00FF00FF00F000011
:10867000000000000000000000000000F00FF00FFC
:10868000F00FF00FF00FF00FF00FF00F00000000F0
:10869000000000000000F00FF00FF00FF00FF00FDF
:1086A000F00F0000000000000000000000000000CB
:1086B000F00FF00FF00FF00FF00FF00F00000000C0
:1086C00000000000F00FF00FF00FF00FF00F0000AF
:1086D000000000000000F00FF00FF00FF00FF00F9F
:1086E0000000000000000000F00FF00FF00FF00F8E
:1086F000F00FF00FF00F000000000000000000007D
:1087000000000000F00FF00FF00FF00FF00FF00F6F
:10871000F00FF00FF00FF00FF00FF00FF00FF00F61
:10872000F00FF00FF00FF00FF00FF00FF00FF00F51
:10873000F00FF00FF00FF00FF00FF00FF00FF00F41
:10874000F00FF00FF00FF00FF00FF00FF00FF00F31
:10875000F00FF00FF00FF00F00000000000000001D
:10876000F00FF00FF00FF00FF00FF00FF00FF00F11
:10877000F00FF00FF00FF00FF00FF00FF00FF00F01
:10878000F00FF00FF00FF00FF00FF00FF00FF00FF1
:10879000F00FF00FF00FF00FF00FF00FF00FF00FE1
:1087A000F00FF00FF00FF00FF00FF00FF00FF00FD1
:1087B000F00FF00FF00FF00FF00FF00FF00FF00FC1
:1087C000F00FF00FF00FF00FF00FF00FF00FF00FB1
:1087D000F00FF00FF00FF00FF00FF00FF00FF00FA1
:1087E000F00FF00FF00FF00FF00FF00FF00FF00F91
:1087F000F00FF00FF00FF00FF00FF00FF00FF00F81
:10880000F00FF00FF00FF00FF00FF00FF00FF00F70
:10881000F00FF00FF00FF00FF00FF00FF00FF00F60
:10882000F00FF00FF00FF00FF00FF00FF00FF00F50
:10883000F00FF00FF00FF00FF00FF00FF00FF00F40
:10884000F00FF00FF00FF00FF00FF00FF00FF00F30
:10885000F00FF00FF00FF00FF00FF00FF00FF00F20
:108860000000000000000000F00FF00FF00FF00F0C
:10887000F00FF00FF00FF00FF00FF00FF00FF00F00
:10888000F00FF00FF00FF00FF00FF00FF00FF00FF0
:10889000F00FF00FF00FF00FF00FF00FF00FF00FE0
:1088A000F00FF00FF00FF00FF00FF00FF00FF00FD0
:1088B000F00FF00FF00FF00FF00FF00FF00FF00FC0
:1088C000F00FF00FF00FF00FF00FF00FF00FF00FB0
:1088D000F00FF00FF00FF00FF00FF00FF00FF00FA0
:1088E000F00FF00FF00FF00FF00FF00FF00FF00F90
:1088F000F00FF00FF00FF00FF00FF00FF00FF00F80
:10890000F00FF00FF00FF00FF00FF00FF00FF00F6F
:10891000F00FF00FF00FF00FF00FF00FF00FF00F5F
:10892000F00FF00FF00FF00FF00FF00FF00FF00F4F
:10893000F00FF00FF00FF00FF00FF00FF00FF00F3F
:10894000F00FF00FF00FF00FF00FF00FF00FF00F2F
:10895000F00FF00FF00FF00FF00FF00FF00FF00F1F
:10896000F00FF00FF00F000000000000000000000A
:10897000F00FF00FF00FF00FF00FF00FF00FF00FFF
:10898000F00FF00FF00FF00FF00FF00FF00FF00FEF
:10899000F00FF00FF00FF00FF00FF00FF00FF00FDF
:1089A000F00FF00FF00FF00FF00FF00FF00FF00FCF
:1089B000F00FF00FF00FF00FF00FF00FF00FF00FBF
:1089C000F00FF00FF00FF00FF00FF00FF00FF00FAF
:1089D000F00FF00FF00FF00FF00FF00FF00FF00F9F
:1089E000F00FF00FF00FF00FF00FF00FF00FF00F8F
:1089F000F00FF00FF00FF00FF00FF00FF00FF00F7F
:108A0000F00FF00FF00FF00FF00FF00FF00FF00F6E
:108A1000F00FF00FF00FF00FF00FF00FF00FF00F5E
:108A2000F00FF00FF00FF00FF00FF00FF00FF00F4E
:108A3000F00FF00FF00FF00FF00FF00FF00FF00F3E
:108A4000F00FF00FF00FF00FF00FF00FF00FF00F2E
:108A5000F00FF00FF00FF00FF00FF00FF00FF00F1E
:108A6000F00FF00FF00FF00F00000000000000000A
:108A7000000000000000F00FF00FF00FF00FF00FFB
:108A8000F00FF00FF00FF00FF00FF00FF00FF00FEE
:108A9000F00FF00FF00FF00FF00FF00FF00FF00FDE
:108AA000F00FF00FF00FF00FF00FF00FF00FF00FCE
:108AB000F00FF00FF00FF00FF00FF00FF00FF00FBE
:108AC000F00FF00FF00FF00FF00FF00FF00FF00FAE
:108AD000F00FF00FF00FF00FF00FF00FF00FF00F9E
:108AE000F00FF00FF00FF00FF00FF00FF00FF00F8E
:108AF000F00FF00FF00FF00FF00FF00FF00FF00F7E
:108B0000F00FF00FF00FF00FF00FF00FF00FF00F6D
:108B1000F00FF00FF00FF00FF00FF00FF00FF00F5D
:108B2000F00FF00FF00FF00FF00FF00FF00FF00F4D
:108B3000F00FF00FF00FF00FF00FF00FF00FF00F3D
:108B4000F00FF00FF00FF00FF00FF00FF00FF00F2D
:108B5000F00FF00FF00FF00FF00FF00FF00FF00F1D
:108B6000F00FF00FF00FF00FF00FF00FF00FF00F0D
:108B7000000000000000000000000000F00FF00FF7
:108B8000F00FF00FF00FF00FF00FF00FF00FF00FED
:108B9000F00FF00FF00FF00FF00FF00FF00FF00FDD
:108BA000F00FF00FF00FF00FF00FF00FF00FF00FCD
:108BB000F00FF00FF00FF00FF00FF00FF00FF00FBD
:108BC000F00FF00FF00FF00FF00FF00FF00FF00FAD
:108BD000F00FF00FF00FF00FF00FF00FF00FF00F9D
:108BE000F00FF00FF00FF00FF00FF00FF00FF00F8D
:108BF000F00FF00FF00FF00FF00FF00FF00FF00F7D
:108C0000F00FF00FF00FF00FF00FF00FF00FF00F6C
:108C1000F00FF00FF00FF00FF00FF00FF00FF00F5C
:108C2000F00FF00FF00FF00FF00FF00FF00FF00F4C
:108C3000F00FF00FF00FF00FF00FF00FF00FF00F3C
:108C4000F00FF00FF00FF00FF00FF00FF00FF00F2C
:108C5000F00FF00FF00FF00FF00FF00FF00FF00F1C
:108C6000F00FF00FF00FF00FF00FF00FF00FF00F0C
:108C7000F00FF00FF00FF00F0000000000000000F8
:108C80000000F00FF00FF00FF00FF00FF00FF00FEB
:108C9000F00FF00FF00FF00FF00FF00FF00FF00FDC
:108CA000F00FF00FF00FF00FF00FF00FF00FF00FCC
:108CB000F00FF00FF00FF00FF00FF00FF00FF00FBC
:108CC000F00FF00FF00FF00FF00FF00FF00FF00FAC
:10A9200038B50400DFF880050500102C01D3312C68
:10A9300008D34222DFF87415DFF8740501F0E7FC54
:10A9400001F0E4FC103C600915EB8005286801214A
:10A950002022B4FBF2F303FB124399400843286022
:10A9600031BD38B50400DFF84C050500102C01D3CB
:10A97000312C08D36C22DFF83415DFF8340501F0F0
:10A98000C6FC01F0C3FC103C600915EB800528688B
:10A9900001212022B4FBF2F303FB12439940084348
:10A9A000286031BD80B5DFF81005012101605FF03E
:10A9B0004020006850F001005FF040210860112045
:10A9C000FFF7CFFF01BDDFF8F404016821F01001AB
:10A9D0000160DFF8E804006850F02000DFF8DC14C4
:10A9E0000860DFF8D80400684006FAD5DFF8D00424
:10A9F000016821F002010160DFF8C804AA210160AA
:10AA0000DFF8C00455210160DFF8B404016821F0CB
:10AA100001010160DFF8AC04AA210160DFF8A404A1
:10AA200055210160DFF8A00400688008800050F024
:10AA30000100DFF894140860DFF890040068C00B90
:10AA4000C00350F01800DFF884140860DFF87C04BD
:10AA5000006830F47F0050F48030DFF87014086034
:10AA6000DFF86004AA210160DFF858045521016075
:10AA7000DFF84C04006850F00100DFF8441408606F
:10AA8000DFF84004AA210160DFF838045521016095
:10AA9000DFF83C0400684001FAD5DFF838040221F1
:10AAA00001600020DFF830140860DFF8301408601F
:10AAB000DFF80C04006850F00200DFF804140860AE
:10AAC000DFF80004AA210160DFF8F80355210160D6
:10AAD00070470020DFF808140860DFF808140860E9
:10AAE000DFF804140860DFF804140860DFF80014CD
:10AAF00008600020DFF8FC130860DFF8FC13086032
:10AB0000DFF8F8130860DFF8F8130860DFF8F413D3
:10AB100008600020DFF8F0130860DFF8F013086029
:10AB2000DFF8EC130860DFF8EC130860DFF8E813D7
:10AB30000860DFF8E8130860DFF8E4130860DFF866
:10AB4000E4130860DFF8E0130860704710B40124D4
:10AB5000210001242200DFF878432468A4010DD5E8
:10AB6000DFF86C4324686404640C641C2100DFF883
:10AB700060432468C4F30744641C2200DFF84843A0
:10AB8000246814F00304002C03D0022C09D004D351
:10AB90000BE0DFF89843230009E0DFF8944323003B
:10ABA00005E04FF40044230001E00024230001FBF2
:10ABB00003F464002000DFF81C432468641C04FBD9
:10ABC00002F4B0FBF4F010BC704770B50400202C08
:10ABD00002D2DFF8086301E0DFF8FC6214F01F0422
:10ABE000FFF7B4FF05003068E04010F003000028D4
:10ABF00003D0022804D002D304E0AD0803E002E051
:10AC00006D0800E0ED08280070BD82B00190019948
:10AC100000290DD04FF4FA7100910099002903D05A
:10AC20000099491E0091F8E70199491E0191EEE74C
:10AC300002B07047F0B5CBB03C2004003C200500CA
:10AC4000BC4845F23A010160FFF7BDFEFFF741FF46
:10AC5000A748016821F400010160A348016821F4BC
:10AC600000510160AD48006850F04040AB490860B9
:10AC7000B14800688000800850F00040AE4908608C
:10AC8000AE48006850F48050AC490860AC4E1820C3
:10AC9000FFF79BFFAB49B0FBF1F0401C316860F35C
:10ACA0000F213160A6480068000A000250F0200021
:10ACB000A3490860A44800210160A148006850F43D
:10ACC00000109F4908609E48006830F0E06050F036
:10ACD00080709B4908609948006850F002009749CD
:10ACE00008609A48016821F00101016097480068F6
:10ACF00050F00200954908609448016821F0020173
:10AD0000016093480068800880009149086091487C
:10AD1000006850F001008F4908608E48006850F0CC
:10AD200002008C4908608B48016821F00401016031
:10AD30008948002101600220FFF747FF1921B0FB7D
:10AD4000F1F0864908605FF04020006850F0010093
:10AD50005FF0402108601120FFF7E2FD7B480068AA
:10AD600050F001007949086062B67D48406900F002
:10AD700075FA202001F06EF801F06CFA79497A48F2
:10AD800001F070FAA81C15F10D0150EA01200090A5
:10AD9000002200A9092000F0E9F814F10B0054EAA0
:10ADA00000200090002200A9082000F0DFF84248AF
:10ADB00000680028FBD040480021016001A801F094
:10ADC00069FA002006000C2E0EDA182270194FF4D2
:10ADD0008471634B5B6901FB003010EB44010A2076
:10ADE00000F0C4F8761CEEE7BDF906004FF40071E0
:10ADF00090FBF1F00419BDF904004FF4007190FBD1
:10AE0000F1F04519792C01DB78200400002C01D5E4
:10AE100000200400792D01DB78200500002D01D5EC
:10AE200000200500002108000C2819DA002211007A
:10AE30000C2913DA0C2202FB001203AB46198427FB
:10AE400007FB06468E19464F7F6937F816604FF6A6
:10AE5000FF777E4023F81260491CE9E7401CE3E7D6
:10AE6000A81C15F10D0150EA01200090002200A954
:10AE7000092000F07BF814F10B0054EA0020009048
:10AE8000002200A9082000F071F8002006000C2E16
:10AE90008DDA1822182003A900FB06110A2000F001
:10AEA00065F8761CF3E7000000E100E054C1000003
:10AEB00054C3000080E200E040080010A0C10F4031
:10AEC00080C00F408CC00F400CC10F4084C00F40A9
:10AED00088C00F4004C10F40ACC10F40A8C10F4053
:10AEE00080C0092060C0092040C0092020C009207E
:10AEF00000C0092090C0092070C0092050C009205E
:10AF000030C0092010C0092028C0024024C00240DF
:10AF100020C002401CC0024010C002400CC00240D1
:10AF200008C0024004C0024000C0024000093D00C9
:10AF3000001BB70000C00F404CC00240C4C00F400F
:10AF40000040034020AA44000C400340044000405D
:10AF500070400040144000400C4000401840004049
:10AF6000000800104A080010490800102DE9F047B9
:10AF700084B004000D001600DFF878040078002883
:10AF800002D1DFF8740401E0DFF87004E4B210EBE2
:10AF90000419DFF86C0400680090DFF868040068AA
:10AFA000002862D0012000F0C5FFE4B20A2C11D0C5
:10AFB000DFF8500400210160DFF84C04006800282D
:10AFC00004D5DFF84404006801F043F8002000F0E5
:10AFD000B1FF4AE0022E43D3287882466D1C2878C0
:10AFE0005AEA002A6D1CDFF82004006850F0004087
:10AFF000DFF814140860DFF81404006800280ED18C
:10B00000DFF804040068CAF307115FEA0A3212F499
:10B01000704211430843DFF8F013086016E0DFF8D0
:10B02000E80300685FEA0A4111F47F011AF47062D4
:10B0300011430843DFF8D01308600321DFF8C80389
:10B0400001F015F8DFF8C00300210160DFF8BC0350
:10B05000006890F00100DFF8B4130860B61EB9E78D
:10B06000002000F067FF0020F5E0D9F8000010F1A3
:10B07000010F01D10220EEE0DFF87803007800280C
:10B080005AD1E4B220001B2802D01D280CD052E077
:10B09000002229002E20FFF769FF002200212F2027
:10B0A000FFF764FF0020D6E02F003878C0F30000DF
:10B0B0009DF8001060F3C7118DF800103878C0F3C8
:10B0C00040004000C0B240089DF8001060F38611B7
:10B0D0008DF800103878C0F380008000C0B280087E
:10B0E0009DF8001060F345118DF800103878C0F31A
:10B0F000C000C000C0B2C0089DF8001060F3041189
:10B100008DF800107878C0F30000C0B2C0439DF8FD
:10B11000001060F3C3018DF80010002200A9302058
:10B12000FFF724FF03208DF80800002202A9312038
:10B13000FFF71CFF8FE03EE0E4B220001C2806D0A1
:10B140001D280FD01E2825D0282830D033E0A8464F
:10B15000002088F80300002229002520FFF706FFC1
:10B16000002078E02F00387810F0F7003870387839
:10B17000C0F340004000C0B24008C0B2C0433978BC
:10B1800060F341013970B87810F0F80050F0020017
:10B19000B87010E02878DFF87812096850EA0120CA
:10B1A0000190002201A92820FFF7E0FE53E0687813
:10B1B000DFF85C120860D9F80C0010F1010F02D022
:10B1C000D9F80C000600012000F0B4FED9F8000008
:10B1D00000F03FFFE4B20A2C11D1DFF83002002169
:10B1E0000160DFF8240200210160DFF8180201216C
:10B1F0000160320029000A20FFF7B8FE2BE099F821
:10B20000040001280FD1D9F80800002808D0002E2A
:10B2100006D04FF6FF7000F01CFF28706D1C761EE4
:10B22000082000F093FE99F80400012804D13100B1
:10B23000280000F03DFF03E03100280000F017FF78
:10B24000002000F077FE99F80400012802D10920BF
:10B2500000F07CFE002004B0BDE8F0877CB504005F
:10B260000921DFF8B00100F094FE00F0FFFD00209E
:10B2700000F0E4FD502001900198002803D00198CF
:10B28000401E0190F8E7012000F0D8FD3220FFF7C2
:10B29000BCFCDFF8600100210170002200A92D2014
:10B2A000FFF764FE0098C0B2452805D10098C0F3AE
:10B2B0000740C0B2032803D0DFF838010121017034
:10B2C000DFF830010078012814D15FF48910009074
:10B2D000002200A92620FFF749FE002200211F209E
:10B2E000FFF744FE20200090002200A92820FFF74D
:10B2F0003DFE06E030200090002200A91E20FFF74E
:10B3000035FE002200210220FFF730FEDFF8E400C6
:10B310000078002804D1002200213520FFF726FE06
:10B32000002200210520FFF721FE002200210D2030
:10B33000FFF71CFE0020009000A80600707810F0B7
:10B34000FE007070307810F0FE003070307850F0F1
:10B3500002003070307810F0FB003070307810F060
:10B36000F7003070002200A91D20FFF7FFFD4FF409
:10B3700003400090002200A90920FFF7F7FD0022FA
:10B3800000A90820FFF7F2FD002C15D14FF47F60D3
:10B3900000900020050044F21040854206D20222AF
:10B3A00000A90A20FFF7E2FD6D1CF4E7002200214E
:10B3B0000020FFF7DBFD05E048F6200221000A200F
:10B3C000FFF7D4FDDFF82C000078012806D11F20FC
:10B3D0000090002200A92720FFF7C8FD4FF49660D7
:10B3E000FFF713FC002200210720FFF7BFFD00201C
:10B3F00076BD0000480800107CB70000DCBA0000F1
:10B400004CC5000034080010300800102C08001053
:10B410003808001040420F0010B50400DFF8380370
:10B42000006850F08060DFF830130860DFF82C030C
:10B43000844201D3012036E001F064F83420FFF7A4
:10B44000C4FBB0FBF4F04008401CDFF814130860A4
:10B450003420FFF7BAFBB0FBF4F04008C1490860A4
:10B46000BF480068042803D3BE480068042801D2FE
:10B47000012018E0BC4801210160BC48006830F49C
:10B48000401050F40010B9490860B848006830F422
:10B49000400050F40000B549086001F00FF82C207E
:10B4A00001F036F8002010BD70B582B004000D0028
:10B4B0001600002000900023320029002000C0B2B6
:10B4C00000F010F876BD70B582B004000D001600D3
:10B4D000002000900123320029002000C0B200F0BB
:10B4E00001F876BD2DE9F84304000D0016001F0099
:10B4F000DDF820804FF47A708146FFB2022F07D129
:10B50000B04501D3012032E0994880F8098002E07B
:10B510009748002141729648456095484670944886
:10B5200004709348077292480021C160202000F007
:10B53000D9FF8D48022101608B480068022811D193
:10B540008C480068000704D500F013F84FF47A70B7
:10B5500081464846B0F101090028EDD18248092111
:10B560000160E9E7242000F0D3FF7F480068BDE8D0
:10B57000F28338B58048006810F0F800040020001D
:10B5800008281AD0102818D018283DD0202851D0CB
:10B59000282856D0302800F08980382800F08D8087
:10B5A000402800F08E80482800F09780502800F056
:10B5B0009B80582800F0B180C0E06D48007A0228D6
:10B5C00015D16B48C0686A49497A884206DA6848EA
:10B5D00000784000C0B200F0A1FF11E0644800789C
