:1020000000080010191E01002921010029210100EA
:102010002921010029210100292101001A34F9EFA9
:102020000000000000000000000000002921010065
:1020300029210100000000002921010029210100BF
:10204000292101006110010029210100292101003D
:102050002921010029210100292101002921010054
:102060002921010029210100292101002921010044
:102070002921010029210100292101002921010034
:102080002921010029210100292101002921010024
:102090002921010029210100292101002921010014
:1020A0002921010029210100292101002921010004
:1020B00029210100292101002921010029210100F4
:0420C00029210100D1
:10210000F00FF00FF00FF00FF00FF00FF00FF00FD7
:10211000F00FF00FF00FF00FF00FF00FF00FF00FC7
:10212000F00FF00FF00FF00FF00FF00FF00FF00FB7
:10213000F00FF00FF00FF00FF00FF00FF00FF00FA7
:1032C000000FF00FF00FF00FF00FF00FF00FF00FF6
:1032D000F00FF00FF00FF00FF00FF00FF00FF00FF6
:1032E000F00FF00FF00FF00FF00FF00FF00FF00FE6
:1032F000F00FF00FF00FF00FF00FF00FF00FF00FD6
:10330000F00FF00FF00FF00FF00FF00FF00FF00FC5
:10331000F00FF00FF00FF00FF00FF00FF00FF00FB5
:10332000F00FF00FF00FF00FF00FF00FF00FF00FA5
:10333000F00FF00FF00FF00FF00FF00FF00FF00F95
:10334000F00FF00FF00FF00FF00FF00FF00FF00F85
:10335000F00FF00FF00FF00FF00FF00FF00FF00F75
:10336000F00FF00FF00FF00FF00FF00FF00FF00F65
:10337000F00FF00FF00FF00FF00FF00FF00FF00F55
:10338000F00FF00FF00FF00FF00FF00FF00FF00F45
:10339000F00FF00FF00FF00FF00FF00FF00FF00F35
:1033A000F00FF00FF00FF00FF00FF00FF00FF00F25
:1033B000F00FF00FF00FF00FF00FF00FF00FF00F15
:1033C000000F000F000F000F000F000F000F000F85
:1033D000000F000FF00FF00FF00FF00FF00FF00FD5
:1033E000F00FF00FF00FF00FF00FF00FF00FF00FE5
:1033F000F00FF00FF00FF00FF00FF00FF00FF00FD5
:10340000F00FF00FF00FF00FF00FF00FF00FF00FC4
:10341000F00FF00FF00FF00FF00FF00FF00FF00FB4
:10342000F00FF00FF00FF00FF00FF00FF00FF00FA4
:10343000F00FF00FF00FF00FF00FF00FF00FF00F94
:10344000F00FF00FF00FF00FF00FF00FF00FF00F84
:10345000F00FF00FF00FF00FF00FF00FF00FF00F74
:10346000F00FF00FF00FF00FF00FF00FF00FF00F64
:10347000F00FF00FF00FF00FF00FF00FF00FF00F54
:10348000F00FF00FF00FF00FF00FF00FF00FF00F44
:10349000F00FF00FF00FF00FF00FF00FF00FF00F34
:1034A000F00FF00FF00FF00FF00FF00FF00FF00F24
:1034B000F00FF00FF00FF00FF00FF00FF00F000F04
:1034C000000F000F000F000F000F000F000F000F84
:1034D000000F000F000F000F000F000F000F000F74
:1034E000000F000F000FF00FF00FF00FF00FF00FB4
:1034F000F00FF00FF00FF00FF00FF00FF00FF00FD4
:10350000F00FF00FF00FF00FF00FF00FF00FF00FC3
:10351000F00FF00FF00FF00FF00FF00FF00FF00FB3
:10352000F00FF00FF00FF00FF00FF00FF00FF00FA3
:10353000F00FF00FF00FF00FF00FF00FF00FF00F93
:10354000F00FF00FF00FF00FF00FF00FF00FF00F83
:10355000F00FF00FF00FF00FF00FF00FF00FF00F73
:10356000F00FF00FF00FF00FF00FF00FF00FF00F63
:10357000F00FF00FF00FF00FF00FF00FF00FF00F53
:10358000F00FF00FF00FF00FF00FF00FF00FF00F43
:10359000F00FF00FF00FF00FF00FF00FF00FF00F33
:1035A000F00FF00FF00FF00FF00FF00FF00FF00F23
:1035B000F00FF00FF00FF00FF00FF00FF00FF00F13
:1035C000F00FF00F000F000F000F000F000F000FA3
:1035D000000F000F000F000F000F000F000F000F73
:1035E000000F000F000F000F000F000F000F000F63
:1035F000F00FF00FF00FF00FF00FF00FF00FF00FD3
:10360000F00FF00FF00FF00FF00FF00FF00FF00FC2
:10361000F00FF00FF00FF00FF00FF00FF00FF00FB2
:10362000F00FF00FF00FF00FF00FF00FF00FF00FA2
:10363000F00FF00FF00FF00FF00FF00FF00FF00F92
:10364000F00FF00FF00FF00FF00FF00FF00FF00F82
:10365000F00FF00FF00FF00FF00FF00FF00FF00F72
:10366000F00FF00FF00FF00FF00FF00FF00FF00F62
:10367000F00FF00FF00FF00FF00FF00FF00FF00F52
:10368000F00FF00FF00FF00FF00FF00FF00FF00F42
:10369000F00FF00FF00FF00FF00FF00FF00FF00F32
:1036A000F00FF00FF00FF00FF00FF00FF00FF00F22
:1036B000F00FF00FF00FF00FF00FF00FF00FF00F12
:1036C000F00FF00FF00FF00F000F000F000F000FC2
:1036D000000F000F000F000F000F000F000F000F72
:1036E000000F000F000F000F000F000F000F000F62
:1036F000000F000F000F000F000F000FF00FF00F72
:10370000F00FF00FF00FF00FF00FF00FF00FF00FC1
:10371000F00FF00FF00FF00FF00FF00FF00FF00FB1
:10372000F00FF00FF00FF00FF00FF00FF00FF00FA1
:10373000F00FF00FF00FF00FF00FF00FF00FF00F91
:10374000F00FF00FF00FF00FF00FF00FF00FF00F81
:10375000F00FF00FF00FF00FF00FF00FF00FF00F71
:10376000F00FF00FF00FF00FF00FF00FF00FF00F61
:10377000F00FF00FF00FF00FF00FF00FF00FF00F51
:10378000F00FF00FF00FF00FF00FF00FF00FF00F41
:10379000F00FF00FF00FF00FF00FF00FF00FF00F31
:1037A000F00FF00FF00FF00FF00FF00FF00FF00F21
:1037B000F00FF00FF00FF00FF00FF00FF00FF00F11
:1037C000F00FF00FF00FF00FF00FF00FF00F000FF1
:1037D000000F000F000F000F000F000F000F000F71
:1037E000000F000F000F000F000F000F000F000F61
:1037F000000F000F000F000F000F000F000F000F51
:10380000000F000F000FF00FF00FF00FF00FF00F90
:10381000F00FF00FF00FF00FF00FF00FF00FF00FB0
:10382000F00FF00FF00FF00FF00FF00FF00FF00FA0
:10383000F00FF00FF00FF00FF00FF00FF00FF00F90
:10384000F00FF00FF00FF00FF00FF00FF00FF00F80
:10385000F00FF00FF00FF00FF00FF00FF00FF00F70
:10386000F00FF00FF00FF00FF00FF00FF00FF00F60
:10387000F00FF00FF00FF00FF00FF00FF00FF00F50
:10388000F00FF00FF00FF00FF00FF00FF00FF00F40
:10389000F00FF00FF00FF00FF00FF00FF00FF00F30
:1038A000F00FF00FF00FF00FF00FF00FF00FF00F20
:1038B000F00FF00FF00FF00FF00FF00FF00FF00F10
:1038C000F00FF00FF00FF00FF00FF00FF00FF00F00
:1038D000F00FF00F000F000F000F000F000F000F90
:1038E000000F000F000F000F000F000F000F000F60
:1038F000000F000F000F000F000F000F000F000F50
:10390000000F000F000F000F000F000F000F000F3F
:10391000000FF00FF00FF00FF00FF00FF00FF00F9F
:10392000F00FF00FF00FF00FF00FF00FF00FF00F9F
:10393000F00FF00FF00FF00FF00FF00FF00FF00F8F
:10394000F00FF00FF00FF00FF00FF00FF00FF00F7F
:10395000F00FF00FF00FF00FF00FF00FF00FF00F6F
:10396000F00FF00FF00FF00FF00FF00FF00FF00F5F
:10397000F00FF00FF00FF00FF00FF00FF00FF00F4F
:10398000F00FF00FF00FF00FF00FF00FF00FF00F3F
:10399000F00FF00FF00FF00FF00FF00FF00FF00F2F
:1039A000F00FF00FF00FF00FF00FF00FF00FF00F1F
:1039B000F00FF00FF00FF00FF00FF00FF00FF00F0F
:1039C000F00FF00FF00FF00FF00FF00FF00FF00FFF
:1039D000F00FF00FF00FF00FF00FF00F000F000FCF
:1039E000000F000F000F000F000F000F000F000F5F
:1039F000000F000F000F000F000F000F000F000F4F
:103A0000000F000F000F000F000F000F000F000F3E
:103A1000000F000F000F000F000FF00FF00FF00F5E
:103A2000F00FF00FF00FF00FF00FF00FF00FF00F9E
:103A3000F00FF00FF00FF00FF00FF00FF00FF00F8E
:103A4000F00FF00FF00FF00FF00FF00FF00FF00F7E
:103A5000F00FF00FF00FF00FF00FF00FF00FF00F6E
:103A6000F00FF00FF00FF00FF00FF00FF00FF00F5E
:103A7000F00FF00FF00FF00FF00FF00FF00FF00F4E
:103A8000F00FF00FF00FF00FF00FF00FF00FF00F3E
:103A9000F00FF00FF00FF00FF00FF00FF00FF00F2E
:103AA000F00FF00FF00FF00FF00FF00FF00FF00F1E
:103AB000F00FF00FF00FF00FF00FF00FF00FF00F0E
:103AC000F00FF00FF00FF00FF00FF00FF00FF00FFE
:103AD000F00FF00FF00FF00FF00FF00FF00F000FDE
:103AE000F00FF00F000F000F000F000F000F000F7E
:103AF000000F000F000F000F000F000F000F000F4E
:103B0000000F000F000F000F000F000F000F000F3D
:103B1000000F000F000F000F000F000F000F000F2D
:103B2000000FF00FF00FF00FF00FF00FF00FF00F8D
:103B3000F00FF00FF00FF00FF00FF00FF00FF00F8D
:103B4000F00FF00FF00FF00FF00FF00FF00FF00F7D
:103B5000F00FF00FF00FF00FF00FF00FF00FF00F6D
:103B6000F00FF00FF00FF00FF00FF00FF00FF00F5D
:103B7000F00FF00FF00FF00FF00FF00FF00FF00F4D
:103B8000F00FF00FF00FF00FF00FF00FF00FF00F3D
:103B9000F00FF00FF00FF00FF00FF00FF00FF00F2D
:103BA000F00FF00FF00FF00FF00FF00FF00FF00F1D
:103BB000F00FF00FF00FF00FF00FF00FF00FF00F0D
:103BC000F00FF00FF00FF00FF00FF00FF00FF00FFD
:103BD000F00FF00FF00FF00FF00FF00FF00FF00FED
:103BE000F00FF00F000F000FF00FF00F000F000F9D
:103BF000000F000F000F000F000F000F000F000F4D
:103C0000000F000F000F000F000F000F000F000F3C
:103C1000000F000F000F000F000F000F000F000F2C
:103C2000000F000F000F000F000FF00FF00F000F3C
:103C3000F00FF00FF00FF00FF00FF00FF00FF00F8C
:103C4000F00FF00FF00FF00FF00FF00FF00FF00F7C
:103C5000F00FF00FF00FF00FF00FF00FF00FF00F6C
:103C6000F00FF00FF00FF00FF00FF00FF00FF00F5C
:103C7000F00FF00FF00FF00FF00FF00FF00FF00F4C
:103C8000F00FF00FF00FF00FF00FF00FF00FF00F3C
:103C9000F00FF00FF00FF00FF00FF00FF00FF00F2C
:103CA000F00FF00FF00FF00FF00FF00FF00FF00F1C
:103CB000F00FF00FF00FF00FF00FF00FF00FF00F0C
:103CC000F00FF00FF00FF00FF00FF00FF00FF00FFC
:103CD000F00FF00FF00FF00FF00FF00FF00FF00FEC
:103CE000F00FF00FF00FF00FF00FF00F000F000FBC
:103CF000F00FF00F000F000F000F000F000F000F6C
:103D0000000F000F000F000F000F000F000F000F3B
:103D1000000F000F000F000F000F000F000F000F2B
:103D2000000F000F000F000F000F000F000F000F1B
:103D3000000FF00FF00F000FF00FF00FF00FF00F6B
:103D4000F00FF00FF00FF00FF00FF00FF00FF00F7B
:103D5000F00FF00FF00FF00FF00FF00FF00FF00F6B
:103D6000F00FF00FF00FF00FF00FF00FF00FF00F5B
:103D7000F00FF00FF00FF00FF00FF00FF00FF00F4B
:103D8000F00FF00FF00FF00FF00FF00FF00FF00F3B
:103D9000F00FF00FF00FF00FF00FF00FF00FF00F2B
:103DA000F00FF00FF00FF00FF00FF00FF00FF00F1B
:103DB000F00FF00FF00FF00FF00FF00FF00FF00F0B
:103DC000F00FF00FF00FF00FF00FF00FF00FF00FFB
:103DD000F00FF00FF00FF00FF00FF00FF00FF00FEB
:103DE000F00FF00FF00FF00FF00FF00FF00FF00FDB
:103DF000F00F000F000F000FF00FF00F000F000F7B
:103E0000000F000F000F000F000F000F000F000F3A
:103E1000000F000F000F000F000F000F000F000F2A
:103E2000000F000F000F000F000F000F000F000F1A
:103E3000000F000F000F000F000FF00FF00F000F2A
:103E4000000FF00FF00FF00FF00FF00FF00FF00F6A
:103E5000F00FF00FF00FF00FF00FF00FF00FF00F6A
:103E6000F00FF00FF00FF00FF00FF00FF00FF00F5A
:103E7000F00FF00FF00FF00FF00FF00FF00FF00F4A
:103E8000F00FF00FF00FF00FF00FF00FF00FF00F3A
:103E9000F00FF00FF00FF00FF00FF00FF00FF00F2A
:103EA000F00FF00FF00FF00FF00FF00FF00FF00F1A
:103EB000F00FF00FF00FF00FF00FF00FF00FF00F0A
:103EC000F00FF00FF00FF00FF00FF00FF00FF00FFA
:103ED000F00FF00FF00FF00FF00FF00FF00FF00FEA
:103EE000F00FF00FF00FF00FF00FF00FF00FF00FDA
:103EF000F00FF00FF00FF00F000F000F000F000F8A
:103F0000F00FF00F000F000F000F000F000F000F59
:103F1000000F000F000F000F000F000F000F000F29
:103F2000000F000F000F000F000F000F000F000F19
:103F3000000F000F000F000F000F000F000F000F09
:103F4000000FF00FF00F000F000F000FF00FF00F39
:103F5000F00FF00FF00FF00FF00FF00FF00FF00F69
:103F600000000000000000000000F00FF00FF00F54
:103F7000F00FF00FF00FF00FF00FF00FF00FF00F49
:103F8000F00F000000000000000000000000000032
:103F9000F00FF00FF00FF00FF00FF00FF00FF00F29
:103FA000F00FF00FF00FF00FF00F00000000000016
:103FB0000000000000000000000000000000000001
:103FC000000000000000000000000000F00FF00FF3
:103FD000F00FF00FF00FF00FF00FF00FF00FF00FE9
:103FE000F00FF00FF00FF00FF00FF00FF00FF00FD9
:103FF000F00FF00FF00FF00FF00FF00FF00FF00FC9
:10400000000F000F000F000FF00FF00F000F000F58
:10401000000F000F000F000F000F000F000F000F28
:10402000000F000F000F000F000F000F000F000F18
:10403000000F000F000F000F000F000F000F000F08
:10404000000F000F000F000F000FF00FF00F000F18
:10405000000F000FF00FF00FF00FF00FF00FF00F48
:10406000F00FF00FF00FF00F000000000000000054
:104070000000F00FF00FF00FF00FF00FF00FF00F47
:10408000F00FF00FF00FF00FF00F00000000000035
:104090000000000000000000F00FF00FF00FF00F24
:1040A000F00FF00FF00FF00FF00FF00FF00FF00F18
:1040B000F00F000000000000000000000000000001
:1040C00000000000000000000000000000000000F0
:1040D0000000000000000000F00FF00FF00FF00FE4
:1040E000F00FF00FF00FF00FF00FF00FF00FF00FD8
:1040F000F00FF00FF00FF00FF00FF00FF00FF00FC8
:10410000F00FF00FF00F000F000F000F000F000F67
:10411000F00FF00FF00FF00FF00FF00FF00FF00FA7
:10412000F00FF00FF00FF00FF00FF00FF00FF00F97
:10413000F00FF00FF00FF00FF00FF00FF00FF00F87
:10414000F00FF00FF00FF00FF00FF00FF00FF00F77
:10415000F00FF00FF00F000F000F000F000FF00F27
:10416000F00FF00FF00FF00FF00FF00FF00FF00F57
:1041700000000000000000000000F00FF00FF00F42
:10418000F00FF00FF00FF00FF00FF00FF00FF00F37
:10419000000000000000000000000000000000001F
:1041A0000000F00FF00FF00FF00FF00FF00FF00F16
:1041B000F00FF00FF00FF00FF00F00000000000004
:1041C00000000000000000000000000000000000EF
:1041D00000000000000000000000000000000000DF
:1041E0000000F00FF00FF00FF00FF00FF00FF00FD6
:1041F000F00FF00FF00FF00FF00FF00FF00FF00FC7
:10420000F00FF00FF00FF00FF00FF00FF00F000FA6
:10421000000F000F000F000FF00FF00FF00FF00F66
:10422000F00FF00FF00FF00FF00FF00FF00FF00F96
:10423000F00FF00FF00FF00FF00FF00FF00FF00F86
:10424000F00FF00FF00FF00FF00FF00FF00FF00F76
:10425000F00FF00FF00FF00FF00FF00FF00F000F56
:10426000000F000F000FF00FF00FF00FF00FF00F26
:10427000F00FF00FF00FF00F000000000000000042
:104280000000F00FF00FF00FF00FF00FF00FF00F35
:10429000F00FF00FF00FF00F000000000000000022
:1042A00000000000000000000000F00FF00FF00F11
:1042B000F00FF00FF00FF00FF00FF00FF00FF00F06
:1042C000F00F0000000000000000000000000000EF
:1042D00000000000000000000000000000000000DE
:1042E000000000000000000000000000F00FF00FD0
:1042F000F00FF00FF00FF00FF00FF00FF00FF00FC6
:10430000F00FF00FF00FF00FF00FF00FF00FF00FB5
:10431000F00FF00F000F000F000F000F000F000F45
:10432000F00FF00F000F000F000F000F000F000F35
:10433000000F000F000F000F000F000F000F000F05
:10434000000F000F000F000F000F000F000F000FF5
:10435000000F000F000F000F000F000F000F000FE5
:10436000000FF00FF00F000F000F000F000F000FF5
:10437000F00FF00FF00FF00FF00FF00FF00FF00F45
:1043800000000000000000000000F00FF00FF00F30
:10439000F00FF00FF00FF00FF00FF00FF00FF00F25
:1043A0000000000000000000F00F0000000000000E
:1043B0000000F00FF00FF00FF00FF00FF00FF00F04
:1043C000F00FF00FF00FF00FF00F000000000000F2
:1043D00000000000F00FF00FF00FF00FF00FF00FE3
:1043E000F00FF00FF00FF00F0000000000000000D1
:1043F00000000000F00FF00FF00FF00FF00FF00FC3
:10440000F00FF00FF00FF00FF00FF00FF00FF00FB4
:10441000F00FF00FF00FF00FF00FF00F000F000F84
:10442000000F000F000F000FF00FF00F000F000F34
:10443000000F000F000F000F000F000F000F000F04
:10444000000F000F000F000F000F000F000F000FF4
:10445000000F000F000F000F000F000F000F000FE4
:10446000000F000F000F000F000FF00FF00F000FF4
:10447000000F000F000F000FF00FF00FF00FF00F04
:10448000F00FF00FF00FF00F000000000000000030
:104490000000F00FF00FF00FF00FF00FF00FF00F23
:1044A000F00FF00FF00F000000000000000000000F
:1044B000F00F00000000000000000000F00FF00FFF
:1044C000F00FF00FF00FF00FF00FF00FF00FF00FF4
:1044D000F00F00000000000000000000F00FF00FDF
:1044E000F00FF00FF00FF00FF00FF00FF00FF00FD4
:1044F000F00F000000000000000000000000F00FBE
:10450000F00FF00FF00FF00FF00FF00FF00FF00FB3
:10451000F00FF00FF00FF00FF00FF00FF00FF00FA3
:10452000F00FF00F000F000F000F000F000F000F33
:10453000F00FF00F000F000F000F000F000F000F23
:10454000000F000F000F000F000F000F000F000FF3
:10455000000F000F000F000F000F000F000F000FE3
:10456000000F000F000F000F000F000F000F000FD3
:10457000000FF00FF00F000F000F000F000F000FE3
:10458000F00FF00FF00FF00FF00FF00FF00FF00F33
:1045900000000000000000000000F00FF00FF00F1E
:1045A000F00FF00FF00FF00FF00FF00FF00F000012
:1045B0000000000000000000F00F000000000000FC
:1045C00000000000F00FF00FF00FF00FF00FF00FF1
:1045D000F00FF00FF00FF00FF00F000000000000E0
:1045E00000000000F00FF00FF00FF00FF00FF00FD1
:1045F000F00FF00FF00FF00FF00FF00F00000000C1
:10460000000000000000F00FF00FF00FF00FF00FAF
:10461000F00FF00FF00FF00FF00FF00FF00FF00FA2
:10462000F00FF00FF00FF00FF00FF00F000F000F72
:10463000000F000F000F000FF00FF00F000F000F22
:10464000000F000F000F000F000F000F000F000FF2
:10465000000F000F000F000F000F000F000F000FE2
:10466000000F000F000F000F000F000F000F000FD2
:10467000000F000F000F000F000FF00FF00F000FE2
:10468000000F000F000F000FF00FF00FF00FF00FF2
:10469000F00FF00FF00FF00F00000000000000001E
:1046A0000000F00FF00FF00FF00FF00FF00FF00F11
:1046B000F00FF00F00000000000000000000F00FFD
:1046C000F00FF00F00000000000000000000F00FED
:1046D000F00FF00FF00FF00FF00FF00FF00FF00FE2
:1046E000F00F00000000000000000000F00FF00FCD
:1046F000F00FF00FF00FF00FF00FF00FF00FF00FC2
:10470000F00FF00F00000000000000000000F00FAC
:10471000F00FF00FF00FF00FF00FF00FF00FF00FA1
:10472000F00FF00FF00FF00FF00FF00FF00FF00F91
:10473000F00F000F000F000F000F000F000F000F11
:10474000F00FF00F000F000F000F000F000F000F11
:10475000000F000F000F000F000F000F000F000FE1
:10476000000F000F000F000F000F000F000F000FD1
:10477000000F000F000F000F000F000F000F000FC1
:10478000000FF00FF00F000F000F000F000F000FD1
:10479000000FF00FF00FF00FF00FF00FF00FF00F11
:1047A00000000000000000000000F00FF00FF00F0C
:1047B000F00FF00FF00FF00FF00FF00F00000000FF
:1047C000000000000000F00FF00FF00F00000000EC
:1047D000000000000000F00FF00FF00FF00FF00FDE
:1047E000F00FF00FF00FF00FF00F000000000000CE
:1047F00000000000F00FF00FF00FF00FF00FF00FBF
:10480000F00FF00FF00FF00FF00FF00F00000000AE
:10481000000000000000F00FF00FF00FF00FF00F9D
:10482000F00FF00FF00FF00FF00FF00FF00FF00F90
:10483000F00FF00FF00FF00FF00F000F000F000F50
:10484000000F000F000F000FF00FF00F000F000F10
:10485000000F000F000F000F000F000F000F000FE0
:10486000000F000F000F000F000F000F000F000FD0
:10487000000F000F000F000F000F000F000F000FC0
:10488000000F000F000F000F000FF00FF00F000FD0
:10489000000F000F000F000F000FF00FF00FF00FD0
:1048A000F00FF00FF00FF00F00000000000000000C
:1048B0000000F00FF00FF00FF00FF00FF00FF00FFF
:1048C000F00FF00F00000000000000000000F00FEB
:1048D000F00FF00F00000000000000000000F00FDB
:1048E000F00FF00FF00FF00FF00FF00FF00FF00FD0
:1048F000F00F00000000000000000000F00FF00FBB
:10490000F00FF00FF00FF00FF00FF00FF00FF00FAF
:10491000F00FF00F00000000000000000000F00F9A
:10492000F00FF00FF00FF00FF00FF00FF00FF00F8F
:10493000F00FF00FF00FF00FF00FF00FF00FF00F7F
:10494000F00F000F000F000F000F000F000F000FFF
:10495000F00FF00FF00FF00FF00FF00FF00FF00F5F
:10496000F00FF00FF00FF00FF00FF00FF00FF00F4F
:10497000F00FF00FF00FF00FF00FF00FF00FF00F3F
:10498000F00FF00FF00FF00FF00FF00FF00FF00F2F
:10499000F00FF00FF00F000F000F000F000F000FCF
:1049A000000FF00FF00FF00FF00FF00FF00FF00FFF
:1049B00000000000000000000000F00FF00FF00FFA
:1049C000F00FF00FF00FF00FF00F000000000000EC
:1049D00000000000F00FF00FF00FF00FF00F0000DC
:1049E0000000000000000000F00FF00FF00FF00FCB
:1049F000F00FF00FF00FF00FF00F000000000000BC
:104A000000000000F00FF00FF00FF00FF00FF00FAC
:104A1000F00FF00FF00FF00FF00F0000000000009B
:104A2000000000000000F00FF00FF00FF00FF00F8B
:104A3000F00FF00FF00FF00FF00FF00FF00FF00F7E
:104A4000F00FF00FF00FF00FF00F000F000F000F3E
:104A5000000F000F000F000FF00FF00FF00FF00F1E
:104A6000F00FF00FF00FF00FF00FF00FF00FF00F4E
:104A7000F00FF00FF00FF00FF00FF00FF00FF00F3E
:104A8000F00FF00FF00FF00FF00FF00FF00FF00F2E
:104A9000F00FF00FF00FF00FF00FF00FF00F000F0E
:104AA000000F000F000F000F000FF00FF00FF00FBE
:104AB000F00FF00FF00FF00F0000000000000000FA
:104AC0000000F00FF00FF00FF00FF00FF00FF00FED
:104AD000F00F00000000000000000000F00FF00FD9
:104AE000F00FF00FF00F00000000000000000000C9
:104AF000F00FF00FF00FF00FF00FF00FF00FF00FBE
:104B0000F00F00000000000000000000F00FF00FA8
:104B1000F00FF00FF00FF00FF00FF00FF00FF00F9D
:104B2000000000000000000000000000F00FF00F87
:104B3000F00FF00FF00FF00FF00FF00FF00FF00F7D
:104B4000F00FF00FF00FF00FF00FF00FF00FF00F6D
:104B5000F00F000F000F000F000F000F000F000FED
:104B6000F00FF00F000F000F000F000F000F000FED
:104B7000000F000F000F000F000F000F000F000FBD
:104B8000000F000F000F000F000F000F000F000FAD
:104B9000000F000F000F000F000F000F000F000F9D
:104BA000000FF00FF00F000F000F000F000F000FAD
:104BB000000FF00FF00FF00FF00FF00FF00FF00FED
:104BC00000000000000000000000F00FF00FF00FE8
:104BD000F00FF00FF00FF00FF00F000000000000DA
:104BE0000000F00FF00FF00FF00FF00FF00FF00FCC
:104BF00000000000000000000000F00FF00FF00FB8
:104C0000F00FF00FF00FF00FF00F000000000000A9
:104C10000000000000000000000000000000000094
:104C20000000000000000000000000000000000084
:104C300000000000F00FF00FF00FF00FF00FF00F7A
:104C4000F00FF00FF00FF00FF00FF00FF00FF00F6C
:104C5000F00FF00FF00FF00FF00F000F000F000F2C
:104C6000000F000F000F000FF00FF00F000F000FEC
:104C7000000F000F000F000F000F000F000F000FBC
:104C8000000F000F000F000F000F000F000F000FAC
:104C9000000F000F000F000F000F000F000F000F9C
:104CA000000F000F000F000F000FF00FF00F000FAC
:104CB000000F000F000F000F000FF00FF00FF00FAC
:104CC000F00FF00FF00FF00F0000000000000000E8
:104CD0000000F00FF00FF00FF00FF00FF00FF00FDB
:104CE00000000000000000000000F00FF00FF00FC7
:104CF000F00FF00FF00FF00F0000000000000000B8
:104D00000000F00FF00FF00FF00FF00FF00FF00FAA
:104D1000F00F000000000000000000000000000094
:104D20000000000000000000000000000000000083
:104D300000000000000000000000F00FF00FF00F76
:104D4000F00FF00FF00FF00FF00FF00FF00FF00F6B
:104D5000F00FF00FF00FF00FF00FF00FF00FF00F5B
:104D6000F00F000F000F000F000F000F000F000FDB
:104D7000F00FF00F000F000F000F000F000F000FDB
:104D8000000F000F000F000F000F000F000F000FAB
:104D9000000F000F000F000F000F000F000F000F9B
:104DA000000F000F000F000F000F000F000F000F8B
:104DB000000FF00FF00F000F000F000F000F000F9B
:104DC000000FF00FF00FF00FF00FF00FF00FF00FDB
:104DD00000000000000000000000F00FF00FF00FD6
:104DE000F00FF00FF00FF00F0000000000000000C7
:104DF0000000F00FF00FF00FF00FF00FF00FF00FBA
:104E000000000000000000000000F00FF00FF00FA5
:104E1000F00FF00FF00FF00FF00F00000000000097
:104E20000000000000000000000000000000000082
:104E30000000000000000000000000000000F00F73
:104E4000F00FF00FF00FF00FF00FF00FF00FF00F6A
:104E5000F00FF00FF00FF00FF00FF00FF00FF00F5A
:104E6000F00FF00FF00FF00FF00F000F000F000F1A
:104E7000000F000F000F000FF00FF00F000F000FDA
:104E8000000F000F000F000F000F000F000F000FAA
:104E9000000F000F000F000F000F000F000F000F9A
:104EA000000F000F000F000F000F000F000F000F8A
:104EB000000F000F000F000F000FF00FF00F000F9A
:104EC000000F000F000F000F000FF00FF00FF00F9A
:104ED000F00FF00FF00FF00F0000000000000000D6
:104EE0000000F00FF00FF00FF00FF00FF00F0000C8
:104EF0000000000000000000F00FF00FF00FF00FB6
:104F0000F00FF00FF00FF00FF00F000000000000A6
:104F100000000000F00FF00FF00FF00FF00FF00F97
:104F2000F00F000000000000000000000000000082
:104F30000000000000000000000000000000000071
:104F4000F00FF00FF00FF00FF00FF00FF00FF00F69
:104F5000F00FF00FF00FF00FF00FF00FF00FF00F59
:104F6000F00FF00FF00FF00FF00FF00FF00FF00F49
:104F7000F00F000F000F000F000F000F000F000FC9
:104F8000F00FF00F000F000F000F000F000F000FC9
:104F9000000F000F000F000F000F000F000F000F99
:104FA000000F000F000F000F000F000F000F000F89
:104FB000000F000F000F000F000F000F000F000F79
:104FC000000FF00FF00F000F000F000F000F000F89
:104FD000000FF00FF00FF00FF00FF00FF00FF00FC9
:104FE00000000000000000000000F00FF00FF00FC4
:104FF000F00FF00FF00F00000000000000000000B4
:10500000F00FF00FF00FF00FF00FF00FF00FF00FA8
:10501000F00F00000000000000000000F00FF00F93
:10502000F00FF00FF00FF00FF00F00000000000085
:1050300000000000F00FF00FF00FF00FF00F000075
:10504000000000000000000000000000F00FF00F62
:10505000F00FF00FF00FF00FF00FF00FF00FF00F58
:10506000F00FF00FF00FF00FF00FF00FF00FF00F48
:10507000F00FF00FF00FF00FF00F000F000F000F08
:10508000000F000F000F000FF00FF00FF00FF00FE8
:10509000F00FF00FF00FF00FF00FF00FF00FF00F18
:1050A000F00FF00FF00FF00FF00FF00FF00FF00F08
:1050B000F00FF00FF00FF00FF00FF00FF00FF00FF8
:1050C000F00FF00FF00FF00FF00FF00FF00F000FD8
:1050D000000F000F000F000F000FF00FF00FF00F88
:1050E000F00FF00FF00FF00F0000000000000000C4
:1050F0000000F00FF00FF00FF00FF00FF00F0000B6
:10510000000000000000000000000000000000009F
:10511000000000000000000000000000000000008F
:1051200000000000F00FF00FF00FF00FF00FF00F85
:10513000F00F00000000000000000000F00FF00F72
:10514000F00FF00FF00FF00F000000000000000063
:10515000000000000000F00FF00FF00FF00FF00F54
:10516000F00FF00FF00FF00FF00FF00FF00FF00F47
:10517000F00FF00FF00FF00FF00FF00FF00FF00F37
:10518000F00FF00F000F000F000F000F000F000FC7
:10519000F00FF00FF00F000F000F000F000F000FC7
:1051A000000F000F000F000F000F000F000F000F87
:1051B000000F000F000F000F000F000F000F000F77
:1051C000000F000F000F000F000F000F000F000F67
:1051D000F00FF00F000F000F000F000F000F000F77
:1051E000F00FF00FF00FF00FF00FF00FF00FF00FC7
:1051F00000000000000000000000F00FF00FF00FB2
:10520000F00FF00F000000000000000000000000A0
:10521000000000000000000000000000000000008E
:105220000000000000000000000000000000F00F7F
:10523000F00FF00FF00FF00FF00F00000000000073
:1052400000000000F00FF00FF00FF00FF00FF00F64
:10525000F00F00000000000000000000000000004F
:10526000F00FF00FF00FF00FF00FF00FF00FF00F46
:10527000F00FF00FF00FF00FF00FF00FF00FF00F36
:10528000F00FF00FF00FF00FF00FF00F000F000F06
:10529000000F000F000F000F000FF00FF00FF00FC6
:1052A000000F000F000F000F000F000F000F000F86
:1052B000000F000F000F000F000F000F000F000F76
:1052C000000F000F000F000F000F000F000F000F66
:1052D000000F000F000FF00FF00F000F000F000F76
:1052E000000F000F000F000FF00FF00FF00FF00F86
:1052F000F00FF00FF00FF00F0000000000000000B2
:105300000000F00FF00FF00FF00FF00F00000000A2
:10531000000000000000000000000000000000008D
:10532000000000000000000000000000000000007D
:10533000000000000000F00FF00FF00FF00FF00F72
:10534000F00F00000000000000000000F00FF00F60
:10535000F00FF00FF00FF00FF00FF00F0000000053
:105360000000000000000000F00FF00FF00FF00F41
:10537000F00FF00FF00FF00FF00FF00FF00FF00F35
:10538000F00FF00FF00FF00FF00FF00FF00FF00F25
:10539000F00FF00F000F000F000F000F000F000FB5
:1053A000000F000FF00FF00F000F000F000F000FA5
:1053B000000F000F000F000F000F000F000F000F75
:1053C000000F000F000F000F000F000F000F000F65
:1053D000000F000F000F000F000F000F000FF00F65
:1053E000F00F000F000F000F000F000F000F000F55
:1053F000F00FF00FF00FF00FF00FF00FF00FF00FB5
:1054000000000000000000000000F00FF00FF00F9F
:10541000F00F00000000000000000000000000008D
:10542000000000000000000000000000000000007C
:10543000000000000000000000000000000000006C
:10544000F00FF00FF00FF00FF00F00000000000061
:1054500000000000F00FF00FF00FF00FF00FF00F52
:10546000F00FF00FF00F000000000000000000003F
:105470000000F00FF00FF00FF00FF00FF00FF00F33
:10548000F00FF00FF00FF00FF00FF00FF00FF00F24
:10549000F00FF00FF00FF00FF00FF00F000F000FF4
:1054A000000F000F000F000F000F000FF00FF00FA4
:1054B000F00FF00FF00FF00FF00FF00FF00FF00FF4
:1054C000F00FF00FF00FF00FF00FF00FF00FF00FE4
:1054D000F00FF00FF00FF00FF00FF00FF00FF00FD4
:1054E000F00FF00FF00FF00F000F000F000F000F84
:1054F000000F000F000F000FF00FF00FF00FF00F74
:10550000F00FF00FF00FF00F00000000000000009F
:105510000000F00FF00FF00FF00F0000000000008F
:1055200000000000F00FF00FF00FF00FF00FF00F81
:10553000F00FF00FF00FF00FF00FF00FF00F000072
:105540000000000000000000F00FF00FF00FF00F5F
:10555000F00F00000000000000000000F00FF00F4E
:10556000F00FF00FF00FF00FF00FF00FF00FF00F43
:1055700000000000000000000000F00FF00FF00F2E
:10558000F00FF00FF00FF00FF00FF00FF00FF00F23
:10559000F00FF00FF00FF00FF00FF00FF00FF00F13
:1055A000F00FF00FF00F000F000F000F000F000FB3
:1055B000000F000F000FF00FF00FF00F000F000FA3
:1055C000000F000F000F000F000F000F000F000F63
:1055D000000F000F000F000F000F000F000F000F53
:1055E000000F000F000F000F000FF00FF00FF00F73
:1055F000000F000F000F000F000F000F000FF00F43
:10560000F00FF00FF00FF00FF00FF00FF00FF00FA2
:1056100000000000000000000000F00FF00FF00F8D
:10562000F00F00000000000000000000F00FF00F7D
:10563000F00FF00FF00FF00FF00FF00FF00FF00F72
:10564000F00FF00FF00F000000000000000000005D
:10565000F00FF00FF00FF00FF00F0000000000004F
:1056600000000000F00FF00FF00FF00FF00FF00F40
:10567000F00FF00FF00FF00F00000000000000002E
:1056800000000000F00FF00FF00FF00FF00FF00F20
:10569000F00FF00FF00FF00FF00FF00FF00FF00F12
:1056A000F00FF00FF00FF00FF00FF00FF00F000FF2
:1056B000000F000F000F000F000F000F000F000F72
:1056C000F00FF00FF00F000F000F000F000F000F92
:1056D000000F000F000F000F000F000F000F000F52
:1056E000000F000F000F000F000F000F000F000F42
:1056F000F00FF00FF00F000F000F000F000F000F62
:10570000000F000F000FF00FF00FF00FF00FF00F71
:10571000F00FF00FF00FF00F00000000000000008D
:105720000000F00FF00FF00F00000000000000007C
:1057300000000000F00FF00FF00FF00FF00FF00F6F
:10574000F00FF00FF00FF00FF00FF00FF00F000060
:1057500000000000000000000000F00FF00FF00F4C
:10576000F00F00000000000000000000F00FF00F3C
:10577000F00FF00FF00FF00FF00FF00FF00FF00F31
:10578000F00F000000000000000000000000F00F1B
:10579000F00FF00FF00FF00FF00FF00FF00FF00F11
:1057A000F00FF00FF00FF00FF00FF00FF00FF00F01
:1057B000F00FF00FF00FF00F000F000F000F000FB1
:1057C000000F000F000F000F000FF00FF00FF00F91
:1057D000000F000F000F000F000F000F000F000F51
:1057E000000F000F000F000F000F000F000F000F41
:1057F000000F000F000FF00FF00FF00F000F000F61
:10580000000F000F000F000F000F000FF00FF00F40
:10581000F00FF00FF00FF00FF00FF00FF00FF00F90
:1058200000000000000000000000F00FF00FF00F7B
:1058300000000000000000000000F00FF00FF00F6B
:10584000F00FF00FF00FF00FF00FF00FF00FF00F60
:10585000F00FF00FF00FF00F00000000000000004C
:105860000000F00FF00FF00FF00F0000000000003C
:1058700000000000F00FF00FF00FF00FF00FF00F2E
:10588000F00FF00FF00FF00FF00FF00F000000001E
:10589000000000000000F00FF00FF00FF00FF00F0D
:1058A000F00FF00FF00FF00FF00FF00FF00FF00F00
:1058B000F00FF00FF00FF00FF00FF00FF00FF00FF0
:1058C000000F000F000F000F000F000F000F000F60
:1058D000000F000FF00FF00FF00FF00FF00FF00FB0
:1058E000F00FF00FF00FF00FF00FF00FF00FF00FC0
:1058F000F00FF00FF00FF00FF00FF00FF00FF00FB0
:10590000F00F000F000F000F000F000F000F000F2F
:10591000000F000FF00FF00FF00FF00FF00FF00F6F
:10592000F00FF00FF00FF00F00000000000000007B
:105930000000F00FF00FF00F00000000000000006A
:105940000000F00FF00FF00FF00FF00FF00FF00F5E
:10595000F00FF00FF00FF00FF00FF00FF00FF00F4F
:1059600000000000000000000000F00FF00FF00F3A
:10597000F00F00000000000000000000F00FF00F2A
:10598000F00FF00FF00FF00FF00FF00FF00FF00F1F
:10599000F00FF00F00000000000000000000000009
:1059A000F00FF00FF00FF00FF00FF00FF00FF00FFF
:1059B000F00FF00FF00FF00FF00FF00FF00FF00FEF
:1059C000F00FF00FF00FF00FF00F000F000F000FAF
:1059D000000F000F000F000F000F000F000FF00F5F
:1059E000F00FF00FF00FF00FF00FF00FF00FF00FBF
:1059F000F00FF00FF00FF00FF00FF00FF00FF00FAF
:105A0000F00FF00FF00F000F000F000F000F000F4E
:105A1000000F000F000F000F000FF00FF00FF00F3E
:105A2000F00FF00FF00FF00FF00FF00FF00FF00F7E
:105A300000000000000000000000F00FF00F000068
:105A40000000000000000000F00FF00FF00FF00F5A
:105A5000F00FF00FF00FF00FF00FF00FF00FF00F4E
:105A6000F00FF00FF00FF00F00000000000000003A
:105A700000000000F00FF00FF00F00000000000029
:105A800000000000F00FF00FF00FF00FF00FF00F1C
:105A9000F00FF00FF00FF00FF00FF00FF00F00000D
:105AA00000000000000000000000F00FF00FF00FF9
:105AB000F00FF00FF00FF00FF00FF00FF00FF00FEE
:105AC000F00FF00FF00FF00FF00FF00FF00FF00FDE
:105AD000F00FF00F000F000F000F000F000F000F6E
:105AE000000F000F000F000F000FF00FF00FF00F6E
:105AF000F00FF00FF00FF00FF00FF00FF00FF00FAE
:105B0000F00FF00FF00FF00FF00FF00F000F000F7D
:105B1000000F000F000F000F000F000F000F000F0D
:105B2000F00FF00FF00FF00FF00FF00FF00FF00F7D
:105B3000F00FF00FF00FF00FF00FF00FF00FF00F6D
:105B4000F00FF00FF00FF00FF00FF00FF00FF00F5D
:105B5000F00FF00FF00FF00FF00FF00FF00FF00F4D
:105B6000F00FF00FF00FF00FF00FF00FF00FF00F3D
:105B7000F00FF00FF00FF00FF00FF00FF00FF00F2D
:105B8000F00FF00FF00FF00FF00FF00FF00FF00F1D
:105B9000F00FF00FF00FF00FF00FF00FF00FF00F0D
:105BA000F00FF00FF00FF00FF00FF00FF00FF00FFD
:105BB000F00FF00FF00FF00FF00FF00FF00FF00FED
:105BC000F00FF00FF00FF00FF00FF00FF00FF00FDD
:105BD000F00FF00FF00FF00FF00FF00F000F000FAD
:105BE000000F000F000F000F000F000F000F000F3D
:105BF000000F000F000FF00FF00FF00FF00FF00F7D
:105C0000F00FF00FF00FF00FF00FF00FF00FF00F9C
:105C1000000F000F000F000F000F000F000F000F0C
:105C2000000F000F000F000FF00FF00FF00FF00F3C
:105C3000F00FF00FF00FF00FF00FF00FF00FF00F6C
:105C4000F00FF00FF00FF00FF00FF00FF00FF00F5C
:105C5000F00FF00FF00FF00FF00FF00FF00FF00F4C
:105C6000F00FF00FF00FF00FF00FF00FF00FF00F3C
:105C7000F00FF00FF00FF00FF00FF00FF00FF00F2C
:105C8000F00FF00FF00FF00FF00FF00FF00FF00F1C
:105C9000F00FF00FF00FF00FF00FF00FF00FF00F0C
:105CA000F00FF00FF00FF00FF00FF00FF00FF00FFC
:105CB000F00FF00FF00FF00FF00FF00FF00FF00FEC
:105CC000F00FF00FF00FF00FF00FF00FF00FF00FDC
:105CD000F00FF00FF00FF00FF00FF00FF00FF00FCC
:105CE000F00FF00FF00F000F000F000F000F000F6C
:105CF000000F000F000F000F000F000F000F000F2C
:105D0000000F000F000FF00FF00FF00FF00FF00F6B
:105D1000000F000F000F000F000F000F000F000F0B
:105D2000000F000F000F000F000F000F000FF00F0B
:105D3000F00FF00FF00FF00FF00FF00FF00FF00F6B
:105D4000F00FF00FF00FF00FF00FF00FF00FF00F5B
:105D5000F00FF00FF00FF00FF00FF00FF00FF00F4B
:105D6000F00FF00FF00FF00FF00FF00FF00FF00F3B
:105D7000F00FF00FF00FF00FF00FF00FF00FF00F2B
:105D8000F00FF00FF00FF00FF00FF00FF00FF00F1B
:105D9000F00FF00FF00FF00FF00FF00FF00FF00F0B
:105DA000F00FF00FF00FF00FF00FF00FF00FF00FFB
:105DB000F00FF00FF00FF00FF00FF00FF00FF00FEB
:105DC000F00FF00FF00FF00FF00FF00FF00FF00FDB
:105DD000F00FF00FF00FF00FF00FF00FF00FF00FCB
:105DE000F00FF00FF00FF00FF00FF00FF00FF00FBB
:105DF000000F000F000F000F000F000F000F000F2B
:105E0000000F000F000F000F000F000F000F000F1A
:105E1000000F000F000F000F000F000F000F000F0A
:105E2000000F000F000F000F000F000F000F000FFA
:105E3000000F000FF00FF00FF00FF00FF00FF00F4A
:105E4000F00FF00FF00FF00FF00FF00FF00FF00F5A
:105E5000F00FF00FF00FF00FF00FF00FF00FF00F4A
:105E6000F00FF00FF00FF00FF00FF00FF00FF00F3A
:105E7000F00FF00FF00FF00FF00FF00FF00FF00F2A
:105E8000F00FF00FF00FF00FF00FF00FF00FF00F1A
:105E9000F00FF00FF00FF00FF00FF00FF00FF00F0A
:105EA000F00FF00FF00FF00FF00FF00FF00FF00FFA
:105EB000F00FF00FF00FF00FF00FF00FF00FF00FEA
:105EC000F00FF00FF00FF00FF00FF00FF00FF00FDA
:105ED000F00FF00FF00FF00FF00FF00FF00FF00FCA
:105EE000F00FF00FF00FF00FF00FF00FF00FF00FBA
:105EF000F00FF00FF00FF00FF00F000F000F000F7A
:105F0000000F000F000F000F000F000F000F000F19
:105F1000000F000F000F000F000F000F000F000F09
:105F2000000F000F000F000F000F000F000F000FF9
:105F3000000F000F000F000F000FF00FF00FF00F19
:105F4000F00FF00FF00FF00FF00FF00FF00FF00F59
:105F5000F00FF00FF00FF00FF00FF00FF00FF00F49
:105F6000F00FF00FF00FF00FF00FF00FF00FF00F39
:105F7000F00FF00FF00FF00FF00FF00FF00FF00F29
:105F8000F00FF00FF00FF00FF00FF00FF00FF00F19
:105F9000F00FF00FF00FF00FF00FF00FF00FF00F09
:105FA000F00FF00FF00FF00FF00FF00FF00FF00FF9
:105FB000F00FF00FF00FF00FF00FF00FF00FF00FE9
:105FC000F00FF00FF00FF00FF00FF00FF00FF00FD9
:105FD000F00FF00FF00FF00FF00FF00FF00FF00FC9
:105FE000F00FF00FF00FF00FF00FF00FF00FF00FB9
:105FF000F00FF00FF00FF00FF00FF00FF00FF00FA9
:10600000F00FF00FF00F000F000F000F000F000F48
:10601000000F000F000F000F000F000F000F000F08
:10602000000F000F000F000F000F000F000F000FF8
:10603000000F000F000F000F000F000F000FF00FF8
:10604000F00FF00FF00FF00FF00FF00FF00FF00F58
:10605000F00FF00FF00FF00FF00FF00FF00FF00F48
:10606000F00FF00FF00FF00FF00FF00FF00FF00F38
:10607000F00FF00FF00FF00FF00FF00FF00FF00F28
:10608000F00FF00FF00FF00FF00FF00FF00FF00F18
:10609000F00FF00FF00FF00FF00FF00FF00FF00F08
:1060A000F00FF00FF00FF00FF00FF00FF00FF00FF8
:1060B000F00FF00FF00FF00FF00FF00FF00FF00FE8
:1060C000F00FF00FF00FF00FF00FF00FF00FF00FD8
:1060D000F00FF00FF00FF00FF00FF00FF00FF00FC8
:1060E000F00FF00FF00FF00FF00FF00FF00FF00FB8
:1060F000F00FF00FF00FF00FF00FF00FF00FF00FA8
:10610000F00FF00FF00FF00FF00FF00FF00FF00F97
:10611000000F000F000F000F000F000F000F000F07
:10612000000F000F000F000F000F000F000F000FF7
:10613000000F000F000F000F000F000F000F000FE7
:10614000000F000FF00FF00FF00FF00FF00FF00F37
:10615000F00FF00FF00FF00FF00FF00FF00FF00F47
:10616000F00FF00FF00FF00FF00FF00FF00FF00F37
:10617000F00FF00FF00FF00FF00FF00FF00FF00F27
:10618000F00FF00FF00FF00FF00FF00FF00FF00F17
:10619000F00FF00FF00FF00FF00FF00FF00FF00F07
:1061A000F00FF00FF00FF00FF00FF00FF00FF00FF7
:1061B000F00FF00FF00FF00FF00FF00FF00FF00FE7
:1061C000F00FF00FF00FF00FF00FF00FF00FF00FD7
:1061D000F00FF00FF00FF00FF00FF00FF00FF00FC7
:1061E000F00FF00FF00FF00FF00FF00FF00FF00FB7
:1061F000F00FF00FF00FF00FF00FF00FF00FF00FA7
:10620000F00FF00FF00FF00FF00FF00FF00FF00F96
:10621000F00FF00FF00FF00FF00FF00F000F000F66
:10622000000F000F000F000F000F000F000F000FF6
:10623000000F000F000F000F000F000F000F000FE6
:10624000000F000F000F000FF00FF00FF00FF00F16
:10625000F00FF00FF00FF00FF00FF00FF00FF00F46
:10626000F00FF00FF00FF00FF00FF00FF00FF00F36
:10627000F00FF00FF00FF00FF00FF00FF00FF00F26
:10628000F00FF00FF00FF00FF00FF00FF00FF00F16
:10629000F00FF00FF00FF00FF00FF00FF00FF00F06
:1062A000F00FF00FF00FF00FF00FF00FF00FF00FF6
:1062B000F00FF00FF00FF00FF00FF00FF00FF00FE6
:1062C000F00FF00FF00FF00FF00FF00FF00FF00FD6
:1062D000F00FF00FF00FF00FF00FF00FF00FF00FC6
:1062E000F00FF00FF00FF00FF00FF00FF00FF00FB6
:1062F000F00FF00FF00FF00FF00FF00FF00FF00FA6
:10630000F00FF00FF00FF00FF00FF00FF00FF00F95
:10631000F00FF00FF00FF00FF00FF00FF00FF00F85
:10632000F00FF00FF00F000F000F000F000F000F25
:10633000000F000F000F000F000F000F000F000FE5
:10634000000F000F000F000F000F000F000FF00FE5
:10635000F00FF00FF00FF00FF00FF00FF00FF00F45
:10636000F00FF00FF00FF00FF00FF00FF00FF00F35
:10637000F00FF00FF00FF00FF00FF00FF00FF00F25
:10638000F00FF00FF00FF00FF00FF00FF00FF00F15
:10639000F00FF00FF00FF00FF00FF00FF00FF00F05
:1063A000F00FF00FF00FF00FF00FF00FF00FF00FF5
:1063B000F00FF00FF00FF00FF00FF00FF00FF00FE5
:1063C000F00FF00FF00FF00FF00FF00FF00FF00FD5
:1063D000F00FF00FF00FF00FF00FF00FF00FF00FC5
:1063E000F00FF00FF00FF00FF00FF00FF00FF00FB5
:1063F000F00FF00FF00FF00FF00FF00FF00FF00FA5
:10640000F00FF00FF00FF00FF00FF00FF00FF00F94
:10641000F00FF00FF00FF00FF00FF00FF00FF00F84
:10642000F00FF00FF00FF00FF00FF00FF00FF00F74
:10643000F00FF00FF00FF00F000F000F000F000F24
:10644000000F000F000F000F000F000FF00FF00FF4
:10645000F00FF00FF00FF00FF00FF00FF00FF00F44
:10646000F00FF00FF00FF00FF00FF00FF00FF00F34
:10647000F00FF00FF00FF00FF00FF00FF00FF00F24
:10648000F00FF00FF00FF00FF00FF00FF00FF00F14
:10718000F00FF00FF00FF00FF00F00000000000004
:107190000000000000000000F00FF00FF00FF00FF3
:1071A000F00FF00FF00FF00FF00FF00FF00FF00FE7
:1071B000F00FF00FF00FF00FF00FF00FF00FF00FD7
:1071C000F00FF00FF00FF00FF00FF00FF00FF00FC7
:1071D000F00FF00FF00FF00FF00FF00FF00FF00FB7
:1071E000F00FF00FF00FF00FF00FF00FF00F0000A6
:1071F000F00FF00FF00FF00FF00FF00FF00FF00F97
:10720000F00FF00FF00FF00FF00FF00FF00FF00F86
:10721000F00FF00FF00FF00FF00FF00FF00FF00F76
:10722000F00FF00FF00FF00FF00FF00FF00FF00F66
:10723000F00FF00FF00FF00FF00FF00FF00FF00F56
:10724000F00FF00FF00FF00FF00FF00FF00FF00F46
:10725000F00FF00FF00FF00FF00FF00FF00FF00F36
:10726000F00FF00FF00FF00FF00FF00FF00FF00F26
:10727000F00FF00FF00FF00FF00FF00FF00FF00F16
:10728000F00FF00FF00FF00FF00FF00FF00F000005
:1072900000000000000000000000000000000000EE
:1072A00000000000F00FF00FF00FF00FF00FF00FE4
:1072B000F00FF00FF00FF00FF00FF00FF00FF00FD6
:1072C000F00FF00FF00FF00FF00FF00FF00FF00FC6
:1072D000F00FF00FF00FF00FF00FF00FF00FF00FB6
:1072E000F00FF00FF00FF00FF00FF00FF00FF00FA6
:1072F000F00F000000000000F00FF00FF00FF00F93
:10730000F00FF00FF00FF00FF00FF00FF00FF00F85
:10731000F00FF00FF00FF00FF00FF00FF00FF00F75
:10732000F00FF00FF00FF00FF00FF00FF00FF00F65
:10733000F00FF00FF00FF00FF00FF00FF00FF00F55
:10734000F00FF00FF00FF00FF00FF00FF00FF00F45
:10735000F00FF00FF00FF00FF00FF00FF00FF00F35
:10736000F00FF00FF00FF00FF00FF00FF00FF00F25
:10737000F00FF00FF00FF00FF00FF00FF00FF00F15
:10738000F00FF00FF00FF00FF00FF00FF00FF00F05
:10739000F00FF00F000000000000000000000000EF
:1073A0000000000000000000000000000000F00FDE
:1073B000F00FF00FF00FF00FF00FF00FF00FF00FD5
:1073C000F00FF00FF00FF00FF00FF00FF00FF00FC5
:1073D000F00FF00FF00FF00FF00FF00FF00FF00FB5
:1073E000F00FF00FF00FF00FF00FF00FF00FF00FA5
:1073F000F00FF00FF00FF00F000000000000000091
:10740000F00FF00FF00FF00FF00FF00FF00FF00F84
:10741000F00FF00FF00FF00FF00FF00FF00FF00F74
:10742000F00FF00FF00FF00FF00FF00FF00FF00F64
:10743000F00FF00FF00FF00FF00FF00FF00FF00F54
:10744000F00FF00FF00FF00FF00FF00FF00FF00F44
:10745000F00FF00FF00FF00FF00FF00FF00FF00F34
:10746000F00FF00FF00FF00FF00FF00FF00FF00F24
:10747000F00FF00FF00FF00FF00FF00FF00FF00F14
:10748000F00FF00FF00FF00FF00FF00FF00FF00F04
:10749000F00FF00FF00FF00FF00F000000000000F1
:1074A00000000000000000000000000000000000DC
:1074B000000000000000F00FF00FF00FF00FF00FD1
:1074C000F00FF00FF00FF00FF00FF00FF00FF00FC4
:1074D000F00FF00FF00FF00FF00FF00FF00FF00FB4
:1074E000F00FF00FF00FF00FF00FF00FF00FF00FA4
:1074F000F00FF00FF00FF00FF00FF00FF00FF00F94
:107500000000000000000000F00FF00FF00FF00F7F
:10751000F00FF00FF00FF00FF00FF00FF00FF00F73
:10752000F00FF00FF00FF00FF00FF00FF00FF00F63
:10753000F00FF00FF00FF00FF00FF00FF00FF00F53
:10754000F00FF00FF00FF00FF00FF00FF00FF00F43
:10755000F00FF00FF00FF00FF00FF00FF00FF00F33
:10756000F00FF00FF00FF00FF00FF00FF00FF00F23
:10757000F00FF00FF00FF00FF00FF00FF00FF00F13
:10758000F00FF00FF00FF00FF00FF00FF00FF00F03
:10759000F00FF00FF00FF00FF00FF00FF00FF00FF3
:1075A000F00F00000000000000000000F00FF00FDE
:1075B000F00FF00FF00F00000000000000000000CE
:1075C000F00FF00FF00FF00FF00FF00FF00FF00FC3
:1075D000F00FF00FF00FF00FF00FF00FF00FF00FB3
:1075E000F00FF00FF00FF00FF00FF00FF00FF00FA3
:1075F000F00FF00FF00FF00FF00FF00FF00FF00F93
:10760000F00FF00FF00FF00F00000000000000007E
:10761000F00FF00FF00FF00FF00FF00FF00FF00F72
:10762000F00FF00FF00FF00FF00FF00FF00FF00F62
:10763000F00FF00FF00FF00FF00FF00FF00FF00F52
:10764000F00FF00FF00FF00FF00FF00FF00FF00F42
:10765000F00FF00FF00FF00FF00FF00FF00FF00F32
:10766000F00FF00FF00FF00FF00FF00FF00FF00F22
:10767000F00FF00FF00FF00FF00FF00FF00FF00F12
:10768000F00FF00FF00FF00FF00FF00FF00FF00F02
:10769000F00FF00FF00FF00FF00FF00FF00FF00FF2
:1076A000F00FF00FF00FF00FF00F000000000000DF
:1076B0000000F00FF00FF00FF00FF00FF00FF00FD1
:1076C0000000000000000000F00FF00FF00F0000BD
:1076D000000000000000F00FF00FF00FF00FF00FAF
:1076E000F00FF00F0000000000000000F00FF00F9E
:1076F000F00FF00FF00F000000000000000000008D
:107700000000F00FF00FF00FF00FF00F000000007E
:107710000000000000000000000000000000F00F6A
:10772000F00FF00FF00FF00FF00F0000000000005E
:10773000000000000000F00FF00FF00FF00FF00F4E
:10774000F00FF00F0000000000000000F00FF00F3D
:1077500000000000000000000000F00FF00FF00F2C
:10776000F00F00000000000000000000F00FF00F1C
:10777000F00FF00FF00FF00FF00FF00FF00F000010
:1077800000000000000000000000F00FF00FF00FFC
:10779000F00FF00FF00FF00FF00FF00FF00FF00FF1
:1077A000F00FF00FF00FF00FF00FF00FF00FF00FE1
:1077B000F00F00000000000000000000F00FF00FCC
:1077C000F00FF00FF00FF00FF00FF00FF00FF00FC1
:1077D000F00FF00FF00F0000000000000000F00FAD
:1077E000F00FF00FF00FF00FF00FF00F000000009F
:1077F00000000000F00FF00FF00F0000000000008C
:107800000000000000000000000000000000F00F79
:10781000F00FF00F0000000000000000000000006A
:10782000000000000000F00FF00FF00FF00FF00F5D
:107830000000000000000000000000000000000048
:10784000F00FF00FF00FF00FF00FF00F000000003E
:1078500000000000F00F0000000000000000000029
:1078600000000000F00F0000000000000000000019
:10787000000000000000F00FF00FF00FF00FF00F0D
:10788000F00F0000000000000000000000000000F9
:10789000000000000000F00FF00FF00FF00FF00FED
:1078A000F00FF00FF00FF00FF00FF00FF00FF00FE0
:1078B000F00FF00FF00FF00FF00F000000000000CD
:1078C0000000000000000000F00FF00FF00FF00FBC
:1078D000F00FF00FF00FF00FF00FF00FF00FF00FB0
:1078E0000000000000000000F00FF00FF00FF00F9C
:1078F000F00F0000000000000000F00FF00FF00F8C
:10790000F00F000000000000000000000000000078
:107910000000000000000000F00FF00F0000000069
:107920000000000000000000000000000000F00F58
:10793000F00FF00FF00F000000000000000000004A
:1079400000000000000000000000F00FF00FF00F3A
:10795000F00FF00F00000000000000000000000029
:107960000000000000000000000000000000000017
:107970000000000000000000000000000000F00F08
:10798000F00FF00FF00FF00FF00F000000000000FC
:1079900000000000000000000000000000000000E7
:1079A000F00FF00FF00FF00FF00FF00FF00FF00FDF
:1079B000F00FF00FF00FF00FF00FF00FF00FF00FCF
:1079C000F00FF00F000000000000000000000000B9
:1079D0000000000000000000F00FF00FF00FF00FAB
:1079E000F00FF00FF00FF00F00000000000000009B
:1079F000F00FF00FF00FF00FF00F0000000000008C
:107A00000000F00FF00FF00F000000000000000079
:107A1000F00FF00FF00FF00F00000000000000006A
:107A20000000F00FF00FF00F000000000000000059
:107A3000F00FF00FF00FF00FF00FF00F000000004C
:107A400000000000F00FF00FF00FF00F000000003A
:107A500000000000F00FF00FF00FF00F000000002A
:107A6000000000000000F00FF00FF00F0000000019
:107A70000000000000000000F00FF00FF00F000009
:107A80000000000000000000F00FF00FF00FF00FFA
:107A90000000000000000000F00FF00FF00FF00FEA
:107AA00000000000000000000000F00FF00FF00FD9
:107AB000F00FF00FF00FF00FF00FF00FF00FF00FCE
:107AC000F00FF00FF00FF00FF00FF00FF00F0000BD
:107AD00000000000000000000000000000000000A6
:107AE00000000000F00FF00FF00FF00FF00FF00F9C
:107AF0000000000000000000F00FF00FF00FF00F8A
:107B0000F00F0000000000000000F00FF00FF00F79
:107B10000000000000000000F00FF00FF00FF00F69
:107B2000F00F00000000F00FF00FF00FF00FF00F5B
:107B30000000000000000000F00FF00FF00FF00F49
:107B4000F00FF00F000000000000F00FF00FF00F3A
:107B5000F00FF00FF00F000000000000F00FF00F2A
:107B6000F00FF00F00000000000000000000F00F18
:107B7000F00FF00FF00F0000000000000000000008
:107B8000F00FF00FF00FF00F0000000000000000F9
:107B9000F00FF00FF00FF00F0000000000000000E9
:107BA000F00FF00FF00FF00FF00F00000000F00FDB
:107BB000F00FF00FF00FF00FF00FF00FF00FF00FCD
:107BC000F00FF00FF00FF00FF00FF00FF00FF00FBD
:107BD000F00FF00FF00FF00F0000000000000000A9
:107BE0000000000000000000000000000000F00F96
:107BF000F00FF00FF00FF00FF00F0000000000008A
:107C0000F00FF00FF00FF00FF00F00000000000079
:107C1000F00FF00FF00FF00F000000000000000068
:107C20000000F00FF00FF00FF00FF00FF00FF00F5B
:107C3000F00FF00FF00FF00F000000000000000048
:107C4000F00FF00FF00FF00FF00F00000000000039
:107C50000000F00FF00FF00FF00FF00FF00F00002A
:107C6000000000000000F00FF00FF00F0000000017
:107C700000000000F00FF00FF00FF00FF00F000009
:107C8000000000000000F00FF00FF00FF00FF00FF9
:107C90000000000000000000F00FF00FF00FF00FE8
:107CA00000000000000000000000F00FF00FF00FD7
:107CB000F00FF00FF00FF00FF00FF00FF00FF00FCC
:107CC000F00FF00FF00FF00FF00FF00FF00FF00FBC
:107CD000F00FF00FF00FF00FF00FF00FF00FF00FAC
:107CE000F00FF00F00000000000000000000000096
:107CF0000000000000000000F00FF00FF00FF00F88
:107D0000F00F0000000000000000F00FF00FF00F77
:107D10000000000000000000F00FF00FF00FF00F67
:107D2000F00F000000000000000000000000000054
:107D3000F00FF00FF00FF00FF00FF00FF00FF00F4B
:107D40000000000000000000F00FF00FF00FF00F37
:107D5000F00F000000000000000000000000000024
:107D60000000000000000000000000000000F00F14
:107D7000F00FF00F0000000000000000F00FF00F07
:107D8000F00FF00FF00F0000000000000000F00FF7
:107D9000F00FF00FF00FF00F0000000000000000E7
:107DA000F00FF00FF00FF00FF00F000000000000D8
:107DB0000000000000000000F00FF00FF00FF00FC7
:107DC000F00FF00FF00FF00FF00FF00FF00FF00FBB
:107DD000F00FF00FF00FF00FF00FF00FF00FF00FAB
:107DE000F00FF00FF00FF00FF00FF00FF00FF00F9B
:107DF000F00FF00F00000000000000000000000085
:107E00000000F00FF00FF00FF00F00000000000076
:107E10000000F00FF00FF00F000000000000000065
:107E2000F00FF00FF00FF00FF00F00000000000057
:107E3000000000000000000000000000F00FF00F44
:107E4000F00FF00FF00FF00F000000000000000036
:107E5000F00FF00FF00FF00FF00F00000000000027
:107E60000000000000000000000000000000000012
:107E7000000000000000F00FF00FF00F0000000005
:107E800000000000F00FF00FF00FF00FF00F0000F7
:107E9000000000000000F00FF00FF00FF00FF00FE7
:107EA0000000000000000000F00FF00FF00FF00FD6
:107EB000F00F0000000000000000000000000000C3
:107EC00000000000F00FF00FF00FF00FF00FF00FB8
:107ED000F00FF00FF00FF00FF00FF00FF00FF00FAA
:107EE000F00FF00FF00FF00FF00FF00FF00FF00F9A
:107EF000F00FF00FF00FF00FF00FF00FF00FF00F8A
:107F000000000000000000000000F00FF00FF00F74
:107F1000F00FF00F000000000000F00FF00FF00F66
:107F2000000000000000F00FF00FF00FF00FF00F56
:107F3000F00FF00FF00F0000000000000000000044
:107F40000000000000000000F00FF00FF00FF00F35
:107F50000000000000000000F00FF00FF00FF00F25
:107F6000F00F000000000000000000000000000012
:107F70000000000000000000000000000000F00F02
:107F8000F00FF00F0000000000000000F00FF00FF5
:107F9000F00FF00FF00F0000000000000000F00FE5
:107FA000F00FF00FF00FF00F0000000000000000D5
:107FB000F00FF00FF00FF00FF00FF00FF00F0000C8
:107FC00000000000000000000000000000000000B1
:107FD000F00FF00FF00FF00FF00FF00FF00FF00FA9
:107FE000F00FF00FF00FF00FF00FF00FF00FF00F99
:107FF0000000000000000000F00FF00FF00FF00F85
:10800000F00FF00FF00FF00FF00F00000000000075
:108010000000F00FF00FF00FF00FF00F0000000065
:1080200000000000F00F0000000000000000F00F52
:10803000F00FF00FF00FF00FF00FF00FF00FF00F48
:10804000F00FF00F00000000000000000000000032
:10805000F00FF00FF00FF00F000000000000000024
:10806000F00FF00FF00FF00FF00F00000000000015
:108070000000F00FF00FF00FF00FF00FF00FF00F07
:10808000F00FF00FF00FF00FF00FF00F00000000F6
:1080900000000000F00FF00FF00FF00FF00F0000E5
:1080A000000000000000F00FF00FF00FF00FF00FD5
:1080B0000000000000000000F00FF00FF00FF00FC4
:1080C000F00FF00FF00FF00FF00FF00F00000000B6
:1080D0000000000000000000F00FF00FF00FF00FA4
:1080E000F00FF00FF00FF00FF00FF00FF00FF00F98
:1080F000F00FF00FF00FF00F000000000000000084
:108100000000F00FF00FF00FF00FF00FF00FF00F76
:10811000F00F0000000000000000F00FF00FF00F63
:10812000F00FF00FF00F000000000000F00F000053
:10813000000000000000F00FF00FF00FF00FF00F44
:10814000F00FF00FF00FF00FF00FF00FF00FF00F37
:1081500000000000000000000000F00FF00FF00F22
:108160000000000000000000F00FF00FF00FF00F13
:10817000F00F0000000000000000F00FF00FF00F03
:10818000F00FF00FF00FF00FF00FF00FF00FF00FF7
:10819000F00FF00F0000000000000000F00FF00FE3
:1081A000F00FF00FF00F0000000000000000F00FD3
:1081B000F00FF00FF00FF00F0000000000000000C3
:1081C000F00FF00FF00FF00FF00FF00FF00FF00FB7
:1081D000F00FF00FF00FF00F0000000000000000A3
:1081E0000000F00FF00FF00FF00FF00FF00FF00F96
:1081F000F00FF00FF00FF00FF00FF00FF00FF00F87
:10820000F00F00000000000000000000F00FF00F71
:10821000F00FF00FF00FF00F000000000000000062
:108220000000F00FF00FF00FF00FF00FF00F000054
:1082300000000000F00F000000000000F00FF00F41
:10824000F00FF00FF00FF00FF00F00000000F00F34
:10825000F00FF00FF00FF00FF00F00000000000023
:108260000000F00FF00FF00F000000000000000011
:10827000F00FF00FF00FF00FF00FF00F0000000004
:1082800000000000F00FF00FF00FF00FF00FF00FF4
:10829000F00FF00FF00FF00FF00FF00F00000000E4
:1082A00000000000F00FF00FF00FF00FF00F0000D3
:1082B000000000000000F00FF00FF00FF00FF00FC3
:1082C0000000000000000000F00FF00FF00FF00FB2
:1082D000F00F00000000F00FF00FF00FF00FF00FA4
:1082E000F00F0000000000000000F00FF00FF00F92
:1082F000F00FF00FF00FF00FF00FF00FF00FF00F86
:10830000F00FF00FF00FF00FF00F00000000000072
:10831000000000000000000000000000000000005D
:108320000000000000000000F00FF00FF00FF00F51
:10833000F00FF00FF00F0000000000000000000040
:1083400000000000F00FF00FF00FF00FF00F000032
:108350000000000000000000F00FF00FF00FF00F21
:10836000F00F0000000000000000F00FF00FF00F11
:108370000000000000000000F00FF00FF00FF00F01
:10838000F00FF00F00000000000000000000F00FF0
:10839000F00FF00FF00F00000000F00FF00FF00FE3
:1083A000F00FF00F0000000000000000F00FF00FD1
:1083B000F00FF00FF00F0000000000000000F00FC1
:1083C000F00FF00FF00FF00F0000000000000000B1
:1083D000F00FF00FF00F00000000000000000000A0
:1083E000F00FF00FF00FF00FF00F00000000000092
:1083F0000000F00FF00FF00FF00FF00FF00FF00F84
:10840000F00FF00FF00FF00FF00FF00FF00FF00F74
:10841000F00FF00F0000000000000000000000005E
:10842000000000000000000000000000000000004C
:10843000F00FF00FF00FF00FF00FF00FF00FF00F44
:1084400000000000000000000000F00FF00FF00F2F
:10845000F00FF00FF00FF00F000000000000000020
:10846000000000000000000000000000000000000C
:10847000F00FF00FF00FF00F000000000000000000
:10848000000000000000F00FF00FF00FF00F0000F0
:1084900000000000000000000000000000000000DC
:1084A000000000000000F00FF00FF00F00000000CF
:1084B00000000000F00FF00FF00FF00FF00F0000C1
:1084C000000000000000F00FF00FF00FF00FF00FB1
:1084D0000000000000000000F00FF00FF00FF00FA0
:1084E000000000000000000000000000000000008C
:1084F0000000000000000000F00FF00FF00FF00F80
:10850000F00FF00FF00FF00FF00FF00FF00FF00F73
:10851000F00FF00FF00FF00FF00FF00FF00F000062
:10852000000000000000000000000000000000004B
:10853000000000000000F00FF00FF00FF00FF00F40
:10854000F00FF00FF00FF00F00000000000000002F
:108550000000F00FF00FF00FF00FF00FF00FF00F22
:10856000F00F00000000000000000000000000000C
:108570000000000000000000F00FF00FF00FF00FFF
:10858000F00F000000000000000000000000F00FED
:10859000F00FF00FF00FF00F0000000000000000DF
:1085A000000000000000000000000000F00FF00FCD
:1085B000F00FF00F0000000000000000F00FF00FBF
:1085C000F00FF00FF00F0000000000000000F00FAF
:1085D000F00FF00FF00FF00F00000000000000009F
:1085E000F00FF00FF00FF00FF00F00000000000090
:1085F000000000000000000000000000000000007B
:10860000F00FF00FF00FF00FF00FF00FF00FF00F72
:10861000F00FF00FF00FF00FF00FF00FF00FF00F62
:10862000F00FF00FF00FF00FF00F0000000000004F
:108630000000000000000000F00FF00FF00FF00F3E
:10864000F00FF00FF00FF00FF00FF00FF00FF00F32
:1086500000000000000000000000F00FF00FF00F1D
:10866000F00FF00FF00FF00FF00FF00FF00F000011
:10867000000000000000000000000000F00FF00FFC
:10868000F00FF00FF00FF00FF00FF00F00000000F0
:10869000000000000000F00FF00FF00FF00FF00FDF
:1086A000F00F0000000000000000000000000000CB
:1086B000F00FF00FF00FF00FF00FF00F00000000C0
:1086C00000000000F00FF00FF00FF00FF00F0000AF
:1086D000000000000000F00FF00FF00FF00FF00F9F
:1086E0000000000000000000F00FF00FF00FF00F8E
:1086F000F00FF00FF00F000000000000000000007D
:1087000000000000F00FF00FF00FF00FF00FF00F6F
:10871000F00FF00FF00FF00FF00FF00FF00FF00F61
:10872000F00FF00FF00FF00FF00FF00FF00FF00F51
:10873000F00FF00FF00FF00FF00FF00FF00FF00F41
:10874000F00FF00FF00FF00FF00FF00FF00FF00F31
:10875000F00FF00FF00FF00F00000000000000001D
:10876000F00FF00FF00FF00FF00FF00FF00FF00F11
:10877000F00FF00FF00FF00FF00FF00FF00FF00F01
:10878000F00FF00FF00FF00FF00FF00FF00FF00FF1
:10879000F00FF00FF00FF00FF00FF00FF00FF00FE1
:1087A000F00FF00FF00FF00FF00FF00FF00FF00FD1
:1087B000F00FF00FF00FF00FF00FF00FF00FF00FC1
:1087C000F00FF00FF00FF00FF00FF00FF00FF00FB1
:1087D000F00FF00FF00FF00FF00FF00FF00FF00FA1
:1087E000F00FF00FF00FF00FF00FF00FF00FF00F91
:1087F000F00FF00FF00FF00FF00FF00FF00FF00F81
:10880000F00FF00FF00FF00FF00FF00FF00FF00F70
:10881000F00FF00FF00FF00FF00FF00FF00FF00F60
:10882000F00FF00FF00FF00FF00FF00FF00FF00F50
:10883000F00FF00FF00FF00FF00FF00FF00FF00F40
:10884000F00FF00FF00FF00FF00FF00FF00FF00F30
:10885000F00FF00FF00FF00FF00FF00FF00FF00F20
:108860000000000000000000F00FF00FF00FF00F0C
:10887000F00FF00FF00FF00FF00FF00FF00FF00F00
:10888000F00FF00FF00FF00FF00FF00FF00FF00FF0
:10889000F00FF00FF00FF00FF00FF00FF00FF00FE0
:1088A000F00FF00FF00FF00FF00FF00FF00FF00FD0
:1088B000F00FF00FF00FF00FF00FF00FF00FF00FC0
:1088C000F00FF00FF00FF00FF00FF00FF00FF00FB0
:1088D000F00FF00FF00FF00FF00FF00FF00FF00FA0
:1088E000F00FF00FF00FF00FF00FF00FF00FF00F90
:1088F000F00FF00FF00FF00FF00FF00FF00FF00F80
:10890000F00FF00FF00FF00FF00FF00FF00FF00F6F
:10891000F00FF00FF00FF00FF00FF00FF00FF00F5F
:10892000F00FF00FF00FF00FF00FF00FF00FF00F4F
:10893000F00FF00FF00FF00FF00FF00FF00FF00F3F
:10894000F00FF00FF00FF00FF00FF00FF00FF00F2F
:10895000F00FF00FF00FF00FF00FF00FF00FF00F1F
:10896000F00FF00FF00F000000000000000000000A
:10897000F00FF00FF00FF00FF00FF00FF00FF00FFF
:10898000F00FF00FF00FF00FF00FF00FF00FF00FEF
:10899000F00FF00FF00FF00FF00FF00FF00FF00FDF
:1089A000F00FF00FF00FF00FF00FF00FF00FF00FCF
:1089B000F00FF00FF00FF00FF00FF00FF00FF00FBF
:1089C000F00FF00FF00FF00FF00FF00FF00FF00FAF
:1089D000F00FF00FF00FF00FF00FF00FF00FF00F9F
:1089E000F00FF00FF00FF00FF00FF00FF00FF00F8F
:1089F000F00FF00FF00FF00FF00FF00FF00FF00F7F
:108A0000F00FF00FF00FF00FF00FF00FF00FF00F6E
:108A1000F00FF00FF00FF00FF00FF00FF00FF00F5E
:108A2000F00FF00FF00FF00FF00FF00FF00FF00F4E
:108A3000F00FF00FF00FF00FF00FF00FF00FF00F3E
:108A4000F00FF00FF00FF00FF00FF00FF00FF00F2E
:108A5000F00FF00FF00FF00FF00FF00FF00FF00F1E
:108A6000F00FF00FF00FF00F00000000000000000A
:108A7000000000000000F00FF00FF00FF00FF00FFB
:108A8000F00FF00FF00FF00FF00FF00FF00FF00FEE
:108A9000F00FF00FF00FF00FF00FF00FF00FF00FDE
:108AA000F00FF00FF00FF00FF00FF00FF00FF00FCE
:108AB000F00FF00FF00FF00FF00FF00FF00FF00FBE
:108AC000F00FF00FF00FF00FF00FF00FF00FF00FAE
:108AD000F00FF00FF00FF00FF00FF00FF00FF00F9E
:108AE000F00FF00FF00FF00FF00FF00FF00FF00F8E
:108AF000F00FF00FF00FF00FF00FF00FF00FF00F7E
:108B0000F00FF00FF00FF00FF00FF00FF00FF00F6D
:108B1000F00FF00FF00FF00FF00FF00FF00FF00F5D
:108B2000F00FF00FF00FF00FF00FF00FF00FF00F4D
:108B3000F00FF00FF00FF00FF00FF00FF00FF00F3D
:108B4000F00FF00FF00FF00FF00FF00FF00FF00F2D
:108B5000F00FF00FF00FF00FF00FF00FF00FF00F1D
:108B6000F00FF00FF00FF00FF00FF00FF00FF00F0D
:108B7000000000000000000000000000F00FF00FF7
:108B8000F00FF00FF00FF00FF00FF00FF00FF00FED
:108B9000F00FF00FF00FF00FF00FF00FF00FF00FDD
:108BA000F00FF00FF00FF00FF00FF00FF00FF00FCD
:108BB000F00FF00FF00FF00FF00FF00FF00FF00FBD
:108BC000F00FF00FF00FF00FF00FF00FF00FF00FAD
:108BD000F00FF00FF00FF00FF00FF00FF00FF00F9D
:108BE000F00FF00FF00FF00FF00FF00FF00FF00F8D
:108BF000F00FF00FF00FF00FF00FF00FF00FF00F7D
:108C0000F00FF00FF00FF00FF00FF00FF00FF00F6C
:108C1000F00FF00FF00FF00FF00FF00FF00FF00F5C
:108C2000F00FF00FF00FF00FF00FF00FF00FF00F4C
:108C3000F00FF00FF00FF00FF00FF00FF00FF00F3C
:108C4000F00FF00FF00FF00FF00FF00FF00FF00F2C
:108C5000F00FF00FF00FF00FF00FF00FF00FF00F1C
:108C6000F00FF00FF00FF00FF00FF00FF00FF00F0C
:108C7000F00FF00FF00FF00F0000000000000000F8
:108C80000000F00FF00FF00FF00FF00FF00FF00FEB
:108C9000F00FF00FF00FF00FF00FF00FF00FF00FDC
:108CA000F00FF00FF00FF00FF00FF00FF00FF00FCC
:108CB000F00FF00FF00FF00FF00FF00FF00FF00FBC
:108CC000F00FF00FF00FF00FF00FF00FF00FF00FAC
:10A92000C2788A18DFF83C32DA70827889B20B0A72
:10A930009A18DFF830329A70DFF828224378537083
:10A94000DFF8202203781370DFF81822927889B29A
:10A950000B0ADBB29A4212D2DFF808225278521C5C
:10A96000DFF800325A70DFF8FC215278002A06D155
:10A97000DFF8F0211278521CDFF8E8311A70DFF8A6
:10A98000E421D27889B2CBB29A421CDADFF8D42122
:10A990009278521CDFF8CC319A70DFF8C821927897
:10A9A000002A10D1DFF8BC215278521CDFF8B431F4
:10A9B0005A70DFF8B0215278002A04D1694A12781F
:10A9C000521C684B1A707047F0B40C0092B25618C3
:10A9D000761E3500AC420CD22678677817EB062637
:10A9E0003300181880B29BB2984200D2401CA41CBD
:10A9F000F0E7AC4208D1267836023300181880B24E
:10AA00009BB2984200D2401C80B2F0BC704710B597
:10AA1000142255490020FFF7D7FF0400A4B2002CF0
:10AA200002D14FF6FF7003E0200080B201F0E6F89B
:10AA300080B210BD70B504004C48007C4B49497C85
:10AA400011EB002014380500E4B26019060008225A
:10AA50004749300080B2FFF7B7FF06002A0092B2E4
:10AA60004449300080B2FFF7AFFF0600B6B2002EB7
:10AA700002D14FF6FF7003E0300080B201F0BEF863
:10AA800080B270BD80B50620FFF7D4FF02BD3A4802
:10AA9000002101703848007828280BD23648007809
:10AAA0003649002221F8102033480078401C3249F2
:10AAB0000870EFE73048002101702F4800782828FF
:10AAC0000DD22D480078CC212D4A01FB0020002119
:10AAD000417629480078401C27490870EDE729484D
:10AAE0004FF4806101807047234900220A70224997
:10AAF0000978282912D220490978204A32F8111001
:10AB0000002905D11C4909781C4A22F8110005E0EA
:10AB100019490978491C184A1170E8E7704710B5BF
:10AB20000400210089B2DFF8B00C00680830FFF79C
:10AB3000F7FEDFF8A40C00680A4909780172DFF813
:10AB4000980C0068074949784172DFF88C0C00685E
:10AB5000044989788172DFF8800C00680149C9785E
:10AB6000C17210BD842F00106228001054280010FC
:10AB70006E280010762800109D2F0010A82E0010BF
:10AB800074080010962F001038B50400DFF8480C48
:10AB900000680500DFF8CC0DDFF8401C0860DFF826
:10ABA000C81D0860E4B2032C11D1687E10F00F00BC
:10ABB00003280AD1288A002807D1DFF8B00D082120
:10ABC000017002F0D6FE00F094BE01F00CB8E4B2C1
:10ABD000022C40F0A980DFF8980DC078401CDFF807
:10ABE000901DC870C0B200281AD1DFF8840D80789B
:10ABF000401CDFF87C1D8870C0B2002810D1DFF83F
:10AC0000700D4078401CDFF8681D4870C0B2002805
:10AC100006D1DFF85C0D0078401CDFF8541D087089
:10AC2000DFF8500D00210180DFF84C0D002101807C
:10AC3000687E072802D0687E052808D1A87E401CBF
:10AC4000A876A87E78286DD1002068766AE0687EB4
:10AC5000002867D0288A002857D0A87E411EA976F0
:10AC6000C0B200285ED1E87E082808D0687E02289D
:10AC700002D0687E012811D1E87E05280ED100207F
:10AC80006876DFF8E80C8021017002F072FEDFF8D0
:10AC9000EC0C142180F82F1000F008BFE87E052886
:10ACA00001D3042000E0E87E032111FA00F0A87629
:10ACB000E87E401CE876DFF8C80CC08C401CDFF84A
:10ACC000C01CC884687E10F00F00C0B201280AD0F2
:10ACD000022809D003280DD0042813D0062811D04B
:10ACE00008280FD010E096E3DFF8900C002180F8E0
:10ACF0002F1095E3DFF8740C0421017002F039FE87
:10AD000000F045BE00F096BD0CE0687E10F00F002C
:10AD1000032807D1DFF8540C0821017002F029FE46
:10AD200000F0E7BD00F05FBFDFF8540C0088401C66
:10AD3000DFF84C1C0880DFF8440C807B45280FD0DE
:10AD4000DFF83C0C8088401CDFF8341C8880DFF87A
:10AD5000300CC088401CDFF8281CC88000F043BFBE
:10AD6000DFF8100C0088DFF8141C097CDFF80C2CCD
:10AD7000527C12EB0121884211DBDFF8000C007CD1
:10AD8000DFF8F81B497C11EB0020DFF8E81B088096
:10AD9000DFF8E80B007D3F21084207D101E000F019
:10ADA00022BFDFF8D80B407D00280FD0DFF8D00B92
:10ADB0008088401CDFF8C81B8880DFF8C40B8089BE
:10ADC000401CDFF8BC1B888100F00DBFDFF8B80C19
:10ADD0000088DFF8B81C0988884207D1DFF8A80C82
:10ADE0004088DFF8A81C4988884218D0DFF88C0B0F
:10ADF000C08BDFF8941C0988884207D1DFF87C0BF0
:10AE0000008CDFF8841C4988884208D0DFF8700B7A
:10AE10008088401CDFF8681B888000F0E4BEFFF7E4
:10AE2000F6FD4FF6FF7188420FD0DFF8540B808893
:10AE3000401CDFF84C1B8880DFF8440BC089401CA5
:10AE4000DFF83C1BC88100F0CEBEDFF8300BC07DC0
:10AE500006280DD1DFF8280B408B401CDFF8201BA3
:10AE60004883FFF70FFE4FF6FF7188426ED17DE0F9
:10AE7000DFF8080BC07D01280FD0DFF8040B8088B5
:10AE8000401CDFF8FC1A8880DFF8F40A008A401CB6
:10AE9000DFF8EC1A088200F0A6BEDFF8E40A408A68
:10AEA000401CDFF8DC1A4882DFF8D00A90F8220054
:10AEB00008280FD0DFF8C80AC08A401CDFF8C01A83
:10AEC000C882DFF8BC0A008B401CDFF8B41A088384
:10AED00000F089BEDFF8A40A002180F82210DFF814
:10AEE0009C0A808C4FF6F771884207D3DFF88C0AF2
:10AEF000808C0930DFF8841A888406E0DFF87C0A49
:10AF0000808C0830DFF8741A8884DFF8700ADFF864
:10AF10006C1A498BC183DFF8640ADFF8601A898BE9
:10AF20000184DFF8580ADFF8601B09884183DFF8E5
:10AF30004C0ADFF8541B49888183DFF8440A808A71
:10AF4000401CDFF83C1A888200F044BEDFF8300A6B
:10AF5000C08B401CDFF8281AC883DFF8240A008C55
:10AF6000401CDFF81C1A088400F03DBEDFF8840C9A
:10AF70000500DFF8840CA8422CD3687E002826D078
:10AF8000DFF8F809808CA988884220D1DFF8EC0925
:10AF9000408CE98888421AD1DFF8E009408B298883
:10AFA000884214D1DFF8D409808B698888420ED199
:10AFB000DFF824080560DFF8B40900210170DFF82C
:10AFC000BC0990F82F00400700F1528259E205F2C7
:10AFD000CC05CEE7DFF8A40990F82F0010F03F0071
:10AFE000022830D1DFF89409808CDFF8441C0880F7
:10AFF000DFF8400C00210170DFF8380C00782828B9
:10B000001AD2DFF82C0C0088DFF8281C0978DFF84A
:10B01000282C32F81110884206D100200500DFF8F4
:10B02000140C00210170DBE0DFF8080C0078401CF4
:10B03000DFF8001C0870DFE7DFF84409408D401C92
:10B04000DFF83C194885DFF8340990F82F004007F5
:10B0500000F1C985DFF82809808C401CDFF8201931
:10B060008884DFF81809142180F82F10DFF804090C
:10B0700028210180DFF80409502180F82E10DFF824
:10B08000FC0890F82900DFF8AC1B0870DFF8EC082A
:10B09000DFF8E81891F82D1080F82910DFF8DC08A7
:10B0A000DFF8901B097880F82D10DFF8D00890F8B1
:10B0B0002800DFF8801B0870DFF8C008DFF8BC1834
:10B0C00091F82C1080F82810DFF8B008DFF8641B26
:10B0D000097880F82C10DFF8A40890F82700DFF832
:10B0E000541B0870DFF89408DFF8901891F82B10C3
:10B0F00080F82710DFF88408DFF8381B097880F81B
:10B100002B10DFF8780890F82600DFF8281B08706D
:10B11000DFF86808DFF8641891F82A1080F8261024
:10B12000DFF85808DFF80C1B097880F82A10DFF8E0
:10B130004C0890F82D00401CDFF8401881F82D00D5
:10B14000C0B2002820D1DFF8340890F82C00401C51
:10B15000DFF8281881F82C00C0B2002814D1DFF8DD
:10B160001C0890F82B00401CDFF8101881F82B0009
:10B17000C0B2002808D1DFF8040890F82A00401C6B
:10B18000DFF8F81781F82A00DFF8F007408CDFF8C5
:10B19000A01A0880DFF8E407DFF8E017898C418403
:10B1A000DFF8D807DFF8881A09888184DFF8CC0730
:10B1B000DFF8C817498BC183DFF8C007DFF8BC1779
:10B1C000898B0184DFF8B407DFF8BC180988418354
:10B1D000DFF8A807DFF8B0184988818300F0B7BC12
:10B1E000DFF8500A007828283ED2DFF8480A0078B5
:10B1F000CC21DFF8002A01FB0020407E002809D185
:10B20000DFF8300A0078CC21DFF8E82901FB0020C4
:10B21000050029E0DFF81C0A0078CC21DFF8D429EA
:10B2200001FB0020407E072816D1002D0BD0A87E00
:10B23000DFF8001A0978CC22DFF8B83902FB0131B7
:10B24000897E884208D2DFF8EC090078CC21DFF84B
:10B25000A42901FB00200500DFF8D8090078401C74
:10B26000DFF8D0190870BBE7002D08D1DFF8100710
:10B27000008D401CDFF80817088500F0B4BCDFF82B
:10B28000580505600320A87628760020A8750420BC
:10B29000E8750020E876DFF8E406808CA880DFF807
:10B2A000DC06408CE880DFF8D406408B2880DFF88D
:10B2B000CC06808B688001206876DFF8B4060078C1
:10B2C0002873DFF8AC0640786873DFF8A40680784E
:10B2D000A873DFF89C06C078E87301202882DFF8A5
:10B2E0009C0690F82900E872DFF8900690F8280094
:10B2F000A872DFF8880690F827006872DFF87C06ED
:10B3000090F8260028720120FFF709FCDFF86C0690
:10B3100090F82E0010F0F00051287CDBDFF81409C3
:10B3200000210170DFF80C090078DFF8501691F861
:10B330002E10C9B20909C9B2491FB0EB810F6ADAF0
:10B34000DFF8F0080078DFF83416401890F836007F
:10B35000DFF8E8180870DFF8E408007800285AD011
:10B36000DFF8D8080078012807D1DFF8C80800788E
:10B37000401CDFF8C0180870D4E7DFF8C008007878
:10B3800002282ED1DFF8AC080078DFF8F01540185D
:10B3900090F83700042824D1DFF898080078DFF807
:10B3A000DC15401890F83800DFF888180978DFF8C5
:10B3B000CC25891891F8391051EA0020DFF870186F
:10B3C0000880DFF86C08008840F2BB51884202D345
:10B3D00040F2BA5002E0DFF8580800886882A8827C
:10B3E00019E0DFF850080078DFF89015401890F861
:10B3F000370000280FD0DFF83C080078DFF8341859
:10B400000978DFF87825891891F837100818DFF8DF
:10B410002418087086E7DFF86405102180F82F10E3
:10B42000DFF8580590F82F0050F00200DFF84C15B7
:10B4300081F82F00DFF84405022180F83610DFF88C
:10B440003C05042180F83710DFF83005052180F82D
:10B450003810DFF82805BA2180F83910DFF8140514
:10B460002C210180DFF81405602180F82E1024E3E0
:10B4700000206876DFF8F4042021017002F079FAE8
:10B48000B1E3DFF8F80490F82E00C0B200098000A4
:10B49000DFF8A0170870DFF8DC040088DFF89417E5
:10B4A0000978401A1438DFF8CC140880687E10F050
:10B4B0000F00022807D1DFF8C40490F82F0010F025
:10B4C0003F00122828D0DFF8AC040088012806D2FB
:10B4D000DFF8A80490F82F00032108421CD0DFF801
:10B4E0009C0490F82600297A884214D1DFF88C0455
:10B4F00090F82700697A88420DD1DFF8800490F82F
:10B500002800A97A884206D1DFF8700490F8290053
:10B51000E97A884200D0C5E2DFF8600490F82F0095
:10B52000C00665D5288A002862D0298A15F10C004A
:10B53000FFF7F6F9DFF8440490F82A00DFF8001767
:10B540000978884254D1DFF8340490F82B00DFF8F2
:10B55000F016497888424BD1DFF8200490F82C008F
:10B56000DFF8DC168978884242D1DFF8100490F8C1
:10B570002D00DFF8CC16C978884239D1DFF8C00633
:10B5800000782873DFF8B80640786873DFF8B006F3
:10B590008078A873DFF8A806C078E873E87E0028F2
:10B5A0001ED195F9181095F91A20891A0800A97D5D
:10B5B000C9B2B0EBD100A97D4118A97540B20028ED
:10B5C00001D540B24042E97DC9B2B0EB9100E97DBE
:10B5D0004118E975A97DC9B2EA7D12EBD10129763E
