:1020000000080010311E0100B7200100B7200100B8
:10201000B7200100B7200100B72001003C36F9EFDE
:10202000000000000000000000000000B7200100D8
:10203000B720010000000000B7200100B720010018
:10204000B7200100B7200100B7200100B720010030
:10205000B72001007DA9000071AA000065AB000057
:1020600059AC0000B7200100B7200100B7200100E3
:10207000B7200100B7200100B7200100B720010000
:10208000B7200100B7200100B7200100B7200100F0
:10209000B7200100B7200100B7200100B7200100E0
:1020A0009FC10000B7200100B7200100B720010048
:1020B000B7200100B7200100B7200100B7200100C0
:0420C000B720010044
:10210000F00FF00FF00FF00FF00FF00FF00FF00FD7
:10211000F00FF00FF00FF00FF00FF00FF00FF00FC7
:10212000F00FF00FF00FF00FF00FF00FF00FF00FB7
:10213000F00FF00FF00FF00FF00FF00FF00FF00FA7
:1032C000000FF00FF00FF00FF00FF00FF00FF00FF6
:1032D000F00FF00FF00FF00FF00FF00FF00FF00FF6
:1032E000F00FF00FF00FF00FF00FF00FF00FF00FE6
:1032F000F00FF00FF00FF00FF00FF00FF00FF00FD6
:10330000F00FF00FF00FF00FF00FF00FF00FF00FC5
:10331000F00FF00FF00FF00FF00FF00FF00FF00FB5
:10332000F00FF00FF00FF00FF00FF00FF00FF00FA5
:10333000F00FF00FF00FF00FF00FF00FF00FF00F95
:10334000F00FF00FF00FF00FF00FF00FF00FF00F85
:10335000F00FF00FF00FF00FF00FF00FF00FF00F75
:10336000F00FF00FF00FF00FF00FF00FF00FF00F65
:10337000F00FF00FF00FF00FF00FF00FF00FF00F55
:10338000F00FF00FF00FF00FF00FF00FF00FF00F45
:10339000F00FF00FF00FF00FF00FF00FF00FF00F35
:1033A000F00FF00FF00FF00FF00FF00FF00FF00F25
:1033B000F00FF00FF00FF00FF00FF00FF00FF00F15
:1033C000000F000F000F000F000F000F000F000F85
:1033D000000F000FF00FF00FF00FF00FF00FF00FD5
:1033E000F00FF00FF00FF00FF00FF00FF00FF00FE5
:1033F000F00FF00FF00FF00FF00FF00FF00FF00FD5
:10340000F00FF00FF00FF00FF00FF00FF00FF00FC4
:10341000F00FF00FF00FF00FF00FF00FF00FF00FB4
:10342000F00FF00FF00FF00FF00FF00FF00FF00FA4
:10343000F00FF00FF00FF00FF00FF00FF00FF00F94
:10344000F00FF00FF00FF00FF00FF00FF00FF00F84
:10345000F00FF00FF00FF00FF00FF00FF00FF00F74
:10346000F00FF00FF00FF00FF00FF00FF00FF00F64
:10347000F00FF00FF00FF00FF00FF00FF00FF00F54
:10348000F00FF00FF00FF00FF00FF00FF00FF00F44
:10349000F00FF00FF00FF00FF00FF00FF00FF00F34
:1034A000F00FF00FF00FF00FF00FF00FF00FF00F24
:1034B000F00FF00FF00FF00FF00FF00FF00F000F04
:1034C000000F000F000F000F000F000F000F000F84
:1034D000000F000F000F000F000F000F000F000F74
:1034E000000F000F000FF00FF00FF00FF00FF00FB4
:1034F000F00FF00FF00FF00FF00FF00FF00FF00FD4
:10350000F00FF00FF00FF00FF00FF00FF00FF00FC3
:10351000F00FF00FF00FF00FF00FF00FF00FF00FB3
:10352000F00FF00FF00FF00FF00FF00FF00FF00FA3
:10353000F00FF00FF00FF00FF00FF00FF00FF00F93
:10354000F00FF00FF00FF00FF00FF00FF00FF00F83
:10355000F00FF00FF00FF00FF00FF00FF00FF00F73
:10356000F00FF00FF00FF00FF00FF00FF00FF00F63
:10357000F00FF00FF00FF00FF00FF00FF00FF00F53
:10358000F00FF00FF00FF00FF00FF00FF00FF00F43
:10359000F00FF00FF00FF00FF00FF00FF00FF00F33
:1035A000F00FF00FF00FF00FF00FF00FF00FF00F23
:1035B000F00FF00FF00FF00FF00FF00FF00FF00F13
:1035C000F00FF00F000F000F000F000F000F000FA3
:1035D000000F000F000F000F000F000F000F000F73
:1035E000000F000F000F000F000F000F000F000F63
:1035F000F00FF00FF00FF00FF00FF00FF00FF00FD3
:10360000F00FF00FF00FF00FF00FF00FF00FF00FC2
:10361000F00FF00FF00FF00FF00FF00FF00FF00FB2
:10362000F00FF00FF00FF00FF00FF00FF00FF00FA2
:10363000F00FF00FF00FF00FF00FF00FF00FF00F92
:10364000F00FF00FF00FF00FF00FF00FF00FF00F82
:10365000F00FF00FF00FF00FF00FF00FF00FF00F72
:10366000F00FF00FF00FF00FF00FF00FF00FF00F62
:10367000F00FF00FF00FF00FF00FF00FF00FF00F52
:10368000F00FF00FF00FF00FF00FF00FF00FF00F42
:10369000F00FF00FF00FF00FF00FF00FF00FF00F32
:1036A000F00FF00FF00FF00FF00FF00FF00FF00F22
:1036B000F00FF00FF00FF00FF00FF00FF00FF00F12
:1036C000F00FF00FF00FF00F000F000F000F000FC2
:1036D000000F000F000F000F000F000F000F000F72
:1036E000000F000F000F000F000F000F000F000F62
:1036F000000F000F000F000F000F000FF00FF00F72
:10370000F00FF00FF00FF00FF00FF00FF00FF00FC1
:10371000F00FF00FF00FF00FF00FF00FF00FF00FB1
:10372000F00FF00FF00FF00FF00FF00FF00FF00FA1
:10373000F00FF00FF00FF00FF00FF00FF00FF00F91
:10374000F00FF00FF00FF00FF00FF00FF00FF00F81
:10375000F00FF00FF00FF00FF00FF00FF00FF00F71
:10376000F00FF00FF00FF00FF00FF00FF00FF00F61
:10377000F00FF00FF00FF00FF00FF00FF00FF00F51
:10378000F00FF00FF00FF00FF00FF00FF00FF00F41
:10379000F00FF00FF00FF00FF00FF00FF00FF00F31
:1037A000F00FF00FF00FF00FF00FF00FF00FF00F21
:1037B000F00FF00FF00FF00FF00FF00FF00FF00F11
:1037C000F00FF00FF00FF00FF00FF00FF00F000FF1
:1037D000000F000F000F000F000F000F000F000F71
:1037E000000F000F000F000F000F000F000F000F61
:1037F000000F000F000F000F000F000F000F000F51
:10380000000F000F000FF00FF00FF00FF00FF00F90
:10381000F00FF00FF00FF00FF00FF00FF00FF00FB0
:10382000F00FF00FF00FF00FF00FF00FF00FF00FA0
:10383000F00FF00FF00FF00FF00FF00FF00FF00F90
:10384000F00FF00FF00FF00FF00FF00FF00FF00F80
:10385000F00FF00FF00FF00FF00FF00FF00FF00F70
:10386000F00FF00FF00FF00FF00FF00FF00FF00F60
:10387000F00FF00FF00FF00FF00FF00FF00FF00F50
:10388000F00FF00FF00FF00FF00FF00FF00FF00F40
:10389000F00FF00FF00FF00FF00FF00FF00FF00F30
:1038A000F00FF00FF00FF00FF00FF00FF00FF00F20
:1038B000F00FF00FF00FF00FF00FF00FF00FF00F10
:1038C000F00FF00FF00FF00FF00FF00FF00FF00F00
:1038D000F00FF00F000F000F000F000F000F000F90
:1038E000000F000F000F000F000F000F000F000F60
:1038F000000F000F000F000F000F000F000F000F50
:10390000000F000F000F000F000F000F000F000F3F
:10391000000FF00FF00FF00FF00FF00FF00FF00F9F
:10392000F00FF00FF00FF00FF00FF00FF00FF00F9F
:10393000F00FF00FF00FF00FF00FF00FF00FF00F8F
:10394000F00FF00FF00FF00FF00FF00FF00FF00F7F
:10395000F00FF00FF00FF00FF00FF00FF00FF00F6F
:10396000F00FF00FF00FF00FF00FF00FF00FF00F5F
:10397000F00FF00FF00FF00FF00FF00FF00FF00F4F
:10398000F00FF00FF00FF00FF00FF00FF00FF00F3F
:10399000F00FF00FF00FF00FF00FF00FF00FF00F2F
:1039A000F00FF00FF00FF00FF00FF00FF00FF00F1F
:1039B000F00FF00FF00FF00FF00FF00FF00FF00F0F
:1039C000F00FF00FF00FF00FF00FF00FF00FF00FFF
:1039D000F00FF00FF00FF00FF00FF00F000F000FCF
:1039E000000F000F000F000F000F000F000F000F5F
:1039F000000F000F000F000F000F000F000F000F4F
:103A0000000F000F000F000F000F000F000F000F3E
:103A1000000F000F000F000F000FF00FF00FF00F5E
:103A2000F00FF00FF00FF00FF00FF00FF00FF00F9E
:103A3000F00FF00FF00FF00FF00FF00FF00FF00F8E
:103A4000F00FF00FF00FF00FF00FF00FF00FF00F7E
:103A5000F00FF00FF00FF00FF00FF00FF00FF00F6E
:103A6000F00FF00FF00FF00FF00FF00FF00FF00F5E
:103A7000F00FF00FF00FF00FF00FF00FF00FF00F4E
:103A8000F00FF00FF00FF00FF00FF00FF00FF00F3E
:103A9000F00FF00FF00FF00FF00FF00FF00FF00F2E
:103AA000F00FF00FF00FF00FF00FF00FF00FF00F1E
:103AB000F00FF00FF00FF00FF00FF00FF00FF00F0E
:103AC000F00FF00FF00FF00FF00FF00FF00FF00FFE
:103AD000F00FF00FF00FF00FF00FF00FF00F000FDE
:103AE000F00FF00F000F000F000F000F000F000F7E
:103AF000000F000F000F000F000F000F000F000F4E
:103B0000000F000F000F000F000F000F000F000F3D
:103B1000000F000F000F000F000F000F000F000F2D
:103B2000000FF00FF00FF00FF00FF00FF00FF00F8D
:103B3000F00FF00FF00FF00FF00FF00FF00FF00F8D
:103B4000F00FF00FF00FF00FF00FF00FF00FF00F7D
:103B5000F00FF00FF00FF00FF00FF00FF00FF00F6D
:103B6000F00FF00FF00FF00FF00FF00FF00FF00F5D
:103B7000F00FF00FF00FF00FF00FF00FF00FF00F4D
:103B8000F00FF00FF00FF00FF00FF00FF00FF00F3D
:103B9000F00FF00FF00FF00FF00FF00FF00FF00F2D
:103BA000F00FF00FF00FF00FF00FF00FF00FF00F1D
:103BB000F00FF00FF00FF00FF00FF00FF00FF00F0D
:103BC000F00FF00FF00FF00FF00FF00FF00FF00FFD
:103BD000F00FF00FF00FF00FF00FF00FF00FF00FED
:103BE000F00FF00F000F000FF00FF00F000F000F9D
:103BF000000F000F000F000F000F000F000F000F4D
:103C0000000F000F000F000F000F000F000F000F3C
:103C1000000F000F000F000F000F000F000F000F2C
:103C2000000F000F000F000F000FF00FF00F000F3C
:103C3000F00FF00FF00FF00FF00FF00FF00FF00F8C
:103C4000F00FF00FF00FF00FF00FF00FF00FF00F7C
:103C5000F00FF00FF00FF00FF00FF00FF00FF00F6C
:103C6000F00FF00FF00FF00FF00FF00FF00FF00F5C
:103C7000F00FF00FF00FF00FF00FF00FF00FF00F4C
:103C8000F00FF00FF00FF00FF00FF00FF00FF00F3C
:103C9000F00FF00FF00FF00FF00FF00FF00FF00F2C
:103CA000F00FF00FF00FF00FF00FF00FF00FF00F1C
:103CB000F00FF00FF00FF00FF00FF00FF00FF00F0C
:103CC000F00FF00FF00FF00FF00FF00FF00FF00FFC
:103CD000F00FF00FF00FF00FF00FF00FF00FF00FEC
:103CE000F00FF00FF00FF00FF00FF00F000F000FBC
:103CF000F00FF00F000F000F000F000F000F000F6C
:103D0000000F000F000F000F000F000F000F000F3B
:103D1000000F000F000F000F000F000F000F000F2B
:103D2000000F000F000F000F000F000F000F000F1B
:103D3000000FF00FF00F000FF00FF00FF00FF00F6B
:103D4000F00FF00FF00FF00FF00FF00FF00FF00F7B
:103D5000F00FF00FF00FF00FF00FF00FF00FF00F6B
:103D6000F00FF00FF00FF00FF00FF00FF00FF00F5B
:103D7000F00FF00FF00FF00FF00FF00FF00FF00F4B
:103D8000F00FF00FF00FF00FF00FF00FF00FF00F3B
:103D9000F00FF00FF00FF00FF00FF00FF00FF00F2B
:103DA000F00FF00FF00FF00FF00FF00FF00FF00F1B
:103DB000F00FF00FF00FF00FF00FF00FF00FF00F0B
:103DC000F00FF00FF00FF00FF00FF00FF00FF00FFB
:103DD000F00FF00FF00FF00FF00FF00FF00FF00FEB
:103DE000F00FF00FF00FF00FF00FF00FF00FF00FDB
:103DF000F00F000F000F000FF00FF00F000F000F7B
:103E0000000F000F000F000F000F000F000F000F3A
:103E1000000F000F000F000F000F000F000F000F2A
:103E2000000F000F000F000F000F000F000F000F1A
:103E3000000F000F000F000F000FF00FF00F000F2A
:103E4000000FF00FF00FF00FF00FF00FF00FF00F6A
:103E5000F00FF00FF00FF00FF00FF00FF00FF00F6A
:103E6000F00FF00FF00FF00FF00FF00FF00FF00F5A
:103E7000F00FF00FF00FF00FF00FF00FF00FF00F4A
:103E8000F00FF00FF00FF00FF00FF00FF00FF00F3A
:103E9000F00FF00FF00FF00FF00FF00FF00FF00F2A
:103EA000F00FF00FF00FF00FF00FF00FF00FF00F1A
:103EB000F00FF00FF00FF00FF00FF00FF00FF00F0A
:103EC000F00FF00FF00FF00FF00FF00FF00FF00FFA
:103ED000F00FF00FF00FF00FF00FF00FF00FF00FEA
:103EE000F00FF00FF00FF00FF00FF00FF00FF00FDA
:103EF000F00FF00FF00FF00F000F000F000F000F8A
:103F0000F00FF00F000F000F000F000F000F000F59
:103F1000000F000F000F000F000F000F000F000F29
:103F2000000F000F000F000F000F000F000F000F19
:103F3000000F000F000F000F000F000F000F000F09
:103F4000000FF00FF00F000F000F000FF00FF00F39
:103F5000F00FF00FF00FF00FF00FF00FF00FF00F69
:103F600000000000000000000000F00FF00FF00F54
:103F7000F00FF00FF00FF00FF00FF00FF00FF00F49
:103F8000F00F000000000000000000000000000032
:103F9000F00FF00FF00FF00FF00FF00FF00FF00F29
:103FA000F00FF00FF00FF00FF00F00000000000016
:103FB0000000000000000000000000000000000001
:103FC000000000000000000000000000F00FF00FF3
:103FD000F00FF00FF00FF00FF00FF00FF00FF00FE9
:103FE000F00FF00FF00FF00FF00FF00FF00FF00FD9
:103FF000F00FF00FF00FF00FF00FF00FF00FF00FC9
:10400000000F000F000F000FF00FF00F000F000F58
:10401000000F000F000F000F000F000F000F000F28
:10402000000F000F000F000F000F000F000F000F18
:10403000000F000F000F000F000F000F000F000F08
:10404000000F000F000F000F000FF00FF00F000F18
:10405000000F000FF00FF00FF00FF00FF00FF00F48
:10406000F00FF00FF00FF00F000000000000000054
:104070000000F00FF00FF00FF00FF00FF00FF00F47
:10408000F00FF00FF00FF00FF00F00000000000035
:104090000000000000000000F00FF00FF00FF00F24
:1040A000F00FF00FF00FF00FF00FF00FF00FF00F18
:1040B000F00F000000000000000000000000000001
:1040C00000000000000000000000000000000000F0
:1040D0000000000000000000F00FF00FF00FF00FE4
:1040E000F00FF00FF00FF00FF00FF00FF00FF00FD8
:1040F000F00FF00FF00FF00FF00FF00FF00FF00FC8
:10410000F00FF00FF00F000F000F000F000F000F67
:10411000F00FF00FF00FF00FF00FF00FF00FF00FA7
:10412000F00FF00FF00FF00FF00FF00FF00FF00F97
:10413000F00FF00FF00FF00FF00FF00FF00FF00F87
:10414000F00FF00FF00FF00FF00FF00FF00FF00F77
:10415000F00FF00FF00F000F000F000F000FF00F27
:10416000F00FF00FF00FF00FF00FF00FF00FF00F57
:1041700000000000000000000000F00FF00FF00F42
:10418000F00FF00FF00FF00FF00FF00FF00FF00F37
:10419000000000000000000000000000000000001F
:1041A0000000F00FF00FF00FF00FF00FF00FF00F16
:1041B000F00FF00FF00FF00FF00F00000000000004
:1041C00000000000000000000000000000000000EF
:1041D00000000000000000000000000000000000DF
:1041E0000000F00FF00FF00FF00FF00FF00FF00FD6
:1041F000F00FF00FF00FF00FF00FF00FF00FF00FC7
:10420000F00FF00FF00FF00FF00FF00FF00F000FA6
:10421000000F000F000F000FF00FF00FF00FF00F66
:10422000F00FF00FF00FF00FF00FF00FF00FF00F96
:10423000F00FF00FF00FF00FF00FF00FF00FF00F86
:10424000F00FF00FF00FF00FF00FF00FF00FF00F76
:10425000F00FF00FF00FF00FF00FF00FF00F000F56
:10426000000F000F000FF00FF00FF00FF00FF00F26
:10427000F00FF00FF00FF00F000000000000000042
:104280000000F00FF00FF00FF00FF00FF00FF00F35
:10429000F00FF00FF00FF00F000000000000000022
:1042A00000000000000000000000F00FF00FF00F11
:1042B000F00FF00FF00FF00FF00FF00FF00FF00F06
:1042C000F00F0000000000000000000000000000EF
:1042D00000000000000000000000000000000000DE
:1042E000000000000000000000000000F00FF00FD0
:1042F000F00FF00FF00FF00FF00FF00FF00FF00FC6
:10430000F00FF00FF00FF00FF00FF00FF00FF00FB5
:10431000F00FF00F000F000F000F000F000F000F45
:10432000F00FF00F000F000F000F000F000F000F35
:10433000000F000F000F000F000F000F000F000F05
:10434000000F000F000F000F000F000F000F000FF5
:10435000000F000F000F000F000F000F000F000FE5
:10436000000FF00FF00F000F000F000F000F000FF5
:10437000F00FF00FF00FF00FF00FF00FF00FF00F45
:1043800000000000000000000000F00FF00FF00F30
:10439000F00FF00FF00FF00FF00FF00FF00FF00F25
:1043A0000000000000000000F00F0000000000000E
:1043B0000000F00FF00FF00FF00FF00FF00FF00F04
:1043C000F00FF00FF00FF00FF00F000000000000F2
:1043D00000000000F00FF00FF00FF00FF00FF00FE3
:1043E000F00FF00FF00FF00F0000000000000000D1
:1043F00000000000F00FF00FF00FF00FF00FF00FC3
:10440000F00FF00FF00FF00FF00FF00FF00FF00FB4
:10441000F00FF00FF00FF00FF00FF00F000F000F84
:10442000000F000F000F000FF00FF00F000F000F34
:10443000000F000F000F000F000F000F000F000F04
:10444000000F000F000F000F000F000F000F000FF4
:10445000000F000F000F000F000F000F000F000FE4
:10446000000F000F000F000F000FF00FF00F000FF4
:10447000000F000F000F000FF00FF00FF00FF00F04
:10448000F00FF00FF00FF00F000000000000000030
:104490000000F00FF00FF00FF00FF00FF00FF00F23
:1044A000F00FF00FF00F000000000000000000000F
:1044B000F00F00000000000000000000F00FF00FFF
:1044C000F00FF00FF00FF00FF00FF00FF00FF00FF4
:1044D000F00F00000000000000000000F00FF00FDF
:1044E000F00FF00FF00FF00FF00FF00FF00FF00FD4
:1044F000F00F000000000000000000000000F00FBE
:10450000F00FF00FF00FF00FF00FF00FF00FF00FB3
:10451000F00FF00FF00FF00FF00FF00FF00FF00FA3
:10452000F00FF00F000F000F000F000F000F000F33
:10453000F00FF00F000F000F000F000F000F000F23
:10454000000F000F000F000F000F000F000F000FF3
:10455000000F000F000F000F000F000F000F000FE3
:10456000000F000F000F000F000F000F000F000FD3
:10457000000FF00FF00F000F000F000F000F000FE3
:10458000F00FF00FF00FF00FF00FF00FF00FF00F33
:1045900000000000000000000000F00FF00FF00F1E
:1045A000F00FF00FF00FF00FF00FF00FF00F000012
:1045B0000000000000000000F00F000000000000FC
:1045C00000000000F00FF00FF00FF00FF00FF00FF1
:1045D000F00FF00FF00FF00FF00F000000000000E0
:1045E00000000000F00FF00FF00FF00FF00FF00FD1
:1045F000F00FF00FF00FF00FF00FF00F00000000C1
:10460000000000000000F00FF00FF00FF00FF00FAF
:10461000F00FF00FF00FF00FF00FF00FF00FF00FA2
:10462000F00FF00FF00FF00FF00FF00F000F000F72
:10463000000F000F000F000FF00FF00F000F000F22
:10464000000F000F000F000F000F000F000F000FF2
:10465000000F000F000F000F000F000F000F000FE2
:10466000000F000F000F000F000F000F000F000FD2
:10467000000F000F000F000F000FF00FF00F000FE2
:10468000000F000F000F000FF00FF00FF00FF00FF2
:10469000F00FF00FF00FF00F00000000000000001E
:1046A0000000F00FF00FF00FF00FF00FF00FF00F11
:1046B000F00FF00F00000000000000000000F00FFD
:1046C000F00FF00F00000000000000000000F00FED
:1046D000F00FF00FF00FF00FF00FF00FF00FF00FE2
:1046E000F00F00000000000000000000F00FF00FCD
:1046F000F00FF00FF00FF00FF00FF00FF00FF00FC2
:10470000F00FF00F00000000000000000000F00FAC
:10471000F00FF00FF00FF00FF00FF00FF00FF00FA1
:10472000F00FF00FF00FF00FF00FF00FF00FF00F91
:10473000F00F000F000F000F000F000F000F000F11
:10474000F00FF00F000F000F000F000F000F000F11
:10475000000F000F000F000F000F000F000F000FE1
:10476000000F000F000F000F000F000F000F000FD1
:10477000000F000F000F000F000F000F000F000FC1
:10478000000FF00FF00F000F000F000F000F000FD1
:10479000000FF00FF00FF00FF00FF00FF00FF00F11
:1047A00000000000000000000000F00FF00FF00F0C
:1047B000F00FF00FF00FF00FF00FF00F00000000FF
:1047C000000000000000F00FF00FF00F00000000EC
:1047D000000000000000F00FF00FF00FF00FF00FDE
:1047E000F00FF00FF00FF00FF00F000000000000CE
:1047F00000000000F00FF00FF00FF00FF00FF00FBF
:10480000F00FF00FF00FF00FF00FF00F00000000AE
:10481000000000000000F00FF00FF00FF00FF00F9D
:10482000F00FF00FF00FF00FF00FF00FF00FF00F90
:10483000F00FF00FF00FF00FF00F000F000F000F50
:10484000000F000F000F000FF00FF00F000F000F10
:10485000000F000F000F000F000F000F000F000FE0
:10486000000F000F000F000F000F000F000F000FD0
:10487000000F000F000F000F000F000F000F000FC0
:10488000000F000F000F000F000FF00FF00F000FD0
:10489000000F000F000F000F000FF00FF00FF00FD0
:1048A000F00FF00FF00FF00F00000000000000000C
:1048B0000000F00FF00FF00FF00FF00FF00FF00FFF
:1048C000F00FF00F00000000000000000000F00FEB
:1048D000F00FF00F00000000000000000000F00FDB
:1048E000F00FF00FF00FF00FF00FF00FF00FF00FD0
:1048F000F00F00000000000000000000F00FF00FBB
:10490000F00FF00FF00FF00FF00FF00FF00FF00FAF
:10491000F00FF00F00000000000000000000F00F9A
:10492000F00FF00FF00FF00FF00FF00FF00FF00F8F
:10493000F00FF00FF00FF00FF00FF00FF00FF00F7F
:10494000F00F000F000F000F000F000F000F000FFF
:10495000F00FF00FF00FF00FF00FF00FF00FF00F5F
:10496000F00FF00FF00FF00FF00FF00FF00FF00F4F
:10497000F00FF00FF00FF00FF00FF00FF00FF00F3F
:10498000F00FF00FF00FF00FF00FF00FF00FF00F2F
:10499000F00FF00FF00F000F000F000F000F000FCF
:1049A000000FF00FF00FF00FF00FF00FF00FF00FFF
:1049B00000000000000000000000F00FF00FF00FFA
:1049C000F00FF00FF00FF00FF00F000000000000EC
:1049D00000000000F00FF00FF00FF00FF00F0000DC
:1049E0000000000000000000F00FF00FF00FF00FCB
:1049F000F00FF00FF00FF00FF00F000000000000BC
:104A000000000000F00FF00FF00FF00FF00FF00FAC
:104A1000F00FF00FF00FF00FF00F0000000000009B
:104A2000000000000000F00FF00FF00FF00FF00F8B
:104A3000F00FF00FF00FF00FF00FF00FF00FF00F7E
:104A4000F00FF00FF00FF00FF00F000F000F000F3E
:104A5000000F000F000F000FF00FF00FF00FF00F1E
:104A6000F00FF00FF00FF00FF00FF00FF00FF00F4E
:104A7000F00FF00FF00FF00FF00FF00FF00FF00F3E
:104A8000F00FF00FF00FF00FF00FF00FF00FF00F2E
:104A9000F00FF00FF00FF00FF00FF00FF00F000F0E
:104AA000000F000F000F000F000FF00FF00FF00FBE
:104AB000F00FF00FF00FF00F0000000000000000FA
:104AC0000000F00FF00FF00FF00FF00FF00FF00FED
:104AD000F00F00000000000000000000F00FF00FD9
:104AE000F00FF00FF00F00000000000000000000C9
:104AF000F00FF00FF00FF00FF00FF00FF00FF00FBE
:104B0000F00F00000000000000000000F00FF00FA8
:104B1000F00FF00FF00FF00FF00FF00FF00FF00F9D
:104B2000000000000000000000000000F00FF00F87
:104B3000F00FF00FF00FF00FF00FF00FF00FF00F7D
:104B4000F00FF00FF00FF00FF00FF00FF00FF00F6D
:104B5000F00F000F000F000F000F000F000F000FED
:104B6000F00FF00F000F000F000F000F000F000FED
:104B7000000F000F000F000F000F000F000F000FBD
:104B8000000F000F000F000F000F000F000F000FAD
:104B9000000F000F000F000F000F000F000F000F9D
:104BA000000FF00FF00F000F000F000F000F000FAD
:104BB000000FF00FF00FF00FF00FF00FF00FF00FED
:104BC00000000000000000000000F00FF00FF00FE8
:104BD000F00FF00FF00FF00FF00F000000000000DA
:104BE0000000F00FF00FF00FF00FF00FF00FF00FCC
:104BF00000000000000000000000F00FF00FF00FB8
:104C0000F00FF00FF00FF00FF00F000000000000A9
:104C10000000000000000000000000000000000094
:104C20000000000000000000000000000000000084
:104C300000000000F00FF00FF00FF00FF00FF00F7A
:104C4000F00FF00FF00FF00FF00FF00FF00FF00F6C
:104C5000F00FF00FF00FF00FF00F000F000F000F2C
:104C6000000F000F000F000FF00FF00F000F000FEC
:104C7000000F000F000F000F000F000F000F000FBC
:104C8000000F000F000F000F000F000F000F000FAC
:104C9000000F000F000F000F000F000F000F000F9C
:104CA000000F000F000F000F000FF00FF00F000FAC
:104CB000000F000F000F000F000FF00FF00FF00FAC
:104CC000F00FF00FF00FF00F0000000000000000E8
:104CD0000000F00FF00FF00FF00FF00FF00FF00FDB
:104CE00000000000000000000000F00FF00FF00FC7
:104CF000F00FF00FF00FF00F0000000000000000B8
:104D00000000F00FF00FF00FF00FF00FF00FF00FAA
:104D1000F00F000000000000000000000000000094
:104D20000000000000000000000000000000000083
:104D300000000000000000000000F00FF00FF00F76
:104D4000F00FF00FF00FF00FF00FF00FF00FF00F6B
:104D5000F00FF00FF00FF00FF00FF00FF00FF00F5B
:104D6000F00F000F000F000F000F000F000F000FDB
:104D7000F00FF00F000F000F000F000F000F000FDB
:104D8000000F000F000F000F000F000F000F000FAB
:104D9000000F000F000F000F000F000F000F000F9B
:104DA000000F000F000F000F000F000F000F000F8B
:104DB000000FF00FF00F000F000F000F000F000F9B
:104DC000000FF00FF00FF00FF00FF00FF00FF00FDB
:104DD00000000000000000000000F00FF00FF00FD6
:104DE000F00FF00FF00FF00F0000000000000000C7
:104DF0000000F00FF00FF00FF00FF00FF00FF00FBA
:104E000000000000000000000000F00FF00FF00FA5
:104E1000F00FF00FF00FF00FF00F00000000000097
:104E20000000000000000000000000000000000082
:104E30000000000000000000000000000000F00F73
:104E4000F00FF00FF00FF00FF00FF00FF00FF00F6A
:104E5000F00FF00FF00FF00FF00FF00FF00FF00F5A
:104E6000F00FF00FF00FF00FF00F000F000F000F1A
:104E7000000F000F000F000FF00FF00F000F000FDA
:104E8000000F000F000F000F000F000F000F000FAA
:104E9000000F000F000F000F000F000F000F000F9A
:104EA000000F000F000F000F000F000F000F000F8A
:104EB000000F000F000F000F000FF00FF00F000F9A
:104EC000000F000F000F000F000FF00FF00FF00F9A
:104ED000F00FF00FF00FF00F0000000000000000D6
:104EE0000000F00FF00FF00FF00FF00FF00F0000C8
:104EF0000000000000000000F00FF00FF00FF00FB6
:104F0000F00FF00FF00FF00FF00F000000000000A6
:104F100000000000F00FF00FF00FF00FF00FF00F97
:104F2000F00F000000000000000000000000000082
:104F30000000000000000000000000000000000071
:104F4000F00FF00FF00FF00FF00FF00FF00FF00F69
:104F5000F00FF00FF00FF00FF00FF00FF00FF00F59
:104F6000F00FF00FF00FF00FF00FF00FF00FF00F49
:104F7000F00F000F000F000F000F000F000F000FC9
:104F8000F00FF00F000F000F000F000F000F000FC9
:104F9000000F000F000F000F000F000F000F000F99
:104FA000000F000F000F000F000F000F000F000F89
:104FB000000F000F000F000F000F000F000F000F79
:104FC000000FF00FF00F000F000F000F000F000F89
:104FD000000FF00FF00FF00FF00FF00FF00FF00FC9
:104FE00000000000000000000000F00FF00FF00FC4
:104FF000F00FF00FF00F00000000000000000000B4
:10500000F00FF00FF00FF00FF00FF00FF00FF00FA8
:10501000F00F00000000000000000000F00FF00F93
:10502000F00FF00FF00FF00FF00F00000000000085
:1050300000000000F00FF00FF00FF00FF00F000075
:10504000000000000000000000000000F00FF00F62
:10505000F00FF00FF00FF00FF00FF00FF00FF00F58
:10506000F00FF00FF00FF00FF00FF00FF00FF00F48
:10507000F00FF00FF00FF00FF00F000F000F000F08
:10508000000F000F000F000FF00FF00FF00FF00FE8
:10509000F00FF00FF00FF00FF00FF00FF00FF00F18
:1050A000F00FF00FF00FF00FF00FF00FF00FF00F08
:1050B000F00FF00FF00FF00FF00FF00FF00FF00FF8
:1050C000F00FF00FF00FF00FF00FF00FF00F000FD8
:1050D000000F000F000F000F000FF00FF00FF00F88
:1050E000F00FF00FF00FF00F0000000000000000C4
:1050F0000000F00FF00FF00FF00FF00FF00F0000B6
:10510000000000000000000000000000000000009F
:10511000000000000000000000000000000000008F
:1051200000000000F00FF00FF00FF00FF00FF00F85
:10513000F00F00000000000000000000F00FF00F72
:10514000F00FF00FF00FF00F000000000000000063
:10515000000000000000F00FF00FF00FF00FF00F54
:10516000F00FF00FF00FF00FF00FF00FF00FF00F47
:10517000F00FF00FF00FF00FF00FF00FF00FF00F37
:10518000F00FF00F000F000F000F000F000F000FC7
:10519000F00FF00FF00F000F000F000F000F000FC7
:1051A000000F000F000F000F000F000F000F000F87
:1051B000000F000F000F000F000F000F000F000F77
:1051C000000F000F000F000F000F000F000F000F67
:1051D000F00FF00F000F000F000F000F000F000F77
:1051E000F00FF00FF00FF00FF00FF00FF00FF00FC7
:1051F00000000000000000000000F00FF00FF00FB2
:10520000F00FF00F000000000000000000000000A0
:10521000000000000000000000000000000000008E
:105220000000000000000000000000000000F00F7F
:10523000F00FF00FF00FF00FF00F00000000000073
:1052400000000000F00FF00FF00FF00FF00FF00F64
:10525000F00F00000000000000000000000000004F
:10526000F00FF00FF00FF00FF00FF00FF00FF00F46
:10527000F00FF00FF00FF00FF00FF00FF00FF00F36
:10528000F00FF00FF00FF00FF00FF00F000F000F06
:10529000000F000F000F000F000FF00FF00FF00FC6
:1052A000000F000F000F000F000F000F000F000F86
:1052B000000F000F000F000F000F000F000F000F76
:1052C000000F000F000F000F000F000F000F000F66
:1052D000000F000F000FF00FF00F000F000F000F76
:1052E000000F000F000F000FF00FF00FF00FF00F86
:1052F000F00FF00FF00FF00F0000000000000000B2
:105300000000F00FF00FF00FF00FF00F00000000A2
:10531000000000000000000000000000000000008D
:10532000000000000000000000000000000000007D
:10533000000000000000F00FF00FF00FF00FF00F72
:10534000F00F00000000000000000000F00FF00F60
:10535000F00FF00FF00FF00FF00FF00F0000000053
:105360000000000000000000F00FF00FF00FF00F41
:10537000F00FF00FF00FF00FF00FF00FF00FF00F35
:10538000F00FF00FF00FF00FF00FF00FF00FF00F25
:10539000F00FF00F000F000F000F000F000F000FB5
:1053A000000F000FF00FF00F000F000F000F000FA5
:1053B000000F000F000F000F000F000F000F000F75
:1053C000000F000F000F000F000F000F000F000F65
:1053D000000F000F000F000F000F000F000FF00F65
:1053E000F00F000F000F000F000F000F000F000F55
:1053F000F00FF00FF00FF00FF00FF00FF00FF00FB5
:1054000000000000000000000000F00FF00FF00F9F
:10541000F00F00000000000000000000000000008D
:10542000000000000000000000000000000000007C
:10543000000000000000000000000000000000006C
:10544000F00FF00FF00FF00FF00F00000000000061
:1054500000000000F00FF00FF00FF00FF00FF00F52
:10546000F00FF00FF00F000000000000000000003F
:105470000000F00FF00FF00FF00FF00FF00FF00F33
:10548000F00FF00FF00FF00FF00FF00FF00FF00F24
:10549000F00FF00FF00FF00FF00FF00F000F000FF4
:1054A000000F000F000F000F000F000FF00FF00FA4
:1054B000F00FF00FF00FF00FF00FF00FF00FF00FF4
:1054C000F00FF00FF00FF00FF00FF00FF00FF00FE4
:1054D000F00FF00FF00FF00FF00FF00FF00FF00FD4
:1054E000F00FF00FF00FF00F000F000F000F000F84
:1054F000000F000F000F000FF00FF00FF00FF00F74
:10550000F00FF00FF00FF00F00000000000000009F
:105510000000F00FF00FF00FF00F0000000000008F
:1055200000000000F00FF00FF00FF00FF00FF00F81
:10553000F00FF00FF00FF00FF00FF00FF00F000072
:105540000000000000000000F00FF00FF00FF00F5F
:10555000F00F00000000000000000000F00FF00F4E
:10556000F00FF00FF00FF00FF00FF00FF00FF00F43
:1055700000000000000000000000F00FF00FF00F2E
:10558000F00FF00FF00FF00FF00FF00FF00FF00F23
:10559000F00FF00FF00FF00FF00FF00FF00FF00F13
:1055A000F00FF00FF00F000F000F000F000F000FB3
:1055B000000F000F000FF00FF00FF00F000F000FA3
:1055C000000F000F000F000F000F000F000F000F63
:1055D000000F000F000F000F000F000F000F000F53
:1055E000000F000F000F000F000FF00FF00FF00F73
:1055F000000F000F000F000F000F000F000FF00F43
:10560000F00FF00FF00FF00FF00FF00FF00FF00FA2
:1056100000000000000000000000F00FF00FF00F8D
:10562000F00F00000000000000000000F00FF00F7D
:10563000F00FF00FF00FF00FF00FF00FF00FF00F72
:10564000F00FF00FF00F000000000000000000005D
:10565000F00FF00FF00FF00FF00F0000000000004F
:1056600000000000F00FF00FF00FF00FF00FF00F40
:10567000F00FF00FF00FF00F00000000000000002E
:1056800000000000F00FF00FF00FF00FF00FF00F20
:10569000F00FF00FF00FF00FF00FF00FF00FF00F12
:1056A000F00FF00FF00FF00FF00FF00FF00F000FF2
:1056B000000F000F000F000F000F000F000F000F72
:1056C000F00FF00FF00F000F000F000F000F000F92
:1056D000000F000F000F000F000F000F000F000F52
:1056E000000F000F000F000F000F000F000F000F42
:1056F000F00FF00FF00F000F000F000F000F000F62
:10570000000F000F000FF00FF00FF00FF00FF00F71
:10571000F00FF00FF00FF00F00000000000000008D
:105720000000F00FF00FF00F00000000000000007C
:1057300000000000F00FF00FF00FF00FF00FF00F6F
:10574000F00FF00FF00FF00FF00FF00FF00F000060
:1057500000000000000000000000F00FF00FF00F4C
:10576000F00F00000000000000000000F00FF00F3C
:10577000F00FF00FF00FF00FF00FF00FF00FF00F31
:10578000F00F000000000000000000000000F00F1B
:10579000F00FF00FF00FF00FF00FF00FF00FF00F11
:1057A000F00FF00FF00FF00FF00FF00FF00FF00F01
:1057B000F00FF00FF00FF00F000F000F000F000FB1
:1057C000000F000F000F000F000FF00FF00FF00F91
:1057D000000F000F000F000F000F000F000F000F51
:1057E000000F000F000F000F000F000F000F000F41
:1057F000000F000F000FF00FF00FF00F000F000F61
:10580000000F000F000F000F000F000FF00FF00F40
:10581000F00FF00FF00FF00FF00FF00FF00FF00F90
:1058200000000000000000000000F00FF00FF00F7B
:1058300000000000000000000000F00FF00FF00F6B
:10584000F00FF00FF00FF00FF00FF00FF00FF00F60
:10585000F00FF00FF00FF00F00000000000000004C
:105860000000F00FF00FF00FF00F0000000000003C
:1058700000000000F00FF00FF00FF00FF00FF00F2E
:10588000F00FF00FF00FF00FF00FF00F000000001E
:10589000000000000000F00FF00FF00FF00FF00F0D
:1058A000F00FF00FF00FF00FF00FF00FF00FF00F00
:1058B000F00FF00FF00FF00FF00FF00FF00FF00FF0
:1058C000000F000F000F000F000F000F000F000F60
:1058D000000F000FF00FF00FF00FF00FF00FF00FB0
:1058E000F00FF00FF00FF00FF00FF00FF00FF00FC0
:1058F000F00FF00FF00FF00FF00FF00FF00FF00FB0
:10590000F00F000F000F000F000F000F000F000F2F
:10591000000F000FF00FF00FF00FF00FF00FF00F6F
:10592000F00FF00FF00FF00F00000000000000007B
:105930000000F00FF00FF00F00000000000000006A
:105940000000F00FF00FF00FF00FF00FF00FF00F5E
:10595000F00FF00FF00FF00FF00FF00FF00FF00F4F
:1059600000000000000000000000F00FF00FF00F3A
:10597000F00F00000000000000000000F00FF00F2A
:10598000F00FF00FF00FF00FF00FF00FF00FF00F1F
:10599000F00FF00F00000000000000000000000009
:1059A000F00FF00FF00FF00FF00FF00FF00FF00FFF
:1059B000F00FF00FF00FF00FF00FF00FF00FF00FEF
:1059C000F00FF00FF00FF00FF00F000F000F000FAF
:1059D000000F000F000F000F000F000F000FF00F5F
:1059E000F00FF00FF00FF00FF00FF00FF00FF00FBF
:1059F000F00FF00FF00FF00FF00FF00FF00FF00FAF
:105A0000F00FF00FF00F000F000F000F000F000F4E
:105A1000000F000F000F000F000FF00FF00FF00F3E
:105A2000F00FF00FF00FF00FF00FF00FF00FF00F7E
:105A300000000000000000000000F00FF00F000068
:105A40000000000000000000F00FF00FF00FF00F5A
:105A5000F00FF00FF00FF00FF00FF00FF00FF00F4E
:105A6000F00FF00FF00FF00F00000000000000003A
:105A700000000000F00FF00FF00F00000000000029
:105A800000000000F00FF00FF00FF00FF00FF00F1C
:105A9000F00FF00FF00FF00FF00FF00FF00F00000D
:105AA00000000000000000000000F00FF00FF00FF9
:105AB000F00FF00FF00FF00FF00FF00FF00FF00FEE
:105AC000F00FF00FF00FF00FF00FF00FF00FF00FDE
:105AD000F00FF00F000F000F000F000F000F000F6E
:105AE000000F000F000F000F000FF00FF00FF00F6E
:105AF000F00FF00FF00FF00FF00FF00FF00FF00FAE
:105B0000F00FF00FF00FF00FF00FF00F000F000F7D
:105B1000000F000F000F000F000F000F000F000F0D
:105B2000F00FF00FF00FF00FF00FF00FF00FF00F7D
:105B3000F00FF00FF00FF00FF00FF00FF00FF00F6D
:105B4000F00FF00FF00FF00FF00FF00FF00FF00F5D
:105B5000F00FF00FF00FF00FF00FF00FF00FF00F4D
:105B6000F00FF00FF00FF00FF00FF00FF00FF00F3D
:105B7000F00FF00FF00FF00FF00FF00FF00FF00F2D
:105B8000F00FF00FF00FF00FF00FF00FF00FF00F1D
:105B9000F00FF00FF00FF00FF00FF00FF00FF00F0D
:105BA000F00FF00FF00FF00FF00FF00FF00FF00FFD
:105BB000F00FF00FF00FF00FF00FF00FF00FF00FED
:105BC000F00FF00FF00FF00FF00FF00FF00FF00FDD
:105BD000F00FF00FF00FF00FF00FF00F000F000FAD
:105BE000000F000F000F000F000F000F000F000F3D
:105BF000000F000F000FF00FF00FF00FF00FF00F7D
:105C0000F00FF00FF00FF00FF00FF00FF00FF00F9C
:105C1000000F000F000F000F000F000F000F000F0C
:105C2000000F000F000F000FF00FF00FF00FF00F3C
:105C3000F00FF00FF00FF00FF00FF00FF00FF00F6C
:105C4000F00FF00FF00FF00FF00FF00FF00FF00F5C
:105C5000F00FF00FF00FF00FF00FF00FF00FF00F4C
:105C6000F00FF00FF00FF00FF00FF00FF00FF00F3C
:105C7000F00FF00FF00FF00FF00FF00FF00FF00F2C
:105C8000F00FF00FF00FF00FF00FF00FF00FF00F1C
:105C9000F00FF00FF00FF00FF00FF00FF00FF00F0C
:105CA000F00FF00FF00FF00FF00FF00FF00FF00FFC
:105CB000F00FF00FF00FF00FF00FF00FF00FF00FEC
:105CC000F00FF00FF00FF00FF00FF00FF00FF00FDC
:105CD000F00FF00FF00FF00FF00FF00FF00FF00FCC
:105CE000F00FF00FF00F000F000F000F000F000F6C
:105CF000000F000F000F000F000F000F000F000F2C
:105D0000000F000F000FF00FF00FF00FF00FF00F6B
:105D1000000F000F000F000F000F000F000F000F0B
:105D2000000F000F000F000F000F000F000FF00F0B
:105D3000F00FF00FF00FF00FF00FF00FF00FF00F6B
:105D4000F00FF00FF00FF00FF00FF00FF00FF00F5B
:105D5000F00FF00FF00FF00FF00FF00FF00FF00F4B
:105D6000F00FF00FF00FF00FF00FF00FF00FF00F3B
:105D7000F00FF00FF00FF00FF00FF00FF00FF00F2B
:105D8000F00FF00FF00FF00FF00FF00FF00FF00F1B
:105D9000F00FF00FF00FF00FF00FF00FF00FF00F0B
:105DA000F00FF00FF00FF00FF00FF00FF00FF00FFB
:105DB000F00FF00FF00FF00FF00FF00FF00FF00FEB
:105DC000F00FF00FF00FF00FF00FF00FF00FF00FDB
:105DD000F00FF00FF00FF00FF00FF00FF00FF00FCB
:105DE000F00FF00FF00FF00FF00FF00FF00FF00FBB
:105DF000000F000F000F000F000F000F000F000F2B
:105E0000000F000F000F000F000F000F000F000F1A
:105E1000000F000F000F000F000F000F000F000F0A
:105E2000000F000F000F000F000F000F000F000FFA
:105E3000000F000FF00FF00FF00FF00FF00FF00F4A
:105E4000F00FF00FF00FF00FF00FF00FF00FF00F5A
:105E5000F00FF00FF00FF00FF00FF00FF00FF00F4A
:105E6000F00FF00FF00FF00FF00FF00FF00FF00F3A
:105E7000F00FF00FF00FF00FF00FF00FF00FF00F2A
:105E8000F00FF00FF00FF00FF00FF00FF00FF00F1A
:105E9000F00FF00FF00FF00FF00FF00FF00FF00F0A
:105EA000F00FF00FF00FF00FF00FF00FF00FF00FFA
:105EB000F00FF00FF00FF00FF00FF00FF00FF00FEA
:105EC000F00FF00FF00FF00FF00FF00FF00FF00FDA
:105ED000F00FF00FF00FF00FF00FF00FF00FF00FCA
:105EE000F00FF00FF00FF00FF00FF00FF00FF00FBA
:105EF000F00FF00FF00FF00FF00F000F000F000F7A
:105F0000000F000F000F000F000F000F000F000F19
:105F1000000F000F000F000F000F000F000F000F09
:105F2000000F000F000F000F000F000F000F000FF9
:105F3000000F000F000F000F000FF00FF00FF00F19
:105F4000F00FF00FF00FF00FF00FF00FF00FF00F59
:105F5000F00FF00FF00FF00FF00FF00FF00FF00F49
:105F6000F00FF00FF00FF00FF00FF00FF00FF00F39
:105F7000F00FF00FF00FF00FF00FF00FF00FF00F29
:105F8000F00FF00FF00FF00FF00FF00FF00FF00F19
:105F9000F00FF00FF00FF00FF00FF00FF00FF00F09
:105FA000F00FF00FF00FF00FF00FF00FF00FF00FF9
:105FB000F00FF00FF00FF00FF00FF00FF00FF00FE9
:105FC000F00FF00FF00FF00FF00FF00FF00FF00FD9
:105FD000F00FF00FF00FF00FF00FF00FF00FF00FC9
:105FE000F00FF00FF00FF00FF00FF00FF00FF00FB9
:105FF000F00FF00FF00FF00FF00FF00FF00FF00FA9
:10600000F00FF00FF00F000F000F000F000F000F48
:10601000000F000F000F000F000F000F000F000F08
:10602000000F000F000F000F000F000F000F000FF8
:10603000000F000F000F000F000F000F000FF00FF8
:10604000F00FF00FF00FF00FF00FF00FF00FF00F58
:10605000F00FF00FF00FF00FF00FF00FF00FF00F48
:10606000F00FF00FF00FF00FF00FF00FF00FF00F38
:10607000F00FF00FF00FF00FF00FF00FF00FF00F28
:10608000F00FF00FF00FF00FF00FF00FF00FF00F18
:10609000F00FF00FF00FF00FF00FF00FF00FF00F08
:1060A000F00FF00FF00FF00FF00FF00FF00FF00FF8
:1060B000F00FF00FF00FF00FF00FF00FF00FF00FE8
:1060C000F00FF00FF00FF00FF00FF00FF00FF00FD8
:1060D000F00FF00FF00FF00FF00FF00FF00FF00FC8
:1060E000F00FF00FF00FF00FF00FF00FF00FF00FB8
:1060F000F00FF00FF00FF00FF00FF00FF00FF00FA8
:10610000F00FF00FF00FF00FF00FF00FF00FF00F97
:10611000000F000F000F000F000F000F000F000F07
:10612000000F000F000F000F000F000F000F000FF7
:10613000000F000F000F000F000F000F000F000FE7
:10614000000F000FF00FF00FF00FF00FF00FF00F37
:10615000F00FF00FF00FF00FF00FF00FF00FF00F47
:10616000F00FF00FF00FF00FF00FF00FF00FF00F37
:10617000F00FF00FF00FF00FF00FF00FF00FF00F27
:10618000F00FF00FF00FF00FF00FF00FF00FF00F17
:10619000F00FF00FF00FF00FF00FF00FF00FF00F07
:1061A000F00FF00FF00FF00FF00FF00FF00FF00FF7
:1061B000F00FF00FF00FF00FF00FF00FF00FF00FE7
:1061C000F00FF00FF00FF00FF00FF00FF00FF00FD7
:1061D000F00FF00FF00FF00FF00FF00FF00FF00FC7
:1061E000F00FF00FF00FF00FF00FF00FF00FF00FB7
:1061F000F00FF00FF00FF00FF00FF00FF00FF00FA7
:10620000F00FF00FF00FF00FF00FF00FF00FF00F96
:10621000F00FF00FF00FF00FF00FF00F000F000F66
:10622000000F000F000F000F000F000F000F000FF6
:10623000000F000F000F000F000F000F000F000FE6
:10624000000F000F000F000FF00FF00FF00FF00F16
:10625000F00FF00FF00FF00FF00FF00FF00FF00F46
:10626000F00FF00FF00FF00FF00FF00FF00FF00F36
:10627000F00FF00FF00FF00FF00FF00FF00FF00F26
:10628000F00FF00FF00FF00FF00FF00FF00FF00F16
:10629000F00FF00FF00FF00FF00FF00FF00FF00F06
:1062A000F00FF00FF00FF00FF00FF00FF00FF00FF6
:1062B000F00FF00FF00FF00FF00FF00FF00FF00FE6
:1062C000F00FF00FF00FF00FF00FF00FF00FF00FD6
:1062D000F00FF00FF00FF00FF00FF00FF00FF00FC6
:1062E000F00FF00FF00FF00FF00FF00FF00FF00FB6
:1062F000F00FF00FF00FF00FF00FF00FF00FF00FA6
:10630000F00FF00FF00FF00FF00FF00FF00FF00F95
:10631000F00FF00FF00FF00FF00FF00FF00FF00F85
:10632000F00FF00FF00F000F000F000F000F000F25
:10633000000F000F000F000F000F000F000F000FE5
:10634000000F000F000F000F000F000F000FF00FE5
:10635000F00FF00FF00FF00FF00FF00FF00FF00F45
:10636000F00FF00FF00FF00FF00FF00FF00FF00F35
:10637000F00FF00FF00FF00FF00FF00FF00FF00F25
:10638000F00FF00FF00FF00FF00FF00FF00FF00F15
:10639000F00FF00FF00FF00FF00FF00FF00FF00F05
:1063A000F00FF00FF00FF00FF00FF00FF00FF00FF5
:1063B000F00FF00FF00FF00FF00FF00FF00FF00FE5
:1063C000F00FF00FF00FF00FF00FF00FF00FF00FD5
:1063D000F00FF00FF00FF00FF00FF00FF00FF00FC5
:1063E000F00FF00FF00FF00FF00FF00FF00FF00FB5
:1063F000F00FF00FF00FF00FF00FF00FF00FF00FA5
:10640000F00FF00FF00FF00FF00FF00FF00FF00F94
:10641000F00FF00FF00FF00FF00FF00FF00FF00F84
:10642000F00FF00FF00FF00FF00FF00FF00FF00F74
:10643000F00FF00FF00FF00F000F000F000F000F24
:10644000000F000F000F000F000F000FF00FF00FF4
:10645000F00FF00FF00FF00FF00FF00FF00FF00F44
:10646000F00FF00FF00FF00FF00FF00FF00FF00F34
:10647000F00FF00FF00FF00FF00FF00FF00FF00F24
:10648000F00FF00FF00FF00FF00FF00FF00FF00F14
:10718000F00FF00FF00FF00FF00F00000000000004
:107190000000000000000000F00FF00FF00FF00FF3
:1071A000F00FF00FF00FF00FF00FF00FF00FF00FE7
:1071B000F00FF00FF00FF00FF00FF00FF00FF00FD7
:1071C000F00FF00FF00FF00FF00FF00FF00FF00FC7
:1071D000F00FF00FF00FF00FF00FF00FF00FF00FB7
:1071E000F00FF00FF00FF00FF00FF00FF00F0000A6
:1071F000F00FF00FF00FF00FF00FF00FF00FF00F97
:10720000F00FF00FF00FF00FF00FF00FF00FF00F86
:10721000F00FF00FF00FF00FF00FF00FF00FF00F76
:10722000F00FF00FF00FF00FF00FF00FF00FF00F66
:10723000F00FF00FF00FF00FF00FF00FF00FF00F56
:10724000F00FF00FF00FF00FF00FF00FF00FF00F46
:10725000F00FF00FF00FF00FF00FF00FF00FF00F36
:10726000F00FF00FF00FF00FF00FF00FF00FF00F26
:10727000F00FF00FF00FF00FF00FF00FF00FF00F16
:10728000F00FF00FF00FF00FF00FF00FF00F000005
:1072900000000000000000000000000000000000EE
:1072A00000000000F00FF00FF00FF00FF00FF00FE4
:1072B000F00FF00FF00FF00FF00FF00FF00FF00FD6
:1072C000F00FF00FF00FF00FF00FF00FF00FF00FC6
:1072D000F00FF00FF00FF00FF00FF00FF00FF00FB6
:1072E000F00FF00FF00FF00FF00FF00FF00FF00FA6
:1072F000F00F000000000000F00FF00FF00FF00F93
:10730000F00FF00FF00FF00FF00FF00FF00FF00F85
:10731000F00FF00FF00FF00FF00FF00FF00FF00F75
:10732000F00FF00FF00FF00FF00FF00FF00FF00F65
:10733000F00FF00FF00FF00FF00FF00FF00FF00F55
:10734000F00FF00FF00FF00FF00FF00FF00FF00F45
:10735000F00FF00FF00FF00FF00FF00FF00FF00F35
:10736000F00FF00FF00FF00FF00FF00FF00FF00F25
:10737000F00FF00FF00FF00FF00FF00FF00FF00F15
:10738000F00FF00FF00FF00FF00FF00FF00FF00F05
:10739000F00FF00F000000000000000000000000EF
:1073A0000000000000000000000000000000F00FDE
:1073B000F00FF00FF00FF00FF00FF00FF00FF00FD5
:1073C000F00FF00FF00FF00FF00FF00FF00FF00FC5
:1073D000F00FF00FF00FF00FF00FF00FF00FF00FB5
:1073E000F00FF00FF00FF00FF00FF00FF00FF00FA5
:1073F000F00FF00FF00FF00F000000000000000091
:10740000F00FF00FF00FF00FF00FF00FF00FF00F84
:10741000F00FF00FF00FF00FF00FF00FF00FF00F74
:10742000F00FF00FF00FF00FF00FF00FF00FF00F64
:10743000F00FF00FF00FF00FF00FF00FF00FF00F54
:10744000F00FF00FF00FF00FF00FF00FF00FF00F44
:10745000F00FF00FF00FF00FF00FF00FF00FF00F34
:10746000F00FF00FF00FF00FF00FF00FF00FF00F24
:10747000F00FF00FF00FF00FF00FF00FF00FF00F14
:10748000F00FF00FF00FF00FF00FF00FF00FF00F04
:10749000F00FF00FF00FF00FF00F000000000000F1
:1074A00000000000000000000000000000000000DC
:1074B000000000000000F00FF00FF00FF00FF00FD1
:1074C000F00FF00FF00FF00FF00FF00FF00FF00FC4
:1074D000F00FF00FF00FF00FF00FF00FF00FF00FB4
:1074E000F00FF00FF00FF00FF00FF00FF00FF00FA4
:1074F000F00FF00FF00FF00FF00FF00FF00FF00F94
:107500000000000000000000F00FF00FF00FF00F7F
:10751000F00FF00FF00FF00FF00FF00FF00FF00F73
:10752000F00FF00FF00FF00FF00FF00FF00FF00F63
:10753000F00FF00FF00FF00FF00FF00FF00FF00F53
:10754000F00FF00FF00FF00FF00FF00FF00FF00F43
:10755000F00FF00FF00FF00FF00FF00FF00FF00F33
:10756000F00FF00FF00FF00FF00FF00FF00FF00F23
:10757000F00FF00FF00FF00FF00FF00FF00FF00F13
:10758000F00FF00FF00FF00FF00FF00FF00FF00F03
:10759000F00FF00FF00FF00FF00FF00FF00FF00FF3
:1075A000F00F00000000000000000000F00FF00FDE
:1075B000F00FF00FF00F00000000000000000000CE
:1075C000F00FF00FF00FF00FF00FF00FF00FF00FC3
:1075D000F00FF00FF00FF00FF00FF00FF00FF00FB3
:1075E000F00FF00FF00FF00FF00FF00FF00FF00FA3
:1075F000F00FF00FF00FF00FF00FF00FF00FF00F93
:10760000F00FF00FF00FF00F00000000000000007E
:10761000F00FF00FF00FF00FF00FF00FF00FF00F72
:10762000F00FF00FF00FF00FF00FF00FF00FF00F62
:10763000F00FF00FF00FF00FF00FF00FF00FF00F52
:10764000F00FF00FF00FF00FF00FF00FF00FF00F42
:10765000F00FF00FF00FF00FF00FF00FF00FF00F32
:10766000F00FF00FF00FF00FF00FF00FF00FF00F22
:10767000F00FF00FF00FF00FF00FF00FF00FF00F12
:10768000F00FF00FF00FF00FF00FF00FF00FF00F02
:10769000F00FF00FF00FF00FF00FF00FF00FF00FF2
:1076A000F00FF00FF00FF00FF00F000000000000DF
:1076B0000000F00FF00FF00FF00FF00FF00FF00FD1
:1076C0000000000000000000F00FF00FF00F0000BD
:1076D000000000000000F00FF00FF00FF00FF00FAF
:1076E000F00FF00F0000000000000000F00FF00F9E
:1076F000F00FF00FF00F000000000000000000008D
:107700000000F00FF00FF00FF00FF00F000000007E
:107710000000000000000000000000000000F00F6A
:10772000F00FF00FF00FF00FF00F0000000000005E
:10773000000000000000F00FF00FF00FF00FF00F4E
:10774000F00FF00F0000000000000000F00FF00F3D
:1077500000000000000000000000F00FF00FF00F2C
:10776000F00F00000000000000000000F00FF00F1C
:10777000F00FF00FF00FF00FF00FF00FF00F000010
:1077800000000000000000000000F00FF00FF00FFC
:10779000F00FF00FF00FF00FF00FF00FF00FF00FF1
:1077A000F00FF00FF00FF00FF00FF00FF00FF00FE1
:1077B000F00F00000000000000000000F00FF00FCC
:1077C000F00FF00FF00FF00FF00FF00FF00FF00FC1
:1077D000F00FF00FF00F0000000000000000F00FAD
:1077E000F00FF00FF00FF00FF00FF00F000000009F
:1077F00000000000F00FF00FF00F0000000000008C
:107800000000000000000000000000000000F00F79
:10781000F00FF00F0000000000000000000000006A
:10782000000000000000F00FF00FF00FF00FF00F5D
:107830000000000000000000000000000000000048
:10784000F00FF00FF00FF00FF00FF00F000000003E
:1078500000000000F00F0000000000000000000029
:1078600000000000F00F0000000000000000000019
:10787000000000000000F00FF00FF00FF00FF00F0D
:10788000F00F0000000000000000000000000000F9
:10789000000000000000F00FF00FF00FF00FF00FED
:1078A000F00FF00FF00FF00FF00FF00FF00FF00FE0
:1078B000F00FF00FF00FF00FF00F000000000000CD
:1078C0000000000000000000F00FF00FF00FF00FBC
:1078D000F00FF00FF00FF00FF00FF00FF00FF00FB0
:1078E0000000000000000000F00FF00FF00FF00F9C
:1078F000F00F0000000000000000F00FF00FF00F8C
:10790000F00F000000000000000000000000000078
:107910000000000000000000F00FF00F0000000069
:107920000000000000000000000000000000F00F58
:10793000F00FF00FF00F000000000000000000004A
:1079400000000000000000000000F00FF00FF00F3A
:10795000F00FF00F00000000000000000000000029
:107960000000000000000000000000000000000017
:107970000000000000000000000000000000F00F08
:10798000F00FF00FF00FF00FF00F000000000000FC
:1079900000000000000000000000000000000000E7
:1079A000F00FF00FF00FF00FF00FF00FF00FF00FDF
:1079B000F00FF00FF00FF00FF00FF00FF00FF00FCF
:1079C000F00FF00F000000000000000000000000B9
:1079D0000000000000000000F00FF00FF00FF00FAB
:1079E000F00FF00FF00FF00F00000000000000009B
:1079F000F00FF00FF00FF00FF00F0000000000008C
:107A00000000F00FF00FF00F000000000000000079
:107A1000F00FF00FF00FF00F00000000000000006A
:107A20000000F00FF00FF00F000000000000000059
:107A3000F00FF00FF00FF00FF00FF00F000000004C
:107A400000000000F00FF00FF00FF00F000000003A
:107A500000000000F00FF00FF00FF00F000000002A
:107A6000000000000000F00FF00FF00F0000000019
:107A70000000000000000000F00FF00FF00F000009
:107A80000000000000000000F00FF00FF00FF00FFA
:107A90000000000000000000F00FF00FF00FF00FEA
:107AA00000000000000000000000F00FF00FF00FD9
:107AB000F00FF00FF00FF00FF00FF00FF00FF00FCE
:107AC000F00FF00FF00FF00FF00FF00FF00F0000BD
:107AD00000000000000000000000000000000000A6
:107AE00000000000F00FF00FF00FF00FF00FF00F9C
:107AF0000000000000000000F00FF00FF00FF00F8A
:107B0000F00F0000000000000000F00FF00FF00F79
:107B10000000000000000000F00FF00FF00FF00F69
:107B2000F00F00000000F00FF00FF00FF00FF00F5B
:107B30000000000000000000F00FF00FF00FF00F49
:107B4000F00FF00F000000000000F00FF00FF00F3A
:107B5000F00FF00FF00F000000000000F00FF00F2A
:107B6000F00FF00F00000000000000000000F00F18
:107B7000F00FF00FF00F0000000000000000000008
:107B8000F00FF00FF00FF00F0000000000000000F9
:107B9000F00FF00FF00FF00F0000000000000000E9
:107BA000F00FF00FF00FF00FF00F00000000F00FDB
:107BB000F00FF00FF00FF00FF00FF00FF00FF00FCD
:107BC000F00FF00FF00FF00FF00FF00FF00FF00FBD
:107BD000F00FF00FF00FF00F0000000000000000A9
:107BE0000000000000000000000000000000F00F96
:107BF000F00FF00FF00FF00FF00F0000000000008A
:107C0000F00FF00FF00FF00FF00F00000000000079
:107C1000F00FF00FF00FF00F000000000000000068
:107C20000000F00FF00FF00FF00FF00FF00FF00F5B
:107C3000F00FF00FF00FF00F000000000000000048
:107C4000F00FF00FF00FF00FF00F00000000000039
:107C50000000F00FF00FF00FF00FF00FF00F00002A
:107C6000000000000000F00FF00FF00F0000000017
:107C700000000000F00FF00FF00FF00FF00F000009
:107C8000000000000000F00FF00FF00FF00FF00FF9
:107C90000000000000000000F00FF00FF00FF00FE8
:107CA00000000000000000000000F00FF00FF00FD7
:107CB000F00FF00FF00FF00FF00FF00FF00FF00FCC
:107CC000F00FF00FF00FF00FF00FF00FF00FF00FBC
:107CD000F00FF00FF00FF00FF00FF00FF00FF00FAC
:107CE000F00FF00F00000000000000000000000096
:107CF0000000000000000000F00FF00FF00FF00F88
:107D0000F00F0000000000000000F00FF00FF00F77
:107D10000000000000000000F00FF00FF00FF00F67
:107D2000F00F000000000000000000000000000054
:107D3000F00FF00FF00FF00FF00FF00FF00FF00F4B
:107D40000000000000000000F00FF00FF00FF00F37
:107D5000F00F000000000000000000000000000024
:107D60000000000000000000000000000000F00F14
:107D7000F00FF00F0000000000000000F00FF00F07
:107D8000F00FF00FF00F0000000000000000F00FF7
:107D9000F00FF00FF00FF00F0000000000000000E7
:107DA000F00FF00FF00FF00FF00F000000000000D8
:107DB0000000000000000000F00FF00FF00FF00FC7
:107DC000F00FF00FF00FF00FF00FF00FF00FF00FBB
:107DD000F00FF00FF00FF00FF00FF00FF00FF00FAB
:107DE000F00FF00FF00FF00FF00FF00FF00FF00F9B
:107DF000F00FF00F00000000000000000000000085
:107E00000000F00FF00FF00FF00F00000000000076
:107E10000000F00FF00FF00F000000000000000065
:107E2000F00FF00FF00FF00FF00F00000000000057
:107E3000000000000000000000000000F00FF00F44
:107E4000F00FF00FF00FF00F000000000000000036
:107E5000F00FF00FF00FF00FF00F00000000000027
:107E60000000000000000000000000000000000012
:107E7000000000000000F00FF00FF00F0000000005
:107E800000000000F00FF00FF00FF00FF00F0000F7
:107E9000000000000000F00FF00FF00FF00FF00FE7
:107EA0000000000000000000F00FF00FF00FF00FD6
:107EB000F00F0000000000000000000000000000C3
:107EC00000000000F00FF00FF00FF00FF00FF00FB8
:107ED000F00FF00FF00FF00FF00FF00FF00FF00FAA
:107EE000F00FF00FF00FF00FF00FF00FF00FF00F9A
:107EF000F00FF00FF00FF00FF00FF00FF00FF00F8A
:107F000000000000000000000000F00FF00FF00F74
:107F1000F00FF00F000000000000F00FF00FF00F66
:107F2000000000000000F00FF00FF00FF00FF00F56
:107F3000F00FF00FF00F0000000000000000000044
:107F40000000000000000000F00FF00FF00FF00F35
:107F50000000000000000000F00FF00FF00FF00F25
:107F6000F00F000000000000000000000000000012
:107F70000000000000000000000000000000F00F02
:107F8000F00FF00F0000000000000000F00FF00FF5
:107F9000F00FF00FF00F0000000000000000F00FE5
:107FA000F00FF00FF00FF00F0000000000000000D5
:107FB000F00FF00FF00FF00FF00FF00FF00F0000C8
:107FC00000000000000000000000000000000000B1
:107FD000F00FF00FF00FF00FF00FF00FF00FF00FA9
:107FE000F00FF00FF00FF00FF00FF00FF00FF00F99
:107FF0000000000000000000F00FF00FF00FF00F85
:10800000F00FF00FF00FF00FF00F00000000000075
:108010000000F00FF00FF00FF00FF00F0000000065
:1080200000000000F00F0000000000000000F00F52
:10803000F00FF00FF00FF00FF00FF00FF00FF00F48
:10804000F00FF00F00000000000000000000000032
:10805000F00FF00FF00FF00F000000000000000024
:10806000F00FF00FF00FF00FF00F00000000000015
:108070000000F00FF00FF00FF00FF00FF00FF00F07
:10808000F00FF00FF00FF00FF00FF00F00000000F6
:1080900000000000F00FF00FF00FF00FF00F0000E5
:1080A000000000000000F00FF00FF00FF00FF00FD5
:1080B0000000000000000000F00FF00FF00FF00FC4
:1080C000F00FF00FF00FF00FF00FF00F00000000B6
:1080D0000000000000000000F00FF00FF00FF00FA4
:1080E000F00FF00FF00FF00FF00FF00FF00FF00F98
:1080F000F00FF00FF00FF00F000000000000000084
:108100000000F00FF00FF00FF00FF00FF00FF00F76
:10811000F00F0000000000000000F00FF00FF00F63
:10812000F00FF00FF00F000000000000F00F000053
:10813000000000000000F00FF00FF00FF00FF00F44
:10814000F00FF00FF00FF00FF00FF00FF00FF00F37
:1081500000000000000000000000F00FF00FF00F22
:108160000000000000000000F00FF00FF00FF00F13
:10817000F00F0000000000000000F00FF00FF00F03
:10818000F00FF00FF00FF00FF00FF00FF00FF00FF7
:10819000F00FF00F0000000000000000F00FF00FE3
:1081A000F00FF00FF00F0000000000000000F00FD3
:1081B000F00FF00FF00FF00F0000000000000000C3
:1081C000F00FF00FF00FF00FF00FF00FF00FF00FB7
:1081D000F00FF00FF00FF00F0000000000000000A3
:1081E0000000F00FF00FF00FF00FF00FF00FF00F96
:1081F000F00FF00FF00FF00FF00FF00FF00FF00F87
:10820000F00F00000000000000000000F00FF00F71
:10821000F00FF00FF00FF00F000000000000000062
:108220000000F00FF00FF00FF00FF00FF00F000054
:1082300000000000F00F000000000000F00FF00F41
:10824000F00FF00FF00FF00FF00F00000000F00F34
:10825000F00FF00FF00FF00FF00F00000000000023
:108260000000F00FF00FF00F000000000000000011
:10827000F00FF00FF00FF00FF00FF00F0000000004
:1082800000000000F00FF00FF00FF00FF00FF00FF4
:10829000F00FF00FF00FF00FF00FF00F00000000E4
:1082A00000000000F00FF00FF00FF00FF00F0000D3
:1082B000000000000000F00FF00FF00FF00FF00FC3
:1082C0000000000000000000F00FF00FF00FF00FB2
:1082D000F00F00000000F00FF00FF00FF00FF00FA4
:1082E000F00F0000000000000000F00FF00FF00F92
:1082F000F00FF00FF00FF00FF00FF00FF00FF00F86
:10830000F00FF00FF00FF00FF00F00000000000072
:10831000000000000000000000000000000000005D
:108320000000000000000000F00FF00FF00FF00F51
:10833000F00FF00FF00F0000000000000000000040
:1083400000000000F00FF00FF00FF00FF00F000032
:108350000000000000000000F00FF00FF00FF00F21
:10836000F00F0000000000000000F00FF00FF00F11
:108370000000000000000000F00FF00FF00FF00F01
:10838000F00FF00F00000000000000000000F00FF0
:10839000F00FF00FF00F00000000F00FF00FF00FE3
:1083A000F00FF00F0000000000000000F00FF00FD1
:1083B000F00FF00FF00F0000000000000000F00FC1
:1083C000F00FF00FF00FF00F0000000000000000B1
:1083D000F00FF00FF00F00000000000000000000A0
:1083E000F00FF00FF00FF00FF00F00000000000092
:1083F0000000F00FF00FF00FF00FF00FF00FF00F84
:10840000F00FF00FF00FF00FF00FF00FF00FF00F74
:10841000F00FF00F0000000000000000000000005E
:10842000000000000000000000000000000000004C
:10843000F00FF00FF00FF00FF00FF00FF00FF00F44
:1084400000000000000000000000F00FF00FF00F2F
:10845000F00FF00FF00FF00F000000000000000020
:10846000000000000000000000000000000000000C
:10847000F00FF00FF00FF00F000000000000000000
:10848000000000000000F00FF00FF00FF00F0000F0
:1084900000000000000000000000000000000000DC
:1084A000000000000000F00FF00FF00F00000000CF
:1084B00000000000F00FF00FF00FF00FF00F0000C1
:1084C000000000000000F00FF00FF00FF00FF00FB1
:1084D0000000000000000000F00FF00FF00FF00FA0
:1084E000000000000000000000000000000000008C
:1084F0000000000000000000F00FF00FF00FF00F80
:10850000F00FF00FF00FF00FF00FF00FF00FF00F73
:10851000F00FF00FF00FF00FF00FF00FF00F000062
:10852000000000000000000000000000000000004B
:10853000000000000000F00FF00FF00FF00FF00F40
:10854000F00FF00FF00FF00F00000000000000002F
:108550000000F00FF00FF00FF00FF00FF00FF00F22
:10856000F00F00000000000000000000000000000C
:108570000000000000000000F00FF00FF00FF00FFF
:10858000F00F000000000000000000000000F00FED
:10859000F00FF00FF00FF00F0000000000000000DF
:1085A000000000000000000000000000F00FF00FCD
:1085B000F00FF00F0000000000000000F00FF00FBF
:1085C000F00FF00FF00F0000000000000000F00FAF
:1085D000F00FF00FF00FF00F00000000000000009F
:1085E000F00FF00FF00FF00FF00F00000000000090
:1085F000000000000000000000000000000000007B
:10860000F00FF00FF00FF00FF00FF00FF00FF00F72
:10861000F00FF00FF00FF00FF00FF00FF00FF00F62
:10862000F00FF00FF00FF00FF00F0000000000004F
:108630000000000000000000F00FF00FF00FF00F3E
:10864000F00FF00FF00FF00FF00FF00FF00FF00F32
:1086500000000000000000000000F00FF00FF00F1D
:10866000F00FF00FF00FF00FF00FF00FF00F000011
:10867000000000000000000000000000F00FF00FFC
:10868000F00FF00FF00FF00FF00FF00F00000000F0
:10869000000000000000F00FF00FF00FF00FF00FDF
:1086A000F00F0000000000000000000000000000CB
:1086B000F00FF00FF00FF00FF00FF00F00000000C0
:1086C00000000000F00FF00FF00FF00FF00F0000AF
:1086D000000000000000F00FF00FF00FF00FF00F9F
:1086E0000000000000000000F00FF00FF00FF00F8E
:1086F000F00FF00FF00F000000000000000000007D
:1087000000000000F00FF00FF00FF00FF00FF00F6F
:10871000F00FF00FF00FF00FF00FF00FF00FF00F61
:10872000F00FF00FF00FF00FF00FF00FF00FF00F51
:10873000F00FF00FF00FF00FF00FF00FF00FF00F41
:10874000F00FF00FF00FF00FF00FF00FF00FF00F31
:10875000F00FF00FF00FF00F00000000000000001D
:10876000F00FF00FF00FF00FF00FF00FF00FF00F11
:10877000F00FF00FF00FF00FF00FF00FF00FF00F01
:10878000F00FF00FF00FF00FF00FF00FF00FF00FF1
:10879000F00FF00FF00FF00FF00FF00FF00FF00FE1
:1087A000F00FF00FF00FF00FF00FF00FF00FF00FD1
:1087B000F00FF00FF00FF00FF00FF00FF00FF00FC1
:1087C000F00FF00FF00FF00FF00FF00FF00FF00FB1
:1087D000F00FF00FF00FF00FF00FF00FF00FF00FA1
:1087E000F00FF00FF00FF00FF00FF00FF00FF00F91
:1087F000F00FF00FF00FF00FF00FF00FF00FF00F81
:10880000F00FF00FF00FF00FF00FF00FF00FF00F70
:10881000F00FF00FF00FF00FF00FF00FF00FF00F60
:10882000F00FF00FF00FF00FF00FF00FF00FF00F50
:10883000F00FF00FF00FF00FF00FF00FF00FF00F40
:10884000F00FF00FF00FF00FF00FF00FF00FF00F30
:10885000F00FF00FF00FF00FF00FF00FF00FF00F20
:108860000000000000000000F00FF00FF00FF00F0C
:10887000F00FF00FF00FF00FF00FF00FF00FF00F00
:10888000F00FF00FF00FF00FF00FF00FF00FF00FF0
:10889000F00FF00FF00FF00FF00FF00FF00FF00FE0
:1088A000F00FF00FF00FF00FF00FF00FF00FF00FD0
:1088B000F00FF00FF00FF00FF00FF00FF00FF00FC0
:1088C000F00FF00FF00FF00FF00FF00FF00FF00FB0
:1088D000F00FF00FF00FF00FF00FF00FF00FF00FA0
:1088E000F00FF00FF00FF00FF00FF00FF00FF00F90
:1088F000F00FF00FF00FF00FF00FF00FF00FF00F80
:10890000F00FF00FF00FF00FF00FF00FF00FF00F6F
:10891000F00FF00FF00FF00FF00FF00FF00FF00F5F
:10892000F00FF00FF00FF00FF00FF00FF00FF00F4F
:10893000F00FF00FF00FF00FF00FF00FF00FF00F3F
:10894000F00FF00FF00FF00FF00FF00FF00FF00F2F
:10895000F00FF00FF00FF00FF00FF00FF00FF00F1F
:10896000F00FF00FF00F000000000000000000000A
:10897000F00FF00FF00FF00FF00FF00FF00FF00FFF
:10898000F00FF00FF00FF00FF00FF00FF00FF00FEF
:10899000F00FF00FF00FF00FF00FF00FF00FF00FDF
:1089A000F00FF00FF00FF00FF00FF00FF00FF00FCF
:1089B000F00FF00FF00FF00FF00FF00FF00FF00FBF
:1089C000F00FF00FF00FF00FF00FF00FF00FF00FAF
:1089D000F00FF00FF00FF00FF00FF00FF00FF00F9F
:1089E000F00FF00FF00FF00FF00FF00FF00FF00F8F
:1089F000F00FF00FF00FF00FF00FF00FF00FF00F7F
:108A0000F00FF00FF00FF00FF00FF00FF00FF00F6E
:108A1000F00FF00FF00FF00FF00FF00FF00FF00F5E
:108A2000F00FF00FF00FF00FF00FF00FF00FF00F4E
:108A3000F00FF00FF00FF00FF00FF00FF00FF00F3E
:108A4000F00FF00FF00FF00FF00FF00FF00FF00F2E
:108A5000F00FF00FF00FF00FF00FF00FF00FF00F1E
:108A6000F00FF00FF00FF00F00000000000000000A
:108A7000000000000000F00FF00FF00FF00FF00FFB
:108A8000F00FF00FF00FF00FF00FF00FF00FF00FEE
:108A9000F00FF00FF00FF00FF00FF00FF00FF00FDE
:108AA000F00FF00FF00FF00FF00FF00FF00FF00FCE
:108AB000F00FF00FF00FF00FF00FF00FF00FF00FBE
:108AC000F00FF00FF00FF00FF00FF00FF00FF00FAE
:108AD000F00FF00FF00FF00FF00FF00FF00FF00F9E
:108AE000F00FF00FF00FF00FF00FF00FF00FF00F8E
:108AF000F00FF00FF00FF00FF00FF00FF00FF00F7E
:108B0000F00FF00FF00FF00FF00FF00FF00FF00F6D
:108B1000F00FF00FF00FF00FF00FF00FF00FF00F5D
:108B2000F00FF00FF00FF00FF00FF00FF00FF00F4D
:108B3000F00FF00FF00FF00FF00FF00FF00FF00F3D
:108B4000F00FF00FF00FF00FF00FF00FF00FF00F2D
:108B5000F00FF00FF00FF00FF00FF00FF00FF00F1D
:108B6000F00FF00FF00FF00FF00FF00FF00FF00F0D
:108B7000000000000000000000000000F00FF00FF7
:108B8000F00FF00FF00FF00FF00FF00FF00FF00FED
:108B9000F00FF00FF00FF00FF00FF00FF00FF00FDD
:108BA000F00FF00FF00FF00FF00FF00FF00FF00FCD
:108BB000F00FF00FF00FF00FF00FF00FF00FF00FBD
:108BC000F00FF00FF00FF00FF00FF00FF00FF00FAD
:108BD000F00FF00FF00FF00FF00FF00FF00FF00F9D
:108BE000F00FF00FF00FF00FF00FF00FF00FF00F8D
:108BF000F00FF00FF00FF00FF00FF00FF00FF00F7D
:108C0000F00FF00FF00FF00FF00FF00FF00FF00F6C
:108C1000F00FF00FF00FF00FF00FF00FF00FF00F5C
:108C2000F00FF00FF00FF00FF00FF00FF00FF00F4C
:108C3000F00FF00FF00FF00FF00FF00FF00FF00F3C
:108C4000F00FF00FF00FF00FF00FF00FF00FF00F2C
:108C5000F00FF00FF00FF00FF00FF00FF00FF00F1C
:108C6000F00FF00FF00FF00FF00FF00FF00FF00F0C
:108C7000F00FF00FF00FF00F0000000000000000F8
:108C80000000F00FF00FF00FF00FF00FF00FF00FEB
:108C9000F00FF00FF00FF00FF00FF00FF00FF00FDC
:108CA000F00FF00FF00FF00FF00FF00FF00FF00FCC
:108CB000F00FF00FF00FF00FF00FF00FF00FF00FBC
:108CC000F00FF00FF00FF00FF00FF00FF00FF00FAC
:10A9200010B402001068401C03006420B3FBF0F474
:10A9300000FB14335068834201D1002004E010680A
:10A94000801801721360012010BC704710B402001F
:10A9500010685468A04201D100200DE05068401CEE
:10A9600003006420B3FBF0F400FB1433506880183C
:10A97000007A08705360012010BC704770B582B037
:10A98000DFF8240B0068040014F00F00022858D0F0
:10A99000042803D0062801D00C2865D1DFF80C0B61
:10A9A0000078C0B205002800800707D5DFF8000B4B
:10A9B000006850F00200DFF8F81A0860DFF89C0C1D
:10A9C00000788DF800002800C00608D5DFF8E00AFE
:10A9D000006850F01000DFF8D81A086016E0280070
:10A9E000000708D5DFF8C80A006850F00800DFF853
:10A9F000C01A08600AE02800400707D5DFF8B00A4F
:10AA0000006850F00400DFF8A81A08609DF80010F4
:10AA1000DFF8A00A0068FFF783FF002808D1DFF8FD
:10AA2000900A006850F00200DFF8841A08601BE00A
:10AA3000DFF8780A0078C0B205002800C007B2D459
:10AA400012E00F200600002E0ED000A9DFF8540BF4
:10AA50000068FFF77BFF002806D0DFF8000C9DF8A8
:10AA600000100170761EEEE7152004F054FD73BD52
:10AA700070B582B0DFF8300B0068040014F00F00EE
:10AA8000022858D0042803D0062801D00C2865D10C
:10AA9000DFF8180B0078C0B205002800800707D542
:10AAA000DFF8580B006850F00200DFF8501B086018
:10AAB000DFF8AC0B00788DF800002800C00608D540
:10AAC000DFF8380B006850F01000DFF8301B08602A
:10AAD00016E02800000708D5DFF8200B006850F0CA
:10AAE0000800DFF8181B08600AE02800400707D5B7
:10AAF000DFF8080B006850F00400DFF8001B086066
:10AB00009DF80010DFF8F80A0068FFF709FF002839
:10AB100008D1DFF8E80A006850F00200DFF8DC1A1C
:10AB200008601BE0DFF8840A0078C0B20500280046
:10AB3000C007B2D412E00F200600002E0ED000A9EC
:10AB4000DFF8200B0068FFF701FF002806D0DFF8D0
:10AB5000100B9DF800100170761EEEE7162004F031
:10AB6000DAFC73BD70B582B0DFF8FC0A006804003F
:10AB700014F00F00022858D0042803D0062801D072
:10AB80000C2865D1DFF8E40A0078C0B2050028007F
:10AB9000800707D5DFF8D80A006850F00200DFF818
:10ABA000D01A0860DFF8CC0A00788DF80000280081
:10ABB000C00608D5DFF8B80A006850F01000DFF8CA
:10ABC000B01A086016E02800000708D5DFF8A00AD0
:10ABD000006850F00800DFF8981A08600AE02800C2
:10ABE000400707D5DFF8880A006850F00400DFF856
:10ABF000801A08609DF80010DFF87C0A0068FFF7F3
:10AC00008FFE002808D1DFF8680A006850F00200C3
:10AC1000DFF85C1A08601BE0DFF8500A0078C0B269
:10AC200005002800C007B2D412E00F200600002E55
:10AC30000ED000A9DFF8440A0068FFF787FE00285D
:10AC400006D0DFF8300A9DF800100170761EEEE79E
:10AC5000172004F060FC73BD70B582B0DFF8200AE5
:10AC60000068040014F00F00022858D0042803D014
:10AC7000062801D00C2865D1DFF8080A0078C0B298
:10AC800005002800800707D5DFF8FC09006850F0B0
:10AC90000200DFF8F4190860DFF8F00900788DF899
:10ACA00000002800C00608D5DFF8DC09006850F075
:10ACB0001000DFF8D419086016E02800000708D556
:10ACC000DFF8C409006850F00800DFF8BC1908601C
:10ACD0000AE02800400707D5DFF8AC09006850F00B
:10ACE0000400DFF8A41908609DF80010DFF8A0093F
:10ACF0000068FFF715FE002808D1DFF88C0900680E
:10AD000050F00200DFF8801908601BE0DFF87409DA
:10AD10000078C0B205002800C007B2D412E00F20AE
:10AD20000600002E0ED000A9DFF868090068FFF7C2
:10AD30000DFE002806D0DFF854099DF800100170C0
:10AD4000761EEEE7182004F0E6FB73BD70B582B006
:10AD500004000D001600E4B2002C07D0022C00F015
:10AD6000DB806CD3032C00F04081C2E16C2006F044
:10AD7000F3F9DFF840170860DFF8380700680028AB
:10AD800001D10020B6E16C2006F0E6F9DFF81418D6
:10AD90000860DFF810080068002806D1DFF8140703
:10ADA000006806F0E1FB0020A4E10020DFF8F417C2
:10ADB00009680860DFF8EC1709684860DFF8F416E6
:10ADC00009680860DFF8EC1609684860DFF8C80811
:10ADD000006850F00800DFF8C0180860DFF8BC0811
:10ADE000006830F0300050F01000DFF8B018086054
:10ADF000DFF8A808006830F0C00050F04000DFF82D
:10AE00009C180860DFF8980803210170DFF89806A5
:10AE100007210160DFF88C08007850F08000DFF82F
:10AE200084180870DFF8800800688DF80000DFF8EB
:10AE3000780807210160152004F04EFB59E16C20D1
:10AE400006F08AF9DFF8B8170860DFF8B407006881
:10AE5000002801D100204DE16C2006F07DF9DFF8DB
:10AE600004180860DFF8FC070068002806D1DFF846
:10AE70009007006806F078FB00203BE10020DFF837
:10AE8000E41709680860DFF8DC1709684860DFF834
:10AE9000701709680860DFF8681709684860DFF80C
:10AEA000F807006850F01000DFF8EC170860DFF8D2
:10AEB000EC0700688000800850F08040DFF8DC1765
:10AEC0000860DFF8E80700688008800050F00100A3
:10AED000DFF8D8170860DFF8D80703210170DFF822
:10AEE000D40700210170DFF8C00607210160DFF8F8
:10AEF000C807007850F08000DFF8BC170870DFF852
:10AF0000BC0700688DF80000DFF8B007072101607A
:10AF1000162004F0E1FAECE06C2006F01DF9DFF8F1
:10AF200058170860DFF850070068002801D100209A
:10AF3000E0E06C2006F010F9DFF840170860DFF859
:10AF40003C070068002806D1DFF82C07006806F0EF
:10AF50000BFB0020CEE00020DFF820170968086016
:10AF6000DFF8181709684860DFF80C1709680860EF
:10AF7000DFF8041709684860DFF81C07006850F024
:10AF80008070DFF814170860DFF81007006830F4ED
:10AF9000401050F48010DFF804170860DFF8FC065A
:10AFA000006830F4400050F48000DFF8F0160860CC
:10AFB000DFF80C0703210170DFF8AC060721016000
:10AFC000DFF80007007850F08000DFF8F81608700E
:10AFD000DFF8F40600688DF80000DFF8EC060721C2
:10AFE0000160172004F078FA83E06C2006F0B4F8D2
:10AFF000DFF89C160860DFF898060068002801D189
:10B00000002077E06C2006F0A7F8DFF888160860CB
:10B01000DFF880060068002806D1DFF874060068B3
:10B0200006F0A2FA002065E00020DFF86816096843
:10B030000860DFF8601609684860DFF85416096890
:10B040000860DFF84C1609684860DFF84C060068B5
:10B0500050F00070DFF840160860DFF870060068F6
:10B0600050F04070DFF864160860DFF86006006892
:10B0700050F04060DFF854160860DFF854060321F2
:10B080000170DFF8FC0507210160F6B2012E16D130
:10B09000DFF84006016821F004010160DFF83406A2
:10B0A000006850F00200DFF82C160860DFF8240674
:10B0B000006850F00100DFF81C16086005E0DFF8BA
:10B0C0001406016821F001010160DFF80C06007828
:10B0D00050F08000DFF800160870DFF80006006806
:10B0E0008DF80000DFF8F40507210160182004F056
:10B0F000F3F9012076BD2DE9F14F0A985FF0FF3B8F
:10B100005D465FF0010BD946B9F1100F35D2DDF87D
:10B1100000B009FB0BFB5E465FF0010BDA46BAF1AB
:10B12000100F27D21AEB090B5FEA0B1BDC4601FB61
:10B130000CFB5F46B6FBF7FBD846B8F1020F16D3FF
:10B140000CFB08FBDE46B6FBFEFE714502D2BEEBF1
:10B15000010401E0B1EB0E04AC4208D22500C2F8B4
:10B160000080C0F80090C3F800A0002D05D01AF1AF
:10B17000010AD4E719F10109C6E7BDE8F18F36B538
:10B1800085B004000598002803D00598B0F57A3FF3
:10B1900000D957E1E4B2002C07D0022C00F0B380B4
:10B1A0005AD3032C00F003814CE1062004F0C2FACC
:10B1B000050003A8009002AB01AA05992800FFF73B
:10B1C0009AFFDFF8DC049DF81A10027861F301029F
:10B1D0000270DFF8CC049DF81810C1F3000102786A
:10B1E00061F3820202709DF81900042801D1002049
:10B1F00000E00120DFF8A814C0F300000A7860F333
:10B20000C3020A70DFF898049DF81910027861F300
:10B2100005120270DFF88804007850F08000DFF833
:10B2200080140870DFF8340401990170DFF87804A5
:10B230000199C1F3072101600298039910EB0110F5
:10B24000DFF89C140860DFF85804007810F07F00E5
:10B25000DFF84C140870F5E0082004F06BFA0500E4
:10B2600003A8009002AB01AA05992800FFF743FF4D
:10B27000DFF83C049DF81A10027861F301020270B5
:10B28000DFF82C049DF81810C1F30001027861F377
:10B29000820202709DF81900042801D1002000E00C
:10B2A0000120DFF80C14C0F300000A7860F3C30239
:10B2B0000A70DFF8FC039DF81910027861F305129B
:10B2C0000270DFF8EC03007850F08000DFF8E01344
:10B2D0000870DFF88C0301990170DFF8E003019931
:10B2E000C1F3072101600298039910EB0110DFF808
:10B2F000F4130860DFF8B803007810F07F00DFF87F
:10B30000B01308709EE0302004F014FA050003A882
:10B31000009002AB01AA05992800FFF7ECFEDFF8C8
:10B32000A0039DF81A10027861F301020270DFF8A1
:10B3300090039DF81810C1F30001027861F38202B6
:10B3400002709DF81900042801D1002000E00120BE
:10B35000DFF86C13C0F300000A7860F3C3020A70D0
:10B36000DFF85C039DF81910027861F30512027092
:10B37000DFF84C03007850F08000DFF844130870C9
:10B38000BC4801990170DFF840030199C1F307211E
:10B3900001600298039910EB0110DFF84C1308606C
:10B3A000C748007810F07F00C54908704AE0322095
:10B3B00004F0C0F9050003A8009002AB01AA0599AA
:10B3C0002800FFF798FEC2489DF81A10027861F332
:10B3D00001020270BE489DF81810C1F30001027806
:10B3E00061F3820202709DF81900042801D1002047
:10B3F00000E00120B649C0F300000A7860F3C30200
:10B400000A70B3489DF81910027861F305120270B2
:10B41000AF48007850F08000AD4908709B48019912
:10B420000170AE480199C1F30721016002980399A8
:10B4300010EB0110AD490860A548007810F07F00BE
:10B44000A349087007B030BD2DE9F04104000D009C
:10B450001600E4B2002C05D0022C0BD006D3032C2E
:10B460000CD00FE01348006880460DE06448006887
:10B47000804609E080480068804605E0844800680E
:10B48000804601E000200CE000200700B74207D210
:10B4900079194046FFF75AFA002801D07F1CF5E7DA
:10B4A0003800BDE8F081000008C0004014C0004032
:10B4B00030130010101300102DE9F84304000D00A4
:10B4C000160000208146E4B2002C05D0022C0BD0DF
:10B4D00006D3032C0CD00FE03248006807000DE0C3
:10B4E00060480068070009E064480068070005E05C
:10B4F00068480068070001E0002050E0002E4DD0B1
:10B50000EFF31080804672B638687968884237D188
:10B51000E4B2002C05D0022C1BD00ED3032C24D077
:10B520002EE04E48009072480078800628D500989A
:10B530002978017019F1010922E0494800901B485F
:10B54000007880061CD500982978017019F101094E
:10B5500016E04848009045480078800610D50098CD
:10B560002978017019F101090AE04848009045481E
:10B570000078800604D500982978017019F1010936
:10B58000B14509D219F805103800FFF7C9F90028AC
:10B5900002D019F10109F3E788F310884846BDE8A5
:10B5A000F283000014130010080001401400014051
:10B5B00038B5040000200500E4B2002C05D0022CB0
:10B5C0000DD007D3032C0FD013E04A49280006F012
:10B5D0003BFC10E00949280006F036FC0BE024494A
